:100000000C941F140C945E890C9433890C94088909
:100010000C94DD880C94B2880C9487880C945C88CE
:100020000C9431880C9450140C9450140C9450146B
:100030000C9450140C9450140C9450140C945014B0
:100040000C9450140C9450140C9450140C945014A0
:100050000C9450140C9450140C9450140C94E78786
:100060000C9450140C94B3890C9489890C945014FA
:100070000C9450140C9450140C9450140C94501470
:100080000C9450140C9450140C9450140C94501460
:100090000C9450140C9450140C9450140C94501450
:1000A0000C9450140C9450140C9450140C94501440
:1000B0000C9450140C9450140C9450140C94E98922
:1000C0000C9450140C9450140C9450140C94501420
:1000D0000C9450140C9450140C9450140C94501410
:1000E0000C9450140C941C360C9433180C94A15698
:1000F0000C945F660C9479510C94E12B0C94DC52B7
:100100000C941F310C94E06C0C94D7560C948675AB
:100110000C94F92B0C9467160C94F46C0C941D360B
:100120000C9457650C943A610C944E2D0C94F11478
:100130000C941D500C94F4400C94F97F0C94168D83
:100140000C94F9310C942D770C94D9140C94E2167C
:100150000C948A350C943A540C945D550C94356D7E
:100160000C94A1310C9432180C9401370C94106D3E
:100170000C940E560C94BE7D0C941D560C94CD829E
:100180000C94F12B0C94212C0C9426160C944A2ED2
:100190000C94592D0C946C2D0C947C6D0C94CA34D9
:1001A0000C94D92B0C949F780C94CB6C0C943F310D
:1001B0000C94E4150C94DF320C94F6560C94322C0B
:1001C0000C94A42E0C9441170C9415320C944916DF
:1001D0000C9437180C94FF300C94DA4F0C9425557E
:1001E0000C94C4190C94C1310C9433170C946751BE
:1001F0000C94DD140C94516E0C94D5150C946D5721
:100200000C94FF550C94D5190C94BA830C943516A4
:100210000C94CD150C94362D0C94CC140C94012C0C
:100220000C945D530C9470510C94E92B0C94E714CE
:100230000C94C4140C94E1170C94316E0C94DC2FC4
:100240000C9400160C944C510C94C14F0C942674D1
:100250000C94DA150C94CC340C945D160C94AB35DC
:100260000C943F160C949F7C0C946C760C94B68185
:100270000C94F0550C9416570C9408160C946E566A
:100280000C94192C0C94272B0C94726D0C941C1646
:100290000C94D3140C94722D0C943B560C9439741A
:1002A0000C9412550C94922B0C9461790C94E1559A
:1002B0000C94D0140C94CF160C944B810C940941DF
:1002C0000C94696E0C94752D0C949A350C94692DD0
:1002D0000C94E3160C9484190C945E510C9463579F
:1002E0000C94C7190C94FB2E0C940E330C94B91972
:1002F0000C941F170C94FF140C94EE150C94FE1420
:100300000C94112C0C944C740C94092C0C94D12B3F
:100310000C9472340C94F8150C946F550C947E5513
:100320000C9435180C94AA7E0C944E550C9412160D
:100330000C9453160C94DD300C946F2D0C94662D98
:100340000C94FE3A0C94B62D0C94E3140C94C8143F
:100350000C94148A0C94DD310C948F2F0C94791723
:100360000C9420360C94BE140C945D4F0C94101712
:100370000C94D2550C942C360C942C560C94303092
:100380000C94D8190C94F9140C94F7400C94F514AF
:100390000C946C650C9403150C94373C0C942B2C2A
:1003A0000C94BA550C9455510C9443510C94EB1485
:1003B00058574149540058434F4D4D454E540058ED
:1003C000534952320058454E4444520058454E4419
:1003D00049520058535441544500585344525444D0
:1003E0004F45005853445254444F430058534452CD
:1003F00054444F42005853445245005853445243CA
:100400000058534452420058534452494E430058F6
:100410005345545344524D41534B53005853445247
:1004200054444F005853445253495A45005852457A
:1004300050454154005852455345525645445F3645
:10044000005852455345525645445F350058525561
:100450004E54455354005853445200585349520087
:100460005854444F4D41534B0058434F4D504C4509
:100470005445005550444154455F49520045584940
:1004800054325F49520050415553455F495200452F
:10049000584954315F49520053484946545F4952C4
:1004A00000434150545552455F49520053454C4515
:1004B00043545F49525F5343414E005550444154A9
:1004C000455F44520045584954325F445200504100
:1004D0005553455F44520045584954315F445200DA
:1004E00053484946545F4452004341505455524585
:1004F0005F44520053454C4543545F44525F53435D
:10050000414E0052554E5F544553545F49444C454B
:1005100000544553545F4C4F4749435F5245534540
:100520005400445220636865636B206661696C65A2
:10053000640058434F4D504C455445206E6F742015
:10054000726561636865640056526566206E6F74FB
:100550002070726573656E740053657269616C20FA
:10056000706F72742074696D656F7574004E6F20C2
:100570006572726F7200556E6B6E6F776E2065726A
:10058000726F72206D6573736167650053756D3AA4
:100590002030782530386C582F256C752E00436834
:1005A00065636B73756D3A20203078253032582F93
:1005B000256C752E0000000000650000008F020011
:1005C00000B904000001090000AC1100009C2300E8
:1005D00000F22E00001632000078370000B8390013
:1005E00000CC3F0000B8450000D2480000B84E00E3
:1005F000001C5600003059000014610000766500B0
:1006000000BC6C000090770000C0830000168700DB
:1006100000988B0000FA8F0000729400007A9C0012
:100620000090A100004CAB0000F4AE0000EAB60060
:100630000064BB0000A8C60000A8D600004EDD0084
:100640000070E300007CEB0000CAEE0000A6F5009D
:100650000006FE000072030100A40901008A1101D6
:1006600000E2170100E0200100942A0100782F0128
:100670000032370100C24601004A4F0100F2540126
:1006800000EA5C0100CC630100D2700100FE7A0137
:10069000005C85010034890100A09101001A9501D8
:1006A0000062A30100C0AF0100C0BE010090C00104
:1006B00000B4C801003ACB01001EE001009F010216
:1006C000001F170200A3470200B9730200D38F0274
:1006D0000079AB02004FBD02008BDB0200AB0003D0
:1006E000000B3303000B3303000B3303000B330306
:1006F000000B3303000B3303000B3303000B3303F6
:10070000000B3303000B3303000B3303000B3303E5
:10071000000B3303000B3303000B3303000B3303D5
:10072000000B3303000B3303000B3303000B3303C5
:10073000000B3303000B3303000B3303000B3303B5
:10074000000B3303000B3303000B3303000B3303A5
:10075000000B3303000B3303000B3303000B330395
:10076000000B3303000B3303000B3303000B330385
:10077000000B3303000B3303000B3303000B330375
:10078000000B3303000B3303000B3303000B330365
:10079000000B3303000B3303000B3303000B330355
:1007A00000345E0300E87B0300E87B0300E87B0382
:1007B00000E87B0300E87B0300E87B0300E87B03A1
:1007C00000E87B0300E87B0300E87B0300E87B0391
:1007D00000E87B0300E87B0300E87B0300E87B0381
:1007E00000E87B0300E87B0300E87B0300E87B0371
:100DB00000E87B0300E87B0300E1A503007DC2039C
:100DC0000059DD030053FA0300432E04008A550442
:100DD000004D6C0400948404002499040070BA044B
:100DE000006CCB040074DB04000C0105000E1C0534
:100DF000008D3C0500056205000C87050005A9056E
:100E000000E3C305002FDC0500DDF60500680F06D2
:100E100000680F0600680F0600680F0600680F06DE
:100E200000680F0600680F0600680F0600680F06CE
:100E300000680F0600680F0600680F0600680F06BE
:100E400000680F0600680F0600680F0600680F06AE
:100E500000680F0600680F0600680F0600680F069E
:100E600000680F0600680F0600680F0600680F068E
:100E700000680F0600680F0600680F0600680F067E
:100E800000680F0600680F0600680F0600680F066E
:100E900000680F0600680F0600680F0600680F065E
:100EA00000680F0600680F0600680F0600680F064E
:100EB00000680F0600680F0600680F0600680F063E
:100EC00000680F0600680F0600680F0600680F062E
:100ED00000680F0600680F0600680F0600680F061E
:100EE00000680F0600680F0600680F0600680F060E
:100EF00000680F0600680F0600680F0600680F06FE
:100F000000680F0600680F0600680F0600680F06ED
:100F100000680F0600680F0600680F0600680F06DD
:100F200000680F0600680F0600680F0600680F06CD
:100F300000680F0600680F0600680F0600680F06BD
:100F400000680F0600680F0600680F0600680F06AD
:100F500000680F0600680F0600680F0600680F069D
:100F600000680F0600680F0600680F0600680F068D
:100F700000680F0600680F0600680F0600680F067D
:100F800000680F0600680F0600680F0600680F066D
:100F900000680F0600680F0600680F0600680F065D
:100FA00000680F0600680F0600680F0600680F064D
:100FB00000680F0600680F060004280600D03C06F3
:100FC00000D3680600F5840600419F0600EEB706D0
:100FD00000DCD1060021F206003E1A07004A300765
:100FE00000C2470700A870070048890700DE96077F
:100FF00000A6C6070008FD0700E4250800503108D8
:1010000000F8720800F8A30800B4BF0800E8D80888
:101010000005F3080005F3080005F3080005F308D0
:101020000005F3080005F3080005F3080005F308C0
:101030000005F3080005F3080005F3080005F308B0
:101040000005F3080005F3080005F3080005F308A0
:101050000005F3080005F3080005F3080005F30890
:101060000005F3080005F3080005F3080005F30880
:101070000005F3080005F3080005F3080005F30870
:101080000005F3080005F3080005F3080005F30860
:101090000005F3080005F3080005F3080005F30850
:1010A0000005F3080005F3080005F3080005F30840
:1010B0000005F3080005F3080005F3080005F30830
:1010C0000005F3080005F3080005F3080005F30820
:1010D0000005F3080005F3080005F3080005F30810
:1010E0000005F3080005F3080005F3080005F30800
:1010F0000005F3080005F3080005F3080005F308F0
:101100000005F3080005F3080005F3080005F308DF
:101110000005F3080005F3080005F3080005F308CF
:101120000005F3080005F3080005F3080005F308BF
:101130000005F3080005F3080005F3080005F308AF
:101140000005F3080005F3080005F3080005F3089F
:101150000005F3080005F3080005F3080005F3088F
:101160000005F3080005F3080005F3080005F3087F
:101170000005F3080005F3080005F3080005F3086F
:101180000005F3080005F3080005F3080005F3085F
:101190000005F3080005F3080005F3080005F3084F
:1011A0000005F3080005F3080005F3080005F3083F
:1011B0000005F3080005F3080019FF0800271409CB
:1011C000002C4C09009B5E09001F730900898E09E1
:1011D00000A9AF0900C1D40900896B0A004DE00ADB
:1011E000008D0C0B00B9160B00F1550B00DD620BE6
:1011F00000F36F0B00F1B60B0005C40B00E8D00B39
:1012000000CEDD0B00B8EA0B007BF70B00B7040C37
:1012100000F7110C00381F0C00572C0C003B390C48
:10122000002B460C0075530C0061600C00526D0CD5
:1012300000387A0C0044870C0036940C0020A10C76
:10124000000CAE0C00FEBA0C00EFC70C00DED40C94
:1012500000EAE10C00D0EE0C00D0EE0C00D0EE0C59
:1012600000D0EE0C00D0EE0C00D0EE0C00D0EE0C56
:1012700000D0EE0C00D0EE0C00D0EE0C00D0EE0C46
:1012800000D0EE0C00D0EE0C00D0EE0C00D0EE0C36
:1012900000D0EE0C00D0EE0C00D0EE0C00D0EE0C26
:1012A00000D0EE0C00D0EE0C00D0EE0C00D0EE0C16
:1012B00000D0EE0C00D0EE0C00D0EE0C00D0EE0C06
:1012C00000D0EE0C00D0EE0C00D0EE0C00D0EE0CF6
:1012D00000D0EE0C00D0EE0C00D0EE0C00D0EE0CE6
:1012E00000D0EE0C00D0EE0C00D0EE0C00D0EE0CD6
:1012F00000D0EE0C00D0EE0C00D0EE0C00D0EE0CC6
:1013000000D0EE0C00D0EE0C00D0EE0C00D0EE0CB5
:1013100000D0EE0C00D0EE0C00D0EE0C00D0EE0CA5
:1013200000D0EE0C00D0EE0C00D0EE0C00D0EE0C95
:1013300000D0EE0C00D0EE0C00D0EE0C00D0EE0C85
:1013400000D0EE0C00D0EE0C00D0EE0C00D0EE0C75
:1013500000D0EE0C00D0EE0C00D0EE0C00D0EE0C65
:1013600000D0EE0C00D0EE0C00D0EE0C00D0EE0C55
:1013700000D0EE0C00D0EE0C00D0EE0C00D0EE0C45
:1013800000D0EE0C00D0EE0C00D0EE0C00D0EE0C35
:1013900000D0EE0C00D0EE0C00D0EE0C00D0EE0C25
:1013A00000D0EE0C00D0EE0C00D0EE0C00D0EE0C15
:1013B00000D0EE0C00D0EE0C000A0B0D00C0200D8A
:1013C000007E360D00024F0D00566C0D006E810D33
:1013D0000083A40D000FC70D00A9E00D00BDFB0D9B
:1013E0000050170E00C8340E00664B0E0092650EBA
:1013F00000BE7D0E00CE900E0006AE0E009AC80E06
:101400000095E50E006EFD0E00DA100F00B6240FF9
:1014100000123E0F0085600F005D780F00658F0F92
:1014200000FDA50F006BBC0F0075D40F00EDE70F9A
:1014300000EDE70F00EDE70F00EDE70F00EDE70F20
:1014400000EDE70F00EDE70F00EDE70F00EDE70F10
:1014500000EDE70F00EDE70F00EDE70F00EDE70F00
:1014600000EDE70F00EDE70F00EDE70F00EDE70FF0
:1014700000EDE70F00EDE70F00EDE70F00EDE70FE0
:1014800000EDE70F00EDE70F00EDE70F00EDE70FD0
:1014900000EDE70F00EDE70F00EDE70F00EDE70FC0
:1014A00000EDE70F00EDE70F00EDE70F00EDE70FB0
:1014B00000EDE70F00EDE70F00EDE70F00EDE70FA0
:1014C00000EDE70F00EDE70F00EDE70F00EDE70F90
:1014D00000EDE70F00EDE70F00EDE70F00EDE70F80
:1014E00000EDE70F00EDE70F00EDE70F00EDE70F70
:1014F00000EDE70F00EDE70F00EDE70F00EDE70F60
:1015000000EDE70F00EDE70F00EDE70F00EDE70F4F
:1015100000EDE70F00EDE70F00EDE70F00EDE70F3F
:1015200000EDE70F00EDE70F00EDE70F00EDE70F2F
:1015300000EDE70F00EDE70F00EDE70F00EDE70F1F
:1015400000EDE70F00EDE70F00EDE70F00EDE70F0F
:1015500000EDE70F00EDE70F00EDE70F00EDE70FFF
:1015600000EDE70F00EDE70F00EDE70F00EDE70FEF
:1015700000EDE70F00EDE70F00EDE70F00EDE70FDF
:1015800000EDE70F00EDE70F00EDE70F00EDE70FCF
:1015900000EDE70F00EDE70F00EDE70F00EDE70FBF
:1015A00000EDE70F00EDE70F00EDE70F00EDE70FAF
:1015B00000EDE70F00EDE70F008C02100088181017
:1015C00000A85C10008A7C1000929B100052B6109C
:1015D0000073D6100047EC1000410F1100ED2B11E5
:1015E00000714F1100BB6D110077891100DB9F1155
:1015F0000013B811007BD1110028F01100E2101285
:1016000000BA25120020461200BE641200CD7F12DF
:1016100000319D1200FDBC1200AFDD12002BFA124A
:10162000000F151300CD2F1300CD2F1300CD2F1356
:1016300000CD2F1300CD2F1300CD2F1300CD2F136E
:1016400000CD2F1300CD2F1300CD2F1300CD2F135E
:1016500000CD2F1300CD2F1300CD2F1300CD2F134E
:1016600000CD2F1300CD2F1300CD2F1300CD2F133E
:1016700000CD2F1300CD2F1300CD2F1300CD2F132E
:1016800000CD2F1300CD2F1300CD2F1300CD2F131E
:1016900000CD2F1300CD2F1300CD2F1300CD2F130E
:1016A00000CD2F1300CD2F1300CD2F1300CD2F13FE
:1016B00000CD2F1300CD2F1300CD2F1300CD2F13EE
:1016C00000CD2F1300CD2F1300CD2F1300CD2F13DE
:1016D00000CD2F1300CD2F1300CD2F1300CD2F13CE
:1016E00000CD2F1300CD2F1300CD2F1300CD2F13BE
:1016F00000CD2F1300CD2F1300CD2F1300CD2F13AE
:1017000000CD2F1300CD2F1300CD2F1300CD2F139D
:1017100000CD2F1300CD2F1300CD2F1300CD2F138D
:1017200000CD2F1300CD2F1300CD2F1300CD2F137D
:1017300000CD2F1300CD2F1300CD2F1300CD2F136D
:1017400000CD2F1300CD2F1300CD2F1300CD2F135D
:1017500000CD2F1300CD2F1300CD2F1300CD2F134D
:1017600000CD2F1300CD2F1300CD2F1300CD2F133D
:1017700000CD2F1300CD2F1300CD2F1300CD2F132D
:1017800000CD2F1300CD2F1300CD2F1300CD2F131D
:1017900000CD2F1300CD2F1300CD2F1300CD2F130D
:1017A00000CD2F1300CD2F1300CD2F1300CD2F13FD
:1017B00000CD2F1300CD2F130071481300FD5E13D1
:1017C00000877913009F9313007FAD130099CA130C
:1017D0000028E613006BFD1300F01714007E31148F
:1017E000008A4C140020681400578314007C9F1456
:1017F0000051BC140081D0140061E5140042FA14B9
:1018000000361915002D361500D1501500116A1536
:1018100000C1831500AD9B1500B5B9150096D21512
:101820000004EB150004EB150004EB150004EB15A8
:101830000004EB150004EB150004EB150004EB1598
:101840000004EB150004EB150004EB150004EB1588
:101850000004EB150004EB150004EB150004EB1578
:101860000004EB150004EB150004EB150004EB1568
:101870000004EB150004EB150004EB150004EB1558
:101880000004EB150004EB150004EB150004EB1548
:101890000004EB150004EB150004EB150004EB1538
:1018A0000004EB150004EB150004EB150004EB1528
:1018B0000004EB150004EB150004EB150004EB1518
:1018C0000004EB150004EB150004EB150004EB1508
:1018D0000004EB150004EB150004EB150004EB15F8
:1018E0000004EB150004EB150004EB150004EB15E8
:1018F0000004EB150004EB150004EB150004EB15D8
:101900000004EB150004EB150004EB150004EB15C7
:101910000004EB150004EB150004EB150004EB15B7
:101920000004EB150004EB150004EB150004EB15A7
:101930000004EB150004EB150004EB150004EB1597
:101940000004EB150004EB150004EB150004EB1587
:101950000004EB150004EB150004EB150004EB1577
:101960000004EB150004EB150004EB150004EB1567
:101970000004EB150004EB150004EB150004EB1557
:101980000004EB150004EB150004EB150004EB1547
:101990000004EB150004EB150004EB150004EB1537
:1019A0000004EB150004EB150004EB150004EB1527
:1019B0000004EB150004EB150080021600E6221669
:1019C00000BE3E16005E4F1600B86C1600A88C16BE
:1019D0000050A7160005C7160039E916002706179C
:1019E00000DF221700AA441700016217005981176F
:1019F00000AAA7170056C8170032DB1700FEF2171F
:101A00000086061800A3221800243D1800FD541873
:101A100000B1721800339118005F4419003B5E1941
:101A2000002D7C19002D7C19002D7C19002D7C19AE
:101A3000002D7C19002D7C1900EB0C1A00C74D1CE1
:101A4000006B9C1D0049D01E0001042000C3F5203E
:101A500000DBD62200B1F623007139260059442854
:101A600000FD4B2A0099E42A00F9AD2C0093E62DE5
:101A70000093DD2E00DD773000A9463100F1C03142
:101A800000270332002F7432001DCA3200D78C3376
:101A9000008D233400A9853400A9853400A985343C
:101AA00000A9853400A9853400A9853400A98534AE
:101AB00000A9853400A9853400A9853400A985349E
:101AC00000A9853400A9853400A9853400A985348E
:101AD00000A9853400A9853400A9853400A985347E
:101AE00000A9853400A9853400A9853400A985346E
:101AF00000A9853400A9853400A9853400A985345E
:101B000000A9853400A9853400A9853400A985344D
:101B100000A9853400A9853400A9853400A985343D
:101B200000A9853400A9853400A9853400A985342D
:101B300000A9853400A9853400A9853400A985341D
:101B400000A9853400A9853400A9853400A985340D
:101B500000A9853400A9853400A9853400A98534FD
:101B600000A9853400A9853400A9853400A98534ED
:101B700000A9853400A9853400A9853400A98534DD
:101B800000A9853400A9853400A9853400A98534CD
:101B900000A9853400A9853400A9853400A98534BD
:101BA00000A9853400A9853400A9853400A98534AD
:101BB00000A9853400A9853400A9853400A985349D
:101BC00000A9853400A9853400A9853400A985348D
:101BD00000A9853400A9853400A9853400A985347D
:101BE00000A9853400A9853400A9853400A985346D
:101BF00000A9853400A9853400A9853400A985345D
:101C000000A9853400A9853400A9853400A985344C
:101C100000A9853400A9853400A9853400A985343C
:101C200000A9853400A9853400A9853400A985342C
:101C300000A9853400A9853400F39A3400F39A345E
:101C400000F39A3400F39A3400F39A3400F39A3490
:101C500000F39A3400F39A3400F39A3400F39A3480
:101C600000F39A3400F39A3400F39A3400F39A3470
:101C700000F39A3400F39A3400F39A3400F39A3460
:101C800000F39A3400F39A3400F39A3400F39A3450
:101C900000F39A3400F39A3400F39A3400F39A3440
:101CA00000F39A3400F39A3400F39A3400F39A3430
:101CB00000F39A3400F39A3400F39A3400F39A3420
:101CC00000F39A3400F39A3400F39A3400F39A3410
:101CD00000F39A3400F39A3400F39A3400F39A3400
:101CE00000F39A3400F39A3400F39A3400F39A34F0
:101CF00000F39A3400F39A3400F39A3400F39A34E0
:101D000000F39A3400F39A3400F39A3400F39A34CF
:101D100000F39A3400F39A3400F39A3400F39A34BF
:101D200000F39A3400F39A3400F39A3400F39A34AF
:101D300000F39A3400F39A3400F39A3400F39A349F
:101D400000F39A3400F39A3400F39A3400F39A348F
:101D500000F39A3400F39A3400F39A3400F39A347F
:101D600000F39A3400F39A3400F39A3400F39A346F
:101D700000F39A3400F39A3400F39A3400F39A345F
:101D800000F39A3400F39A3400F39A3400F39A344F
:101D900000F39A3400F39A3400F39A3400F39A343F
:101DA00000F39A3400F39A3400F39A3400F39A342F
:101DB00000F39A3400F39A340025732F0025730042
:101DC00025732573004572726F72206F70656E6E99
:101DD000696E6720524F4D2066696C6500457272CE
:101DE0006F7220696E206D656D20706F73202564A1
:101DF000004572726F722072656164696E6720635C
:101E00006F6D6D616E64004572726F7220726561F4
:101E100064696E67207265676973746572004572E4
:101E2000726F722072656164696E672076616C758D
:101E30006500504547202825303458292067726FA7
:101E40007570203120696E737472756374696F6E7A
:101E5000206E6F7420737570706F727465640050BB
:101E60004547202825303458292067726F75702027
:101E70003320696E737472756374696F6E206E6F50
:101E80007420737570706F72746564005045473AC2
:101E90002048414C5420416464723A2025687520E2
:101EA0005448524541443A202568752000637572B4
:101EB00072656E7420646972203D20222573220DA4
:101EC0000022257322206973206E6F7420612064C4
:101ED00069720D00646972202225732220646F6587
:101EE00073206E6F74206578697374730D0065726A
:101EF000726F72206F70656E6E696E672025730059
:101F000063616E206E6F7420637265617465206416
:101F1000697220222573220D0063616E206E6F743A
:101F20002072656D6F7665206469720D0063616E65
:101F3000206E6F742072656E616D652066696C65D8
:101F400020257320746F2025730063616E206E6FEF
:101F5000742072656E616D652066696C65202573FD
:101F600020746F202573004572726F72206F706548
:101F70006E696E672025732E0066696C6520257377
:101F800020646F6573206E6F742065786973747355
:101F90002E007374617475733D25687500693D2565
:101FA0006C75006673697A65323D257500696969EB
:101FB00069696900706C6179696E672025730063D7
:101FC000616E2774206F70656E206C6F616420668F
:101FD000696C65006572726F72206F70656E6E69F4
:101FE0006E6720257300434C4F5345006572726F36
:101FF00072206F70656E6E696E6720257300636175
:102000006E2774206F70656E206C6F616420666946
:102010006C650025732E50002573253033640063F2
:10202000616E277420736176652066696C65005463
:102030006F74616C202564206469722873292C20D8
:1020400025642066696C65287329200D00252D32D2
:1020500034732025376C750D0025730D006469728B
:10206000206F6620222573257322206973200D00BE
:10207000646972206F70656E206661696C656400CA
:102080006572726F72206F70656E6E696E67202563
:10209000730025732573006572726F72206F70650F
:1020A0006E6E696E6720257300252D3234732025EE
:1020B000376C750D006572726F72206F70656E6E91
:1020C000696E67202573006572726F72206F70658C
:1020D0006E6E696E67202573006572726F72206F75
:1020E00070656E6E696E6720257300646972206F7B
:1020F0006620222573257322206973200D00534426
:102100002073697A6520256C75204B42200D46525C
:10211000454520256C75204B4200646972206F662E
:1021200020222573257322206973200D00646972B3
:10213000206F70656E206661696C6564002573258B
:1021400073000F0F0F0F0F0F0F0F770F760F0F7614
:102150000F0F0F0F0F0F0F0F0F0F0F0F0F0F0F0F8F
:102160000F0F000F0B0F0D0F0F0F101117151A1671
:102170001B181C1D1E1F2021222324250E19131499
:10218000120F0F262728292A2B2C2D2E2F303132E3
:10219000333435363738393A3B3C3D3E3F0F0F0F2D
:1021A0000F0F0F262728292A2B2C2D2E2F303132C6
:1021B000333435363738393A3B3C3D3E3F0F0F0F0D
:1021C0000F0F0F0F0F0F0F0F0F0F0F0F0F0F0F0F1F
:1021D0000F0F0F0F0F0F0F0F0F0F0F0F0F0F0F0F0F
:1021E0000F0F0F0F0F0F0F0F0F0F0F0F0F0F0F0FFF
:1021F0000F0F0F0F0F0F0F0F0F0F0F0F0F0F0F0FEF
:102200000F0F0F0F0F0F0F0F0F0F0F0F0F0F0F0FDE
:102210000F0F0F0F0F0F0F0F0F0F0F0F0F0F0F0FCE
:102220000F0F0F0F0F0F0F0F0F0F0F0F0F0F0F0FBE
:102230000F0F0F0F0F0F0F0F0F0F0F0F0F0F0F0FAE
:102240000FFF1000110012001300140015001700FA
:1022500018001A001B001D001F002100230025008C
:10226000270029002B002E003100340037003A00EF
:102270003E004100450049004D00520057005C00FF
:10228000620068006E0075007C0083008B00930084
:102290009C00A500AF00B900C400D000DC00E9003C
:1022A000F70006011501260137014A015D0172019F
:1022B00088019F01B801D201EE010B022A024B02F4
:1022C0006E029302BA02E40210033F037003A403F8
:1022D000DC03170455049704DD0427057505C805BC
:1022E00020067D06E0064907B8072D08A9082D0934
:1022F000B9094D0AEA0A900B400CFA0CC00D910E78
:102300006F0F5A1053115B1272139A14D3152017C2
:102310008018F519801B231DDE1EB420A522B524CC
:10232000E4263429A72B3F2EFF30E9330037453A06
:10233000BC3D63616E2774206F70656E206C6F61A9
:10234000642066696C650025732530336400203F86
:102350003F3F3F3F3F3F3F3F3F2226243A3F282910
:102360003E3C3D2B2D2A2F3B2C2E30313233343541
:10237000363738394142434445464748494A4B4C31
:102380004D4E4F505152535455565758595A3F3F3E
:102390003F3F3F3F3F3F3F3F3F3F3F3F3F3F3F3F4D
:1023A0003F3F3F3F3F3F3F3F3F3F3F3F3F3F3F3F3D
:1023B0003F3F3F3F3F3F3F3F3F3F3F3F3F3F3F3F2D
:1023C0003F3F3F3F3F3F3F3F3F3F3F3F3F3F203F3C
:1023D0003F3F3F3F3F3F3F3F3F2226243A3F282990
:1023E0003E3C3D2B2D2A2F3B2C2E303132333435C1
:1023F000363738394142434445464748494A4B4CB1
:102400004D4E4F505152535455565758595A0F0F1D
:102410000F0F0F0F0F0F0F0F0F0F0F0F0F0F0F0FCC
:102420000F0F0F0F0F0F0F0F0F0F0F0F0F200F0FAB
:102430000F0F0F0F0F0F0F0F0F0F0F0F0F0F0F0FAC
:102440000F0F0F0F0F0F0F0F0F0F0F0F0F0F436F08
:102450006D6D616E64206E6F74207265636F676E60
:10246000697A65643A20257300565245462069739F
:10247000206E6F742070726573656E742E20506CC0
:10248000656173652C20636865636B2074686520E3
:102490006361626C652E000D0A5200585356460067
:1024A00025732E4552524F52004572726F720025AD
:1024B000732E444F4E4500446F6E650025732E50B9
:1024C000524F434553530025732E4552524F5200ED
:1024D00025732E444F4E450050726F6772616D6DCB
:1024E000696E672043504C442E2E2E0025732E58C3
:1024F0005356460052657175657374656420445285
:102500002073697A652028256C75206269747329A7
:102510002069732067726561746572207468616EEA
:1025200020746865206D6178696D756D20636861E0
:10253000696E2073697A6520737570706F72746547
:102540006420627920746869732070726F677261A9
:102550006D6D6572202825642062697473292E00D0
:10256000556E696D706C656D656E74656420696E1D
:10257000737472756374696F6E3A202573283078AE
:10258000253032582900556E6B6E6F776E20696E5C
:10259000737472756374696F6E00200020626974D1
:1025A00073002F00214C6173742054444F3A005043
:1025B000726F63657373656420256420696E73743C
:1025C00072756374696F6E732E002A2A2A2A2A2A6A
:1025D0002A2A2A2A2A2A2A2A2A2A2A2A2A2A2A2A5B
:1025E0002A2A2A2A2A2A2A004661696C75726520DD
:1025F000617420696E737472756374696F6E2023E1
:10260000253564002A2A2A2A2A2A2A2A2A2A2A2A14
:102610002A2A2A2A2A2A2A2A2A2A2A2A2A2A2A2A1A
:102620002A002A2A2A2A2A2A2A2A0053756363653D
:10263000737321002A2A2A2A2A2A2A2A00210063BF
:102640006F756E743A20256C642C20746872657303
:10265000686F6C643A2025642C206D6F643A2025E5
:102660006C642C20617661696C3A202564005365A6
:102670007269616C20706F72742074696D656F751A
:10268000742100554E4B4E4F574E5F5354415445A5
:1026900000445220636865636B206661696C656401
:1026A0002100534420696E697469616C697A6174B0
:1026B000696F6E20646F6E652E00534420696E69E9
:1026C0007469616C697A6174696F6E206661696CA6
:1026D00065642100534420616C72656164792069EE
:1026E0006E697469616C697A65642E00564F49435E
:1026F0004520454D554C41544F5220426567696E07
:10270000007265736574696E67205A383000494EEF
:1027100049540000002200250028002B002E003123
:1027200000340002010000050108010B0100002136
:1027300000240027002A002D003000330001010092
:1027400000040107010A01000020002300260029DF
:10275000002C002F003200000100000301060109D7
:102760000105050505070508080808020202020A16
:102770000A08080404040401010101010101010324
:1027800003030303030303040707070C0C0C0C0CDF
:102790000C0C0C0202020206060606060606060BD2
:1027A0000B0B0B0B0B0B0B01021020200808102049
:1027B00040102040800201020108040201010204CD
:1027C000081020408080402010080402018004028C
:1027D00001804020100804020108040201010204E3
:1027E0000810204080010204081020408000000AE8
:1027F0000B02090C0D0E0807030401000000000085
:1028000000000000000000000000000000000000C8
:102810000000000000000000001211100000000085
:1028200000000000000000000000000000000000A8
:102830000000002C000D0A510000148A168D11248E
:102840001FBECFEFD1E2DEBFCDBF00E00CBF15E071
:10285000A0E0B2E0E2E4FAE201E00BBF02C00790C0
:102860000D92A232B107D9F725E1A2E2B5E001C08D
:102870001D92A93FB207E1F714E1CEE1D4E100E0F7
:1028800006C021970109802FFE010E94EB93CD31F4
:10289000D10780E00807A9F70E94B78A0C940F952A
:1028A0000C940000EAE5F1E1A089B18982E08C9303
:1028B000A485B5851C92A685B7858FEC8C93108E68
:1028C000A489B58986E08C93A289B3898C918061B3
:1028D0008C93A289B3898C9188608C93A289B389E7
:1028E0008C9180688C930288F389E02D80818F7DA4
:1028F00080830895653048F470E0660F771F680F95
:10290000791FFB018181928108956B3050F46550ED
:10291000770B660F771F680F791FFB0186859785F8
:1029200008956D3051F06B50770B660F771F680F6D
:10293000791FFB01848D958D089590E080E00895C6
:102940008150823108F05AC0E82FF0E08827E45522
:10295000FB4E8F4F0C94EB93CC14D014BE14C414C4
:10296000C814FE14D314D914DD14E314E714EB14C3
:10297000F114F514FE14F914FF140315809180006E
:102980008F77809380000895809180008F7DF9CFAC
:1029900080918000877FF5CF84B58F7784BD0895BF
:1029A00084B58F7DFBCF8091B0008F778093B0008E
:1029B00008958091B0008F7DF9CF809190008F773E
:1029C000809390000895809190008F7DF9CF809141
:1029D0009000877FF5CF8091A0008F778093A00033
:1029E00008958091A0008F7DF9CF8091A000877F0E
:1029F000F5CF809120018F778093200108958091F9
:102A000020018F7DF9CF80912001877FF5CFCF9373
:102A1000DF93E0E0F8E28491EAEBF7E2D491E4E7B7
:102A2000F7E2C491CC23A1F081110E94A014EC2FF5
:102A3000F0E0EE0FFF1FE95BF84DA591B491EC912A
:102A4000ED2381E090E009F480E0DF91CF910895DB
:102A500080E090E0FACF1F93CF93DF93282F30E0F0
:102A6000F901E351F84D8491F901E955F84DD491FC
:102A7000F901EF59F84DC491CC23A9F0162F81111B
:102A80000E94A014EC2FF0E0EE0FFF1FED5EF84D5A
:102A9000A591B4918FB7F894EC91111108C0D0951D
:102AA000DE23DC938FBFDF91CF911F910895DE2B42
:102AB000F8CFCF93DF9390E0FC01E955F84D2491D6
:102AC0008F59984DFC0184918823C9F090E0880FBC
:102AD000991FFC01E35DF84DA591B491FC01ED5EF9
:102AE000F84DC591D49161110DC09FB7F8948C91A8
:102AF000209582238C938881282328839FBFDF9190
:102B0000CF910895623051F49FB7F8943C91822F91
:102B1000809583238C93E8812E2BEFCF8FB7F89489
:102B2000EC912E2B2C938FBFEACF1F93CF93DF9383
:102B3000182FEB0161E00E945915209739F460E0ED
:102B4000812FDF91CF911F910C942B15CF3FD10591
:102B500011F461E0F5CFE12FF0E0E351F84DE4919D
:102B6000E150E23108F0B3C0F0E08827E554FA4EB6
:102B70008F4F0C94EB93CD15D515DA15E415EE15A2
:102B80006716F8150016081612161C1626163516A6
:102B90003F166716491653165D1684B5806884BDC6
:102BA000C7BDDF91CF911F91089584B5806284BD28
:102BB000C8BDF7CF80918000806880938000D0935B
:102BC0008900C0938800EDCF80918000806280935F
:102BD0008000D0938B00C0938A00E3CF8091800067
:102BE000886080938000D0938D00C0938C00D9CFF3
:102BF0008091B00080688093B000C093B300D1CFC3
:102C00008091B00080628093B000C093B400C9CFBF
:102C100080919000806880939000D0939900C09339
:102C20009800BFCF80919000806280939000D093F5
:102C30009B00C0939A00B5CF8091900088608093EC
:102C40009000D0939D00C0939C00ABCF8091A000DA
:102C500080688093A0008091A0008F7B8093A0006B
:102C6000D093A900C093A8009CCF8091A00080625F
:102C70008093A000D093AB00C093AA0092CF809124
:102C8000A00088608093A000D093AD00C093AC00FA
:102C900088CF80912001806880932001D093290102
:102CA000C09328017ECF8091200180628093200113
:102CB000D0932B01C0932A0174CF809120018860AA
:102CC00080932001D0932D01C0932C016ACFC0388E
:102CD000D1050CF03ECF33CF3FB7F89480918710E9
:102CE00090918810A0918910B0918A1026B5A89B68
:102CF00005C02F3F19F00196A11DB11D3FBFBA2F8E
:102D0000A92F982F8827BC01CD01620F711D811D4D
:102D1000911D42E0660F771F881F991F4A95D1F7D2
:102D200008958F929F92AF92BF92CF92DF92EF92CF
:102D3000FF924B015C010E946C166B017C010E94AA
:102D40006C166C197D098E099F09683E73408105D8
:102D50009105A8F321E0821A9108A108B10888EE34
:102D6000C80E83E0D81EE11CF11C81149104A1045B
:102D7000B10429F7FF90EF90DF90CF90BF90AF9014
:102D80009F908F9008952FB7F89460918310709161
:102D9000841080918510909186102FBF0895209106
:102DA00028013091290150E040E02F5F3F4F4F4F05
:102DB0005F4F60E074E284EF90E00E944793CA01A5
:102DC000B90108950895AF92BF92CF92DF92EF922A
:102DD000FF920F931F93CF93DF936C017B018B01C5
:102DE000040F151FEB015E01AE18BF08C017D10715
:102DF00059F06991D601ED91FC910190F081E02D9F
:102E0000C6011995892B79F7C501DF91CF911F91E3
:102E10000F91FF90EF90DF90CF90BF90AF9008950B
:102E2000FC01538D448D252F30E0842F90E0821BD0
:102E3000930B541710F0CF96089501970895FC0155
:102E4000918D828D981761F0A28DAE0FBF2FB11DAD
:102E50005D968C91928D9F5F9F73928F90E0089505
:102E60008FEF9FEF0895FC01918D828D981731F0BF
:102E7000828DE80FF11D858D90E008958FEF9FEF13
:102E80000895FC01918D228D892F90E0805C9F4FE9
:102E9000821B91098F73992708958AE591E10E9419
:102EA000411721E0892B09F420E0822F0895FC01CD
:102EB000A48DA80FB92FB11DA35ABF4F2C91848D9B
:102EC00090E001968F739927848FA689B7892C93F8
:102ED000A089B1898C91837080648C93938D848D4B
:102EE000981306C00288F389E02D80818F7D80834E
:102EF0000895EF92FF920F931F93CF93DF93EC010E
:102F000081E0888F9B8D8C8D98131AC0E889F98990
:102F1000808185FF15C09FB7F894EE89FF89608393
:102F2000E889F98980818370806480839FBF81E014
:102F300090E0DF91CF911F910F91FF90EF90089556
:102F4000F62E0B8D10E00F5F1F4F0F731127E02E31
:102F50008C8D8E110CC00FB607FCFACFE889F98969
:102F6000808185FFF5CFCE010E945717F1CFEB8D01
:102F7000EC0FFD2FF11DE35AFF4FF0829FB7F8943D
:102F80000B8FEA89FB8980818062CFCF0F931F93DB
:102F9000CF93DF938C01D0E0C0E0F801EC0FFD1F70
:102FA0006491662341F08AE591E10E947917892BAB
:102FB00011F02196F2CFCE01DF91CF911F910F91A9
:102FC0000895CF93DF93EC01888D8823B9F0AA8907
:102FD000BB89E889F9898C9185FD03C0808186FDD4
:102FE0000DC00FB607FCF7CF8C9185FFF2CF808123
:102FF00085FFEDCFCE010E945717E9CFDF91CF912A
:10300000089580E090E0892B29F00E944D178111EE
:103010000E94000080E090E0892B49F080E090E081
:10302000892B29F00E94000081110E94000080E09D
:1030300090E0892B49F080E090E0892B29F00E94F4
:10304000000081110E94000080E090E0892B49F08F
:1030500080E090E0892B29F00E94000081110C94FF
:1030600000000895089581E0089580E0089508958E
:103070008F929F92AF92BF92CF92DF92EF92FF9288
:10308000CF93DF93EC016A017B010E946C164B0128
:103090005C018C0C9D1CAE1CBF1C81E0C81AD108C1
:1030A000E108F108AFEFCA16DA06EA06FA0651F0AF
:1030B0008A819B81DC01ED91FC910480F581E02DFA
:1030C0001995EBCF0E946C16681579058A059B054A
:1030D00050F48A819B81DC01ED91FC910480F581A3
:1030E000E02D1995EFCFDF91CF91FF90EF90DF901A
:1030F000CF90BF90AF909F908F9008951F93CF93E4
:10310000DF93EC01162F8A819B81DC01ED91FC910C
:103110006623F9F00084F185E02D19958A819B8161
:10312000DC01ED91FC910480F581E02D1995EC8195
:10313000F0E0E05FFB4F8081112379F090E024E024
:10314000959587952A95E1F78C83DF91CF911F9113
:1031500008950284F385E02DE0CF8F70F5CF2F9294
:103160003F924F925F926F927F928F929F92AF9217
:10317000BF92CF92DF92EF92FF920F931F93CF9364
:10318000DF9300D000D000D0CDB7DEB79987888715
:1031900048015901EF827901680127E0C20ED11C74
:1031A000E11CF11CE3E0F694E794D794C794EA9508
:1031B000D1F71A012C0C3D1CCB018C0D9D1D9C835D
:1031C0008B83412C512C32014C145D046E047F041E
:1031D00009F481C0AB81BC81EE91BC83AB83E983F0
:1031E000F1E08F1A9108A108B10810E000E01A82FE
:1031F0002FEF82169206A206B20609F45BC0811474
:103200009104A104B10401F52F812223E9F0A885DE
:10321000B98512968D919C91DC01ED91FC91008411
:10322000F185E02D1995A885B9851496EC91149730
:10323000F0E0E05FFB4F808190E034E0959587956A
:103240003A95E1F714968C93F981EF2FF0E0FE8325
:10325000ED83A885B98512968D919C91DC01ED9145
:10326000FC91B981B0FF33C00484F585E02D199538
:103270008D819E81959587958983E885F9858281E1
:103280009381DC01ED91FC910680F781E02D199589
:10329000002E01C0880F0A94EAF7BA81B82BBA83CE
:1032A0000F5F1F4FD501C4010197A109B109083073
:1032B000110551F4D101EA81EE931D01FFEF4F1A80
:1032C0005F0A6F0A7F0A80CF4C015D0191CF0684AF
:1032D000F785E02DCCCF29960FB6F894DEBF0FBE50
:1032E000CDBFDF91CF911F910F91FF90EF90DF90B5
:1032F000CF90BF90AF909F908F907F906F905F9096
:103300004F903F902F900895FC0180A1882349F1B0
:10331000848D863308F0865320917B00982F987017
:10332000277F922B90937B008770806480937C0032
:1033300080917A00806480937A0080917A0086FD83
:10334000FCCF809178009091790045E0489F9001F2
:10335000499F300D112481E02E3F37404CF480E02E
:1033600007C0A68DB78D9C91828D982381E0B9F31B
:1033700008950895DC011496ED91FC9115979081C4
:103380008C91892B8083089508960C94BA19029623
:103390000C94BA19DC011496ED91FC91159790816B
:1033A0008C91809589238083089508960C94CA197E
:1033B00002960C94CA19CF93DF93EC01862F6A838F
:1033C00091E09B83262F30E0F901E955F84DE49117
:1033D000E883F901EF59F84DE491E98361E00E9437
:1033E0005915E981F0E0EE0FFF1FED5EF84D859174
:1033F00094919D838C83DF91CF910895CF93DF9338
:10340000EC01862F6A8392E09B83262F30E0F9013E
:10341000E955F84DE491E883F901EF59F84DE4914D
:10342000E98362E00E945915E981F0E0EE0FFF1F89
:10343000E95BF84D859194919D838C83DF91CF91C9
:103440000895CF93DF93FC01C081D1810E94C31600
:10345000C61BD70B8D2F881F8827881FDF91CF9120
:1034600008958EBD00000DB407FEFDCF8EB5089502
:10347000FC01928183819CBD8DBD81E0878360E0EA
:1034800085810E942B158FEF0C94311A8FEF0C94CD
:10349000311A0F931F93CF93DF931F921F92CDB7D3
:1034A000DEB78C010E94C316600F711F7A83698397
:1034B0000E94461A8F3F71F0CE0101960E94211A98
:1034C0008823B1F380E00F900F90DF91CF911F918F
:1034D0000F91089581E0F7CFCF93DF93FC0127810F
:1034E000222349F0EC0161E085810E942B158FEFCA
:1034F0000E94311A1F82DF91CF9108951F93CF93BD
:10350000DF93EC0188E592E00E94491A182F882386
:1035100061F08DEF0E94311ACE010E946C1A18865C
:10352000812FDF91CF911F9108958FE18E83CE017E
:103530000E946C1AF5CF0F931F93CF93DF938C01EA
:10354000862FEA010E94311AFE0181918EBDDE5F55
:10355000EC17FD0741F08191000000000DB407FE5B
:10356000FDCF8EBDF5CF0DB407FEFDCF8FEF0E94CE
:10357000311A8FEF0E94311A0E94461AF801818792
:103580008F71853059F081E28683C8010E946C1AE0
:1035900080E0DF91CF911F910F91089581E0F9CFE5
:1035A000CF92DF92EF92FF920F931F93CF93DF930F
:1035B0001F921F92CDB7DEB78C017B016A010E947A
:1035C000C316645D7E4F7A8369830E94461AF801B0
:1035D00081878F3FC1F4CE0101960E94211A882372
:1035E000A1F38EE1F8018683C8010E946C1A80E085
:1035F0000F900F90DF91CF911F910F91FF90EF905F
:10360000DF90CF9008958E3F11F089E1EBCF8FEFDF
:103610008EBDF701C6013FEF019749F000000000A1
:103620000DB407FEFDCF2EB53EBD2193F5CFF1E0E1
:10363000CF1AD108EC0CFD1C0DB407FEFDCF8EB5E2
:10364000F7018083F80111860E94461A0E94461AEB
:1036500081E0CECFDF92EF92FF920F931F93CF9333
:10366000DF93EC01162F022FF32EE42ED52E0E94AD
:10367000FE1F8823C1F18F81811103C0CE010E94FA
:10368000381A111128C0812F80640E94311A8D2DA3
:103690000E94311A8E2D0E94311A8F2D0E94311AEC
:1036A000802F0E94311A87E8111101C085E90E941C
:1036B000311A0E94461A1AE00E94461A898787FF2B
:1036C00002C01150C9F7DF91CF911F910F91FF9068
:1036D000EF90DF9008951C30B1F28CE291E00E94EF
:1036E000491A8111D0CF8FEFEECF8F929F92AF9278
:1036F000BF92CF92DF92EF92FF920F931F93CF93DF
:10370000DF93EC014A015B0169018885823049F44D
:103710008B859C85AD85BE8588159905AA05BB0559
:1037200059F18A85A5019401833039F089E0220F8F
:10373000331F441F551F8A95D1F769E1CE010E94BE
:103740002A1B882399F08EE08E83CE010E946C1A8A
:1037500080E0DF91CF911F910F91FF90EF90DF906C
:10376000CF90BF90AF909F908F90089582E0888710
:103770008B869C86AD86BE86F12CE12CE016F10688
:10378000A9F088E592E00E94491A811102C085E201
:10379000DBCFA6016CEFCE010E949B1A8823A9F211
:1037A0008FEFE81AF80A8EEFD81AE8CF8B859C8540
:1037B000AD85BE858E0D9F1DA11DB11D8B879C877C
:1037C000AD87BE878F858111C4CFCE01DF91CF91A8
:1037D0001F910F91FF90EF90DF90CF90BF90AF902F
:1037E0009F908F900C947E1AEF92FF920F931F93ED
:1037F000CF93DF93EC0179011F85112369F001E07C
:1038000010E00E94751B182F812FDF91CF911F911F
:103810000F91FF90EF9008958A85833039F089E009
:10382000440F551F661F771F8A95D1F79A01AB0188
:1038300068E1CE010E942A1B882331F08DE08E833F
:10384000CE010E946C1AE0CFA7016EEFCE010E945C
:103850009B1A8823A9F388E592E00E94491A082F51
:1038600084E2002361F320E030E0A9016DE0CE01A5
:103870000E942A1B882311F08AE0E1CF0E94461A99
:103880008111FACFCE010E946C1A102FBDCFEF929A
:10389000FF921F93CF93DF93FC01208111E020FF63
:1038A00012C0EC017C01FBE0EF0EF11C4B815C814E
:1038B0006D817E81970189819A810E94F41B182F66
:1038C000811108C010E0812FDF91CF911F91FF90EF
:1038D000EF900895888181FD04C088818E7F888360
:1038E000F2CF4B815C816D817E818F819885A98526
:1038F000BA85480F591F6A1F7B1F970189819A81DA
:103900000E94F41B8111E9CFDDCF0F931F93CF935A
:10391000DF93CDB7DEB760970FB6F894DEBF0FBE6A
:10392000CDBF8C0120E030E0A90169E00E942A1B94
:10393000882351F08CE1F8018683C8010E946C1A3B
:1039400060E070E0CB015EC040E150E0BE016F5F1F
:103950007F4FC8010E94D01A882379F3C8010E94C2
:103960006C1A8981829586958695837009F055C079
:103970006F8170E090E080E03AE0660F771F881F6B
:10398000991F3A95D1F766277C7088279927098572
:1039900010E046E0159507954A95E1F7012E000CD9
:1039A000220B330B062B172B282B392B888590E005
:1039B000B0E0A0E0BC01CD0152E0660F771F881F88
:1039C000991F5A95D1F7602B712B822B932B6F5F28
:1039D0007F4F8F4F9F4F2A85220F322F36702B85B6
:1039E000221F2227221F232B3E813F70230F3327C4
:1039F000331F2750310904C0660F771F881F991F96
:103A00002A95D2F760960FB6F894DEBF0FBECDBFF1
:103A1000DF91CF911F910F910895813009F090CFE0
:103A20006885062F10E030E020E09801112700277C
:103A3000002711272F73332789859A85982789278F
:103A40009827B0E0A0E0BC01CD01602B712B822B48
:103A5000932B6F5F7F4F8F4F9F4F2AE0660F771F2B
:103A6000881F991F2A95D1F7CDCFCF93DF93EC0113
:103A7000188620E030E0A9016CE00E942A1B882310
:103A800049F089E08E83CE010E946C1A80E0DF91BC
:103A9000CF910895CE010E946C1A81E0F8CF8F92E9
:103AA0009F92AF92BF92CF92DF92EF92FF920F93CD
:103AB0001F93CF93DF93EC014A015B016901888575
:103AC000813049F48B859C85AD85BE858815990527
:103AD000AA05BB0559F18A85A5019401833039F007
:103AE00089E0220F331F441F551F8A95D1F762E1E9
:103AF000CE010E942A1B882399F08CE08E83CE0190
:103B00000E946C1A80E0DF91CF911F910F91FF907E
:103B1000EF90DF90CF90BF90AF909F908F900895DF
:103B200081E088878B869C86AD86BE86F12CE12C51
:103B3000E016F10671F040E052E0B601CE010E94BD
:103B4000D01A882301F38FEFE81AF80A8EEFD81AFB
:103B5000EFCF8B859C85AD85BE858E0D9F1DA11DEC
:103B6000B11D8B879C87AD87BE878F858111CBCF99
:103B7000CE01DF91CF911F910F91FF90EF90DF90D9
:103B8000CF90BF90AF909F908F900C94351D8F92E7
:103B90009F92AF92BF92FF920F931F93CF93DF93A9
:103BA000DC011196ED91FC91EF2B61F490E080E047
:103BB000DF91CF911F910F91FF90BF90AF909F9099
:103BC0008F900895F22E4A015B01EC018B819C815C
:103BD000AD81BE8188159905AA05BB0561F0CE01AE
:103BE0000E94471C882311F3F2FE0DC018828B82BD
:103BF0009C82AD82BE822F2D2370F880F22AF8823B
:103C0000CE010B96D5CF01E010E09E01255F3F4F1E
:103C1000B501A40189819A810E944F1D8111E6CFCF
:103C2000C5CF2F923F924F925F926F927F928F9269
:103C30009F92AF92BF92CF92DF92EF92FF921F932B
:103C4000CF93DF9300D000D000D01F92CDB7DEB766
:103C50009A87898749835A836B837C836A017B01B6
:103C600022E0C21AD108E108F108452B462B472B68
:103C700041F4E985FA85E55FFD4FC080D180E2809F
:103C8000F38089859A85855E9D4F98878F83FC0197
:103C900080819181A281B381C816D906EA06FB060C
:103CA00018F0C12CD12C7601D701C60143E0B6959E
:103CB000A795979587954A95D1F71C01F1E03F228A
:103CC00011E0C6018770992701C0110F8A95EAF7A4
:103CD000260137014601570129853A85295E3D4F66
:103CE0003E832D83ED81FE8180819181A281B3810C
:103CF000B501A4013CE076956795579547953A95AF
:103D0000D1F7480F591F6A1F7B1F20E089859A85CC
:103D10000E94C71D009709F472C0FC01E20DF31D5B
:103D20002081FFEF8F1A9F0AAF0ABF0A322F31237B
:103D3000D1F5B501A4014419550966097709413047
:103D400051056105710589F589819A81AB81BC8135
:103D5000892B8A2B8B2B49F4A985BA85A55FBD4F8A
:103D6000FD014082518262827382C301B2016E5FA3
:103D70007F4F8F4F9F4F2A960FB6F894DEBF0FBE2E
:103D8000CDBFDF91CF911F91FF90EF90DF90CF904B
:103D9000BF90AF909F908F907F906F905F904F906B
:103DA0003F902F90089524013501C814D904EA04E6
:103DB000FB0449F1AF81B8854D915D916D917C9186
:103DC00084169506A606B70680F4110F09F0A9CF50
:103DD00091012F5F3F4F312C212C11E02115B2E0D2
:103DE0003B0708F07FCF190198CF212C22E0322E1B
:103DF000412C512C3201812C912C5401E9CF60E0EF
:103E000070E0CB01B8CF61E070E080E090E0B3CF2C
:103E10004F925F926F927F928F929F92AF92BF92DA
:103E2000CF92DF92EF92FF920F931F93CF93DF9386
:103E3000C091C714D091C814209709F47FC0888C12
:103E4000998CAA8CBB8C2FEF821A920AA20AB20A12
:103E50008D81803119F0803209F0CCC04C895D89A8
:103E60006E897F89C12CD12C76018E01005E1F4F97
:103E700081149104A104B10409F44DC02A013B014D
:103E80008FEF481A580A680A780A22E0C8010E948F
:103E9000C71D009709F4AEC0ED8120E830E0E031A5
:103EA00011F420E031E0A90170E060E0841695068D
:103EB000A606B70608F49401E031B9F4FC0190E0DD
:103EC00080E041915191452B29F4AFEFCA1ADA0AEB
:103ED000EA0AFA0A01962817390799F7821A930A0B
:103EE000A108B108B301A201C3CFFC0150E040E03A
:103EF00081919191A191B191892B8A2B8B2B29F4DE
:103F0000BFEFCB1ADB0AEB0AFB0A4F5F5F4F2417A8
:103F1000350771F7E3CFC701B601DF91CF911F914C
:103F20000F91FF90EF90DF90CF90BF90AF909F9058
:103F30008F907F906F905F904F900895C091C914BB
:103F4000D091CA14209709F455C0FE01E95EFD4FD7
:103F50004081518162817381812C912C5401412CCB
:103F6000512C32018E01055E1D4F6A017B012FEF3E
:103F7000C21AD20AE20AF20A20E0CE010E94C71D4C
:103F80000097C1F1FC019E5F51915F3FD9F448E079
:103F9000840E911CA11CB11CA8E04A0E511C611C8E
:103FA000711CD8014D915D916D917C91441655061F
:103FB00066067706C8F0CB01BA01681979098A0943
:103FC0009B09ABCF552341F328E030E041E0652F5A
:103FD000642329F06FEF861A960AA60AB60A440FE0
:103FE00021503109A1F7D8CFB701A601E817F90789
:103FF00059F6BBCF6FEF7FEFCB018FCFFC01208550
:10400000223011F40C947E1A213011F40C94351DD9
:1040100081E008958F929F92AF92BF92CF92DF92EC
:10402000EF92FF920F931F93423051056105710586
:1040300060F480E01F910F91FF90EF90DF90CF90A0
:10404000BF90AF909F908F900895FC01C08CD18C51
:10405000E28CF38CC416D506E606F70650F3480149
:1040600059016A018581803229F584899589A6895B
:10407000B78917E076956795579547951A95D1F7C3
:10408000480F591F6A1F7B1F23E0CF0180960E94B3
:10409000C71D009771F2CC0CDD1CCC0CDD1CF1E0CF
:1040A000DF228C0D9D1DFC0180829182A282B38251
:1040B00081E0C0CF803109F0BCCF44895589668941
:1040C00077894D0D511D611D711D23E0CF01809633
:1040D0000E94C71D009709F4ACCFCC0CDD1CF1E0A9
:1040E000DF22C80ED91EF60111830083E1CFCF92E3
:1040F000DF92EF92FF920F931F93CF93DF934230A3
:1041000051056105710550F48FEFDF91CF911F913B
:104110000F91FF90EF90DF90CF900895FC01C08C3D
:10412000D18CE28CF38CC416D506E606F70660F354
:1041300089016A01EC018581803299F5848995892C
:10414000A689B789E7E07695679557954795EA95EB
:10415000D1F7480F591F6A1F7B1F22E0CE018096BE
:104160000E94C71D009781F2CC0CDD1CCC0CDD1C1D
:10417000F1E0DF228C0D9D1DFC0180819181A281E7
:10418000B381488D598D6A8D7B8D481759076A0711
:104190007B0730F1F80180839183A283B38381E0B0
:1041A000B4CF803109F0B0CF4489558966897789C9
:1041B0004D0D511D611D711D22E0CF0180960E94A1
:1041C000C71D009709F4A0CFCC0CDD1CF1E0DF2265
:1041D000C80ED91EF60180819181B0E0A0E0D1CF58
:1041E00080E093CF9F92AF92BF92CF92DF92EF92F7
:1041F000FF920F931F93CF93DF9300D01F92CDB701
:10420000DEB75C016A017B019E012F5F3F4FB70162
:10421000A601C5010E947720982E87FD34C000E0DA
:1042200010E09801B701A601C5010E940A20882369
:1042300051F1F5014085518562857385C416D50617
:10424000E606F70650F4F1E0CF1AD108E108F108CC
:10425000F501C086D186E286F386C980DA80EB80DC
:10426000FC809110D1CF0F900F900F900F90DF91A5
:10427000CF911F910F91FF90EF90DF90CF90BF9063
:10428000AF909F90089580E0EECFFC019C01255FE8
:104290003F4F80E080FB879587F99191890FE21766
:1042A000F307C1F708954F925F926F927F928F92BA
:1042B0009F92AF92BF92CF92DF92EF92FF920F93B5
:1042C0001F93CF93DF93EC014A015B014C845D8423
:1042D0006E847F842881222309F45CC0488959892F
:1042E0006A897B89481559056A057B0581F0811427
:1042F0009104A104B10469F41C861D861E861F86E4
:10430000888A998AAA8ABB8A8A818F7D8A8381E07A
:1043100046C023FF2CC0888D998DAA8DBB8D881532
:104320009905AA05BB05B0F1EE81FF813481375FA5
:104330007501640181E0C81AD108E108F108032E73
:1043400004C0F694E794D794C7940A94D2F78A816C
:1043500086FF36C08C8D9D8DAE8DBF8D8C0D9D1DC5
:10436000AE1DBF1D8C879D87AE87BF87C9CF26FF37
:10437000DBCFEE81FF818681978125E0880F991F31
:104380002A95E1F7B0E0A0E088159905AA05BB05DC
:1043900008F0B6CF4C865D866E867F8680E0DF9122
:1043A000CF911F910F91FF90EF90DF90CF90BF9032
:1043B000AF909F908F907F906F905F904F900895F7
:1043C000DB01CA010197A109B10904C0B695A795FF
:1043D000979587953A95D2F7C816D906EA06FB064F
:1043E00020F0452B462B472B49F527FF22C0848D13
:1043F000958DA68DB78D8C879D87AE87BF878E01E3
:10440000045F1F4FC114D104E104F10409F478CF13
:104410004C855D856E857F8598018E819F810E9488
:10442000772091E0C91AD108E108F108181654F371
:10443000B1CF8C8D9D8DAE8DBF8DDDCFC81AD90AC1
:10444000EA0AFB0ADCCFCF93DF93EC01262F4C89DD
:104450005D896E897F898E819F8180960E94C71DAC
:10446000009759F02C813D812F70332745E0220FB2
:10447000331F4A95E1F7820F931FDF91CF91089583
:104480003F924F925F926F927F928F929F92AF92E4
:10449000BF92CF92DF92EF92FF920F931F93CF9331
:1044A000DF9300D01F92CDB7DEB75C01FC014484DE
:1044B00055846684778486809780F401C084D18493
:1044C000E284F384C414D504E604F704C0F4730151
:1044D000620110E0FFEFCF1ADF0AEF0AFF0AF401D2
:1044E000808D918DA28DB38D8C159D05AE05BF0578
:1044F00040F4111132C0C084D184E284F38411E00D
:10450000E9CF4C145D046E047F0439F19E012F5FE6
:104510003F4FB701A601C4010E94772087FD1DC04F
:104520008823C1F289819A81AB81BC81892B8A2B36
:104530008B2B81F6112329F0F401C086D186E28607
:10454000F3860FEF1FEF2FEF3FE0B701A601C40185
:104550000E940A20382E811118C0312C832D0F9013
:104560000F900F900F90DF91CF911F910F91FF90BF
:10457000EF90DF90CF90BF90AF909F908F907F9003
:104580006F905F904F903F900895411451046104E3
:104590007104B9F4F501C486D586E686F786828172
:1045A0004114510461047104B1F0FFEF4F1A5F0A26
:1045B0006F0A7F0A4C145D046E047F0479F08F7BD0
:1045C0000BC097018601B301A201C4010E940A2019
:1045D0008111E0CFC2CF8064F5018283F501828131
:1045E00080688283BBCF40E050E0BA010C94532135
:1045F000CF93DF93EC0180960E94471C882331F013
:1046000088819981DF91CF910C94FE1F80E0DF912A
:10461000CF910895CF93DF93FC012081211104C035
:1046200081E0DF91CF910895EC01828187FF28C05E
:1046300061E0CF010E942322FC01892B29F48981AA
:104640008160898380E0EDCF8081853EC1F38881E0
:1046500087738387888183FF08C0888D998DAA8D91
:10466000BB8D848F958FA68FB78F8C8D9D8DAE8DD2
:10467000BF8D938F828FB58BA48B8A818F778A832E
:104680008E819F810E94F8228823C9F2C9CFCF93DF
:10469000DF93EC010E940A2318821A82DF91CF91E6
:1046A00008958F929F92AF92BF92CF92DF92EF9236
:1046B000FF920F931F93423051056105710560F41D
:1046C00080E01F910F91FF90EF90DF90CF90BF900F
:1046D000AF909F908F900895FC01E55EFD4FC080E4
:1046E000D180E280F380EFEFCE1ADE0AEE0AFE0AF6
:1046F000C416D506E606F70618F3480159016A0103
:10470000FC01E15FFD4F37E076956795579547953A
:104710003A95D1F70081118122813381400F511FD9
:10472000621F731F21E00E94C71D009749F2CC0C45
:10473000DD1CCC0CDD1CF1E0DF22C80ED91EF60119
:1047400080829182A282B38281E0BBCFCF92DF923E
:10475000EF92FF920F931F93CF93DF93E901FC0138
:10476000E55EFD4F00811181228133810F5F1F4F74
:104770002F4F3F4F041715072607370750F48FEFC9
:10478000DF91CF911F910F91FF90EF90DF90CF902D
:1047900008956A01FC01E15FFD4F37E0769567956A
:1047A000579547953A95D1F7008111812281338140
:1047B000400F511F621F731F20E00E94C71D00970A
:1047C000F1F2CC0CDD1CCC0CDD1C21E0D222C80E99
:1047D000D91EF60180819181A281B3818F3FFFEFC5
:1047E0009F07AF07BF0731F088839983AA83BB83F4
:1047F00081E0C6CF80E0C4CF0F931F93CF93DF93A8
:10480000EB01E42FDC01AD5DBD4F4D915D916D91EC
:104810007C9113970C811D812E813F814023512370
:104820006223732329E076956795579547952A95D6
:10483000D1F7088119812A813B8102501109210990
:1048400031091B96FC9104C0000F111F221F331F5A
:10485000FA95D2F7400F511F621F731F57970D91A2
:104860001D912D913C91400F511F621F731F2E2FE0
:104870000E94C71D009729F02C813D813170820F65
:10488000931FDF91CF911F910F9108954F925F92E7
:104890006F927F928F929F92AF92BF92CF92DF9250
:1048A000EF920F931F93CF93DF936C01480159014F
:1048B000DB01CA010297A109B109AC01BD01480D94
:1048C000591D6A1D7B1DF601E55EFD4F00811181BA
:1048D00022813381041715072607370708F47FC0A4
:1048E00070974080518062807380EE2009F46CC024
:1048F000481659066A067B0688F044165506660671
:10490000770660F4401751076207730718F040E01C
:1049100050E0BA0140835183628373839C01277006
:10492000332711E001C0110F2A95EAF72C013D0150
:104930002CE076946794579447942A95D1F7F60122
:10494000E95EFD4F4081518162817381440D551DA7
:10495000661D771D33E0B695A795979587953A958F
:10496000D1F7EC01D1702A013B012FEF421A520A14
:10497000620A720A21E0C6010E94C71D009779F100
:10498000FC01EC0FFD1FA12F2081422F4A2331E0B3
:1049900009F430E03E1519F12A272083B1E08B1A83
:1049A0009108A108B10861F1AA0F71F73196B3011E
:1049B000A201D0E0C0E011E0A1E09F01281B390B6B
:1049C0002115324009F7CFCF84159505A605B70507
:1049D00008F0A4CF80839183A283B3839FCF80E02C
:1049E000DF91CF911F910F91EF90DF90CF90BF900B
:1049F000AF909F908F907F906F905F904F900895B1
:104A000081E0EECF4F925F926F927F928F929F9252
:104A1000AF92BF92CF92DF92EF92FF920F931F93CC
:104A2000CF93DF9300D01F92CDB7DEB74C016A0160
:104A30007B012A013B019E012F5F3F4FB701A60179
:104A4000C4010E94A623A82E87FD49C000E010E003
:104A50009801B701A601C4010E945123B82E8823F2
:104A6000F1F18FEFC81AD80AE80AF80AAA2049F02B
:104A700089819A81AB81BC818C159D05AE05BF05EE
:104A800091F0970186010419150926093709E12CCF
:104A9000B301A201C4010E944624882301F1498088
:104AA0005A806B807C80C980DA80EB80FC80A1100A
:104AB000C2CF8B2D0F900F900F900F90DF91CF9161
:104AC0001F910F91FF90EF90DF90CF90BF90AF902C
:104AD0009F908F907F906F905F904F900895B12C32
:104AE000E8CF4F925F926F927F928F929F92AF9298
:104AF000BF92EF92FF920F931F93CF93DF93EC013E
:104B000088A199A1488D598D6A8D7B8D41155105DC
:104B100061057105F9F04F5F5F4F6F4F7F4F0E9446
:104B2000111E4B015C0122E082169104A104B10424
:104B3000A8F4F12C8F2DDF91CF911F910F91FF9051
:104B4000EF90BF90AF909F908F907F906F905F900D
:104B50004F90089540E050E0BA01E1CFEE24E39495
:104B600001E010E020E030E0BC01A40188A199A19F
:104B70000E944624F82E8823E1F2488D598D6A8DD3
:104B80007B8D8EA5411551056105710539F4806451
:104B90008EA7888E998EAA8EBB8ECCCF86FF2AC018
:104BA0004F5F5F4F6F4F7F4F481559056A057B0573
:104BB00081F38F7B8EA74C8D5D8D6E8D7F8D88A14F
:104BC00099A1488C598C6A8C7B8C441555056605D7
:104BD000770580F42A013B012FEF421A520A620A3C
:104BE000720A930182010E945123B301A201811133
:104BF000E6CF9FCF0FEF1FEF9801B501A40188A169
:104C000099A10E945123882309F493CF488D598D8F
:104C10006A8D7B8D411551056105710509F4B9CF88
:104C20009501840188A199A10E9451238111B1CFDE
:104C300080CFCF93DF93EC010E94471C882341F083
:104C4000C55DDD4F88819981DF91CF910C94FE1F66
:104C500080E0DF91CF9108952F923F924F925F9223
:104C60006F927F928F929F92AF92BF92CF92DF927C
:104C7000EF92FF920F931F93CF93DF93CDB7DEB7E1
:104C800062970FB6F894DEBF0FBECDBF988B8F87AB
:104C90004801222E3D834E83352E2B01DC01589690
:104CA0002D913D914D915C915B972B873C874D8772
:104CB0005E879C96BC91BF83BB2309F4E3C0FC01D3
:104CC000F081F887DC011196BC91B987FC01F28173
:104CD000FA87DC0113966C90139714967C901497C6
:104CE0001596BC91FC01F681F98BFC01F781FA8BDA
:104CF000288539854A85562D672D7B2F89899F2FD9
:104D00005801C22CDD80EE80F32C82010E942E948B
:104D1000F1F09401422D5D2D6E2D732DC201A0E0A6
:104D20000E943794B1F4AF85B88958961D921D92B0
:104D30001D921C925B97EF85F88980829182228276
:104D40002D8123833E81348335824682578281E0E0
:104D5000A4C0EF81E3FF10C0EF85F8892089318975
:104D6000428953896489758986899789DD80EE80B7
:104D70000E942E9408F486C0EF85F889A0A0B1A007
:104D8000C501825D9D4FFC011081175F9401422D8A
:104D90005D816E81732DC201AFEF0E941994012FC6
:104DA0000E94F593942F852FA901692F782F69010F
:104DB0007B01EF85F88986A586FF0DC0848D958DD2
:104DC000A68DB78D840F951FA61FB71F808F918F5B
:104DD000A28FB38FB0CF288539854A85562D672D90
:104DE0007B2F89899A89AFEF0E9419940E94F593CD
:104DF00029833A834B835C8329813A814B815C818F
:104E0000C216D306E406F50668F0288539854A857A
:104E1000562D672D7B2F89899A89A0E00E943794AF
:104E200009F05BC0BF81B6FF51C0F501E15EFD4FE7
:104E300080819181A281B381EF85F889808F918FE4
:104E4000A28FB38F6F84788838E1630E711CC11410
:104E5000D104E104F10409F46ECFAF85B889589606
:104E60004D915D916D917C915B97930190968D91A1
:104E70009C910E94A623B1E0CB1AD108E108F10869
:104E800018162CF38B859C85AD85BE85EF85F8893A
:104E9000808F918FA28FB38F80E062960FB6F894C7
:104EA000DEBF0FBECDBFDF91CF911F910F91FF905D
:104EB000EF90DF90CF90BF90AF909F908F907F90BA
:104EC0006F905F904F903F902F900895EF85F889F5
:104ED000848D958DA68DB78DAFCF29813A814B8179
:104EE0005C81C21AD30AE40AF50AACCF9F92AF9252
:104EF000BF92CF92DF92EF92FF920F931F93CF93C7
:104F0000DF9300D000D000D0CDB7DEB78C01942E57
:104F100089E0F801B296DE01119601900D928A9512
:104F2000E1F7F801A0A0B1A0F0E26F9FC001112449
:104F3000B0E0A0E04D815E816F817885F501ED5D87
:104F4000FD4FC080D180E280F380C422D522E622CA
:104F5000F722C80ED91EEA1EFB1E840F951FA61F3E
:104F6000B71F8D839E83AF83B8873B968081875F11
:104F700004C0F694E794D794C7948A95D2F7C114E5
:104F8000D104E104F10489F149815A816B817C816A
:104F90008985882371F04F5F5F4F6F4F7F4F498343
:104FA0005A836B837C8321E0C21AD108E108F1089F
:104FB000E6CF9E012F5F3F4FC5010E94A62381309F
:104FC00091F390E080E029960FB6F894DEBF0FBE13
:104FD000CDBFDF91CF911F910F91FF90EF90DF90A8
:104FE000CF90BF90AF909F900895492DBE016F5F05
:104FF0007F4FF80180A191A10E94FC23E4CFFF9292
:105000000F931F93CF93DF93FC0124A5211107C0B9
:1050100081E0DF91CF911F910F91FF900895EC01F6
:1050200086A587FF8AC08F7786A7F12C10E000E065
:105030008BA58F1508F469C040E06F2DCE010E944A
:105040007627FC01892B09F473C08081803C61F1D3
:10505000813C69F0853809F06BC08CA5877390E0BE
:1050600095838483A8A1B9A18C9181608C934081A0
:1050700090E080E000FB1795079517F9DF01A80F76
:10508000B91F2C91020F111D8130910521F423E0ED
:1050900030E0453811F021E030E0820F931F80327C
:1050A000910540F3F394C4CF81819EA596FF2BC058
:1050B00082608183788969895A894B893C892D89E5
:1050C0009E898F89708761875287438734872587B8
:1050D000968787878C8D9D8DAE8DBF8D848B958BAC
:1050E000A68BB78B788569855A854B853C852D8540
:1050F0009E858F85708F618F528F438F348F258F60
:10510000968F878FAFCF8D7FD4CF41E0BE016E5D8C
:105110007F4F88A199A10E94FC23009749F0FC01D0
:105120001383028388A199A10E941926811170CF4F
:105130008DA581608DA780E06CCF80A191A10E9498
:105140001926811165CF9DA591609DA762CFCF9350
:10515000DF93EC010E94FF271CA61EA6DF91CF91D2
:105160000895CF93DF93EC0188A999A9009749F09E
:105170000E94472319AA18AA1BAA1AAADF91CF9145
:1051800008958AA99BA9009719F00E94A728F2CF39
:1051900081E0F0CF8F929F92AF92BF92EF920F93E8
:1051A0001F93CF93DF9300D000D000D01F92CDB7D4
:1051B000DEB79A838983DC019E969C919E9791FF2E
:1051C00063C0BA87A9875C968D909D90AD90BC9086
:1051D0005F9781149104A104B104A9F410E0E9855A
:1051E000FA8583A5811708F466C041E0612FCF01DD
:1051F0000E947627009709F447C0DC012C912F7795
:105200002C931F5FECCFA985BA859096ED91FC9108
:10521000919796FF4AC018962C91189719963C9131
:1052200019971A964C911A971B965C911B971C968E
:105230006C911C971D967C911D971E968C911E97C4
:105240001F969C91AFEF0E941994DF01A25DBD4FA4
:105250000C91075F0E94F59329833A834B835C830B
:105260006D837E838F83988709811A812B813C818E
:105270000F5F1F4F2F4F3F4FE12CB501A401CF010E
:105280000E9446248111AACF80E02A960FB6F89496
:10529000DEBF0FBECDBFDF91CF911F910F91EF9079
:1052A000BF90AF909F908F900895B501A401CF015A
:1052B0000E940225E7CFE985FA8514A616A680A1EB
:1052C00091A12A960FB6F894DEBF0FBECDBFDF9135
:1052D000CF911F910F91EF90BF90AF909F908F90C3
:1052E0000C9419260F931F9300E010E020E030E0AB
:1052F00040E050E060E070E00E942C261F910F918A
:105300000895982F803290F0877F823279F09A3317
:1053100069F0892F8F7B8C3349F082EC890F8230C2
:1053200028F081E09C3519F080E0089581E008952F
:10533000AF92BF92CF92DF92FF920F931F93CF93C2
:10534000DF93EB015A018C0198012F5F3F4FD80189
:105350008C918032D1F0198308831F821E82F8015C
:10536000DF01FD906D01FF2031F1BFE2FB1619F165
:10537000F7FE0DC080E0DF91CF911F910F91FF905C
:10538000DF90CF90BF90AF9008958901DDCF8F2D32
:105390000E9481298111EECFC601801B910BEEE2A4
:1053A000FE1639F0F0E2FF1621F09F838E83DD8236
:1053B000CC82F601D5CF8E819F8101978F3F9105D9
:1053C000C8F62E2F9F2F81918032D9F38F32C9F3E7
:1053D000D5012C9311969C930C811D8128813981D4
:1053E000FE013A96CE01459640E241938E179F0703
:1053F000E1F781E0F90190819E3209F480E0F90142
:105400002F5F3F4F90819E32D1F398012150310997
:10541000E217F30720F4D9019C919E32B9F740E0DE
:1054200067E0A0E050E078E0E017F10708F045C041
:1054300090819E3241F42E173F0769F46AE0A8E09C
:1054400070E13196F1CF9232A1F09C3791F0B5EA3C
:10545000B90FB33070F0B6EDB90FB63010F49D321D
:1054600041F4B6ECB90FB63020F0BFEDB90FBE3540
:1054700028F0907C9038B9F580E0E3CF6A1740F4CB
:105480006A30D1F02E173F07B8F0F9013197F4CF09
:10549000BFE9B90FBA3158F59052472BFF24F39466
:1054A000FA0EAC0FBD2FB11D1A969C93B6E0BF1536
:1054B00008F0F886AF2DC5CF80E09A85903209F4C8
:1054C00059CF882329F0542309F042E0498753CF6C
:1054D00081E089878885C80FD11D8EE78A8781E39F
:1054E0008B8781E048CF80E09FE56A1748F2BFEBE9
:1054F000B90FBA3198F6572BD1CFCF92DF92EF92F6
:10550000FF921F93CF93DF93EA016901FB019F0193
:105510002F5F3F4F80818032E9F0F983E883FD837C
:10552000EC839E2F8F2F7F01D7011D917D011123C9
:10553000D1F01F3289F0812F0E948129811146C04C
:1055400017FD45C01E3221F0103211F0FD82EC82B1
:10555000F701E7CFF901DBCF9E2F8F2F219120326A
:10556000D9F32F32C9F3F601908381836881798161
:105570007B836A838C819D8150E040E0EA81FB81DE
:10558000E817F907B1F09F012F5F3F4F3B832A8354
:1055900030812FE9230F2A3108F4305240FB579510
:1055A000479557F9430F511D40FB5795479557F9BC
:1055B000E5CF861B970B9F838E83598748879C0175
:1055C0002150310981E02F3F310508F080E0DF9163
:1055D000CF911F91FF90EF90DF90CF900895AF9201
:1055E000BF92CF92DF92EF92FF920F931F93CF93D0
:1055F000DF93EC016A017B0159018B819C81AD81B4
:10560000BE818C159D05AE05BF0590F49501B701CF
:10561000A60189819A810E944F1DDF91CF911F9130
:105620000F91FF90EF90DF90CF90BF90AF900895D3
:10563000400F511F611D711D84179507A607B707FD
:1056400028F7CE010E94471C8111E0CFE6CFAF9230
:10565000BF92CF92DF92EF92FF920F931F93DC01E4
:10566000DC96ED91FC91DD97309731F1808140E03F
:1056700050E0BA0183FF0CC0408D518D628D738D57
:1056800080899189A289B389481B590B6A0B7B0BCE
:105690004115B0E85B076105710520F04FEF5FE74A
:1056A00060E070E0CA011F910F91FF90EF90DF90D2
:1056B000CF90BF90AF900895DE96ED91FC9180E081
:1056C00090E0309781F384A583FF23C0208931893E
:1056D000428953896489758986899789A080B180B8
:1056E000C280D380E480F580068117810E942594D2
:1056F000F22FE32F2F3F3F4741055105610571050B
:105700008105910519F010F0FFEFEFE78F2F9E2F25
:10571000CACF20E030E040E050E060E070E080E0A0
:1057200090E0E6CFFC0184AD95AD009711F00C94AC
:105730000A2386AD97AD009711F00C94FF270895CA
:105740000E940715892BE1F360E08FE00E942B1582
:105750001ABC61E08FE00E942B158FB108958091F3
:10576000F50D91E089278093F50D6091F50D8EE0A0
:105770000C942B15809308010E94AF2B0E940715F3
:10578000892BE1F360E08FE00E942B151ABC61E0E9
:105790008FE00C942B158FEF809330021092D00D78
:1057A000089561E08EE20E942B150E94AF2B0C94AD
:1057B000CB2B60E08EE20E942B150E94AF2B0C9445
:1057C000CB2B60E080E30E942B150E94AF2B0C9442
:1057D000CB2B61E080E30E942B150E94AF2B0C9431
:1057E000CB2B60E08BE20E942B150E94AF2B0C9418
:1057F000CB2B61E08BE20E942B150E94AF2B0C9407
:10580000CB2B60E081E30E942B150E94AF2B0C9400
:10581000CB2B61E081E30E942B150E94AF2B0C94EF
:10582000CB2B60E08CE20E942B150E94AF2B0C94D6
:10583000CB2B61E08CE20E942B150E94AF2B0C94C5
:10584000CB2B8FEF0E94BA2B80E00E94BA2B0E94D4
:10585000AF2B0C94CB2B80E10E94BA2B0E94AF2B74
:105860000C94CB2B0E94AF2B8FEF809330020C94C3
:10587000CB2B2AEC32E0FC013183208304960C947C
:10588000B128E4E7F0E080818F77808360E08EE1EB
:105890000E94591560E081E10E94591560E084E1A1
:1058A0000E94591560E085E10E94591560E086E28A
:1058B0000E94591560E088E20E94591561E087E076
:1058C0000E942B1511B817B862E086E10E945915A5
:1058D00062E087E10E94591562E088E10E94591553
:1058E00062E089E10E94591562E08AE10E9459153F
:1058F00062E08BE10E94591562E08CE10E9459152B
:1059000062E08DE10C945915E4E7F0E08081806855
:105910008083A5E7B0E08C9181608C938081877F44
:10592000808380818B7F808361E08EE10E945915A6
:1059300061E081E10E94591561E084E10E945915FE
:1059400061E085E10E94591561E086E20E945915E7
:1059500060E08EE10E942B1560E081E10E942B1532
:1059600060E084E10E942B1560E085E10E942B1528
:1059700060E086E20E942B1560E087E00C942B1516
:1059800010922C0BE7EFFDE0128A118A17A616A6DB
:105990001092430E1092420E08959DE1899FF001EE
:1059A0001124E950F24F148E138E8091120E9091B3
:1059B000130E20912F0E3091300E822B932B2091BD
:1059C0004C0E30914D0E822B932B892B11F410929B
:1059D0006B0E08950F931F93CF93DF93182F9B01A6
:1059E00000916B0EF8941092730E1092720EC82FE5
:1059F000D0E0D0937B0EC0937A0E70936D0E6093BF
:105A00006C0E672B09F43EC0A0E8B9E80E946993C8
:105A10002DE83AE840E050E00E94479320936E0E54
:105A200030936F0E4093700E5093710E85E090E0AE
:105A30009093750E8093740E103108F050C0FE01E3
:105A40008827EA5DF24D8F4F0C94EB93362D362D5F
:105A5000362D362D4E2D4E2D4E2D4E2D592D362DAB
:105A6000662D692D6C2D6F2D722D4E2D8FE090E0DF
:105A70009093790E8093780E80E390E390937D0E5F
:105A800080937C0E1092770E1092760E00936B0E20
:105A90007894DF91CF911F910F9108958CED9FE243
:105AA00090937D0E80937C0E1092790E1092780E5A
:105AB000E9CF8FE89FE290937D0E80937C0E8FE07C
:105AC00090E09093790E8093780EDCCF8BEF9EE27E
:105AD000F2CF84EA9EE2EFCF85E79DE2E1CF8AE450
:105AE0009EE2DECF86EB9DE2DBCF0F931F9380918A
:105AF000760E9091770E2091740E3091750E820F74
:105B0000931F9093770E8093760E40916E0E509176
:105B10006F0E6091700E7091710E8C0130E020E07C
:105B2000041715072607370780F02091780E30916B
:105B3000790E2F5F3F4F3093790E2093780E841BA0
:105B4000950B9093770E8093760E8091780E9091BE
:105B5000790E409740F01092790E1092780E1092C4
:105B6000770E1092760E1F910F9108950F931F9349
:105B70008091720E9091730E009731F0019709F4A5
:105B800048C01F910F9108958091760E9091770EE5
:105B90002091740E3091750E820F931F9093770EA3
:105BA0008093760E40916E0E50916F0E6091700E44
:105BB0007091710E8C0130E020E004171507260764
:105BC000370780F02091780E3091790E2F5F3F4F8C
:105BD0003093790E2093780E841B950B9093770E5B
:105BE0008093760E8091780E9091790E409748F2CE
:105BF0008FE090E09093790E8093780E1092770E5C
:105C00001092760E81E090E09093730E8093720E66
:105C1000B8CF8091760E9091770E2091740E3091CE
:105C2000750E820F931F9093770E8093760E40919E
:105C30006E0E50916F0E6091700E7091710E8C010E
:105C400030E020E0041715072607370798F0209169
:105C5000780E3091790E2115310531F0215031093E
:105C60003093790E2093780E841B950B9093770ECA
:105C70008093760E8091780E9091790E892B09F0A1
:105C800080CF1092770E1092760E1092730E1092B3
:105C9000720E77CF0F931F938091720E9091730EB7
:105CA000009731F0019709F448C01F910F910895B2
:105CB0008091760E9091770E2091740E3091750E32
:105CC000820F931F9093770E8093760E40916E0E05
:105CD00050916F0E6091700E7091710E8C0130E0DA
:105CE00020E0041715072607370780F02091780E6B
:105CF0003091790E2F5F3F4F3093790E2093780EBD
:105D0000841B950B9093770E8093760E8091780E7E
:105D10009091790E409748F28FE090E09093790E41
:105D20008093780E1092770E1092760E81E090E0BC
:105D30009093730E8093720EB8CF8FE090E09093A3
:105D4000790E8093780EB1CF0F931F938091720ECE
:105D50009091730E009731F0019709F445C01F919F
:105D60000F9108958091760E9091770E2091740E88
:105D70003091750E820F931F9093770E8093760E5D
:105D800040916E0E50916F0E6091700E7091710E79
:105D90008C0130E020E0041715072607370798F03C
:105DA0002091780E3091790E2115310531F0215076
:105DB00031093093790E2093780E841B950B9093C4
:105DC000770E8093760E8091780E9091790E892BC4
:105DD00031F61092770E1092760E81E090E090935B
:105DE000730E8093720EBBCF8FE090E09093790E8C
:105DF0008093780EB4CF0F931F938091720E909181
:105E0000730E009731F0019709F445C01F910F916F
:105E100008958091760E9091770E2091740E3091B6
:105E2000750E820F931F9093770E8093760E40919C
:105E30006E0E50916F0E6091700E7091710E8C010C
:105E400030E020E0041715072607370798F0209167
:105E5000780E3091790E2115310531F0215031093C
:105E60003093790E2093780E841B950B9093770EC8
:105E70008093760E8091780E9091790E892B31F671
:105E80001092770E1092760E81E090E09093730E50
:105E90008093720EBBCF8091760E9091770E2091F9
:105EA000740E3091750E820F931F9093770E80932E
:105EB000760E40916E0E50916F0E6091700E709143
:105EC000710E8C0130E020E0041715072607370714
:105ED00080F02091780E3091790E2F5F3F4F3093F4
:105EE000790E2093780E841B950B9093770E8093F8
:105EF000760E8091780E9091790E409708F486CFB7
:105F00008FE090E09093790E8093780E1092770E48
:105F10001092760E1092730E1092720E77CF0F932E
:105F20001F938091720E9091730E892B09F041C0DE
:105F30008091760E9091770E2091740E3091750EAF
:105F4000820F931F9093770E8093760E40916E0E82
:105F500050916F0E6091700E7091710E8C0130E057
:105F600020E0041715072607370798F02091780ED0
:105F70003091790E2115310531F0215031093093DE
:105F8000790E2093780E841B950B9093770E809357
:105F9000760E8091780E9091790E892B51F48FE0D6
:105FA00090E09093790E8093780E1092770E109275
:105FB000760E1F910F9108950F931F938091720E8B
:105FC0009091730E009731F0019709F444C01F912E
:105FD0000F9108958091760E9091770E2091740E16
:105FE0003091750E820F931F9093770E8093760EEB
:105FF00040916E0E50916F0E6091700E7091710E07
:106000008C0130E020E0041715072607370780F0E1
:106010002091780E3091790E2F5F3F4F3093790E9B
:106020002093780E841B950B9093770E8093760EB9
:106030008091780E9091790E409748F28FE090E031
:106040009093790E8093780E81E090E09093730E98
:106050008093720EBCCF1092790E1092780EB7CF4B
:106060000F931F938091720E9091730E009731F0F1
:10607000019709F445C01F910F9108958091760E04
:106080009091770E2091740E3091750E820F931FB0
:106090009093770E8093760E40916E0E50916F0E16
:1060A0006091700E7091710E8C0130E020E0041749
:1060B00015072607370798F02091780E3091790E52
:1060C0002115310531F0215031093093790E20939B
:1060D000780E841B950B9093770E8093760E8091AB
:1060E000780E9091790E892B31F61092770E1092DE
:1060F000760E81E090E09093730E8093720EBBCF8A
:106100001092790E1092780EB6CFCF93DF93F89459
:106110009DE1899FE0011124C950D24F7E8B6D8B88
:10612000209128013091290150E040E02F5F3F4F3E
:106130004F4F5F4F60E074E284EF90E00E9447931E
:106140005695479537952795388F2F8B1C8A1B8A34
:106150001A8219828B8D9C8D892B69F060912A0B94
:1061600070E0762F66278091290B680F711D809152
:106170002B0B0E94EA2C7894DF91CF910895CF9356
:106180008E3008F0DEC0E82FF0E0DF01A25EB44FF1
:106190006C938827E153FF4C8F4F0C94EB93DD30C9
:1061A000DD30FF30FF301F311F31A1313F31C131B0
:1061B000DD31F93115321532153220911F0B30E0E7
:1061C00050E040E0542F432F322F222780911E0BA6
:1061D000280F311D411D511D6AE87FE08BE190E0E1
:1061E0000E944793CA01B901A4E0969587957795D7
:1061F0006795AA95D1F780E0CF910C9485302091D6
:10620000210B30E050E040E0542F432F322F222763
:106210008091200B280F311D411D511D6AE87FE040
:106220008BE190E00E944793CA01B901E4E09695A2
:10623000879577956795EA95D1F781E0DDCF209135
:10624000230B30E050E040E0542F432F322F222721
:106250008091220B280F311D411D511D6AE87FE0FE
:106260008BE190E00E944793CA01B90124E0969522
:106270008795779567952A95D1F782E0BDCF809174
:10628000250B80FD60C021E030E03093090E2093A3
:10629000080E81FD5DC021E030E03093260E209392
:1062A000250E82FD5AC021E030E03093430E20934A
:1062B000420E83FD57C021E030E03093FD0D209366
:1062C000FC0D1092010E1092000E41E050E060E0D3
:1062D00070E04093020E5093030E6093040E70938F
:1062E000050E84FD44C021E030E030931A0E209367
:1062F000190E10921E0E10921D0E41E050E060E04B
:1063000070E040931F0E5093200E6093210E709307
:10631000220E85FD31C081E090E09093370E80938E
:10632000360E10923B0E10923A0E81E090E0A0E003
:10633000B0E080933C0E90933D0EA0933E0EB09340
:106340003F0ECF9108951092090E1092080EA1CF22
:106350001092260E1092250EA4CF1092430E10928A
:10636000420EA7CF1092FD0D1092FC0DBACF1092E5
:106370001A0E1092190ECDCF1092370E1092360EC3
:10638000E0CFC091260BC4FF14C081E090E0909351
:10639000130E8093120E80936B0ECF70EC2FF0E0F3
:1063A000EA54FD4F808190E09093110E8093100E7F
:1063B000C8CF80E00E94CD2CF0CFC091270BC4FF46
:1063C00014C081E090E09093300E80932F0E809364
:1063D0006B0ECF70EC2FF0E0EA54FD4F808190E01F
:1063E00090932E0E80932D0EACCF81E00E94CD2C89
:1063F000F0CFC091280BC4FF14C081E090E09093CF
:106400004D0E80934C0E80936B0ECF70EC2FF0E00E
:10641000EA54FD4F808190E090934B0E80934A0E9A
:1064200090CF82E00E94CD2CF0CF60912A0B70E0DB
:10643000762F66278091290B680F711D80912B0B99
:10644000CF910C94EA2C20910202309103028091AA
:106450004A0A90914B0A2817390719F1F901E45BB0
:10646000F54F80812F5F3F4F90E2980F903180F081
:106470003093030220930202209102023091030222
:106480002C3331057CF01092030210920202089521
:106490008093310230930302209302020E94233240
:1064A000EBCF80E00895282F245E330BF901F69599
:1064B000FE2FEE27F795E79570E06058704CE60FD9
:1064C000F71FEE0FFF1FEE0FFF1FEB54FA4F659102
:1064D00075918591949108950E942332282F30E080
:1064E0003093F40D2093F30D682F809131020E94B8
:1064F0005332645D7F4F8F4F9F4F6093EF0D7093CA
:10650000F00D8093F10D9093F20D08954F925F92EC
:106510006F927F928F929F92AF92BF92CF92DF92B3
:10652000EF92FF921F93CF93DF93C091F30DD09121
:10653000F40D209711F480E032C0109131026C2FDD
:10654000812F0E9453328090EF0D9090F00DA0901B
:10655000F10DB090F20D86169706A806B9065CF309
:106560006C2F812F0E9453322B013C016C2F6F5FE7
:10657000812F0E9453326B017C016C2F812F0E946E
:106580005332C61AD70AE80AF90AC40CD51CE61C0D
:10659000F71C81E08C149D04AE04BF0464F6DF9107
:1065A000CF911F91FF90EF90DF90CF90BF90AF9071
:1065B0009F908F907F906F905F904F900895209163
:1065C0005809309159098091560990915709281717
:1065D0003907B8F4E0915409F091550980915809B0
:1065E000909159099C012F5F3F4F30935909209397
:1065F0005809E80FF91F808190E090935309809328
:1066000052098091520990915309880F991F880F60
:10661000991F90932B0180932A010895CF92DF92C6
:10662000EF92FF920F931F93CF93DF9380916B0EA6
:10663000882329F0E0917C0EF0917D0E19958091D0
:10664000780E9091790E409730F08FE090E0909323
:10665000790E8093780EE091780EF091790EEA54DD
:10666000FD4F408150E0E7EFFDE030E020E061E0E9
:1066700081899289E901C15BD64F892B09F493C0C6
:1066800081819281A589B6898A0F9B1F928381831C
:10669000A789B08D8A179B0738F0708176277083A1
:1066A0008A1B9B0B928381838081882309F478C0A5
:1066B000838D948D892B09F46EC0548B438B858117
:1066C0009681892B09F441C0818592850196928734
:1066D0008187A381B4818A179B07B8F1838594854C
:1066E000A585B6856C017D017FEFC71AD70AE70A39
:1066F000F70AC1FE0AC001E010E0E780F084EF284D
:1067000011F010E000E01087078380FF08C070E4FC
:10671000972772E0A72783879487A587B687838505
:106720009485A585B685B695A79597958795838712
:106730009487A587B68787819085892B21F0818DE5
:10674000928D948B838B12861186838988832F5F29
:106750003F4F7D962330310509F08ACF20914F09B4
:106760009091500980915109290F3327331F820FCF
:10677000932F911D959587959595879590932B01CE
:1067800080932A01DF91CF911F910F91FF90EF909D
:10679000DF90CF900895818D928D948B838B8FCFD6
:1067A000148A138A8CCF1882D2CF20915809309145
:1067B0005909809156099091570928173907A8F36C
:1067C0008091480A9091490A2091540930915509C5
:1067D0003093490A2093480A9093550980935409AD
:1067E0008091460A9091470A9093570980935609E1
:1067F00010925909109258091092470A1092460AAD
:10680000109201020895CF93C82FF89461E08DE2B1
:106810000E945915C11134C08EE093E390935B0937
:1068200080935A0983E28093200189E180932101BA
:1068300086ED92E0909329018093280182E390E015
:1068400090932B0180932A01809173008260809342
:1068500073008BE397E09093490A8093480A87E29C
:1068600095E0909355098093540910922C0B8091D8
:10687000280190912901909300027894CF91089576
:106880008FED92E390935B0980935A0983E28093A2
:10689000200189E1809321018EEA95E0CBCFCF9250
:1068A000DF92EF92FF926B017C01B7018827992755
:1068B00082E00E9495156D2D70E075956795759530
:1068C000679584E00E9495156C2D70E023E0759526
:1068D00067952A95E1F783E0FF90EF90DF90CF90E6
:1068E0000C949515CF93DF93EB010E94C31628EE0D
:1068F00033E040E050E00E944793653F71408105DE
:10690000910508F12FEF2C9FC0012D9F900D1124B0
:1069100064E670E00E94D793EB01609570E082E03E
:106920000E949515BE0175956795759567956F736E
:10693000772784E00E94951570E060E083E0DF91A6
:10694000CF910C94951560E070E0CB01DF91CF9171
:106950000C944F346B017C01C701B6010E944F3487
:1069600064EF71E080E090E00E94911660E070E0DA
:106970008FEF90E00E944F3464EF71E080E090E090
:106980000E949116E9CF80935C09682F8FE20E94E4
:106990002B1508950296089589549F4F0895EF92FC
:1069A000FF920F931F93CF93DF93DC01F22FE32F1E
:1069B000D42FC52FCB01D096ED90FC90D197E11448
:1069C000F104D9F098014F2F5E2F6D2F7C2F2F3FB0
:1069D0003F4F4F4F5F4F610571058105910509F0EC
:1069E000E0F4A8016F2F7E2FC701DF91CF911F9197
:1069F0000F91FF90EF900C945321D2960D90BC9183
:106A0000A02D109751F0CD010E942C26DF91CF913F
:106A10001F910F91FF90EF90089580E0F7CF2F9294
:106A20003F924F925F926F927F928F929F92AF921E
:106A3000BF92CF92DF92EF92FF920F931F93CF936B
:106A4000DF93FC017901D42FC52FCB01A0A9B1A9F7
:106A5000109779F150964D915D916D917C9153977E
:106A60001A012B01612C712C43019801A7016D2F94
:106A70007C2F51016201730184010E9410948901ED
:106A80009A01AB01BC01CF010E94CF34DF91CF91BD
:106A90001F910F91FF90EF90DF90CF90BF90AF903C
:106AA0009F908F907F906F905F904F903F902F902E
:106AB0000895A2A9B3A91097B1F02C9011963C901B
:106AC000119712964C90129713965C901397149608
:106AD0006C90149715967C90159716968C90169737
:106AE00017969C90C2CF212C312C412C512C612C1B
:106AF000712C812C912CB9CFFC0180A991A9892BF3
:106B000039F481E022A933A9232B19F480E00895F8
:106B100081E0089583E392E10E947C35882331F07F
:106B200080E00E94C33481E08093CA0B0E94AF2BA7
:106B30000C94CB2B83E392E10E947C35882321F0D7
:106B40001092CA0B0E94C02C0E94AF2B81E00E94C1
:106B5000C3340C94CB2B0F931F9383E392E10E94D9
:106B60007C35882381F01092CA0B0E94C02C00E073
:106B700010E020E030E040E050E060E070E083E3CF
:106B800092E10E94CF3481E00E94C3340E94AF2B77
:106B90001F910F910C94CB2BDC01D096ED91FC91C1
:106BA000D197309739F09081907D81E0911101C0AB
:106BB00080E00895D296ED91FC913097C9F394A5A9
:106BC0009075F3CF8F929F92AF92BF92CF92DF9248
:106BD000EF92FF92DC01D096ED91FC91D197309726
:106BE000A1F0808C918CA28CB38CC12CD12C76011D
:106BF0009401A501B601C701FF90EF90DF90CF90FF
:106C0000BF90AF909F908F900895D296ED91FC9198
:106C1000309749F080889188A288B388C488D58845
:106C2000E688F788E5CF812C912CA12CB12CC12CC2
:106C3000D12CE12CF12CDCCF089590E080E0089578
:106C4000CF93DF93EC016496CE010E94CA19CE0166
:106C5000DF91CF910C94BA19EF92FF920F931F938B
:106C6000CF938C017C0184E1E80EF11CC7010E94E6
:106C7000CA19D8015296ED91FC915397C0811E9686
:106C80008C91C823C7010E94BA1981E0C11101C0CB
:106C900080E0CF911F910F91FF90EF900895FB013D
:106CA00001900020E9F73197AF01461B570B0C9478
:106CB000E316CF93DF930E94C617EC0162EA74E0FB
:106CC0008AE591E10E944F368C0F9D1FDF91CF9195
:106CD00008958F929F92AF92BF92EF92FF920F937F
:106CE0001F93CF93DF93CDB7DEB7A1970FB6F8947C
:106CF000DEBF0FBECDBF7C01FA01CB0119A222304D
:106D000008F42AE08E010F5D1F4F822E912CB12CCA
:106D1000A12CBF01A50194010E944793F901CA016A
:106D20006A300CF5605DD8016E938D01232B242B06
:106D3000252B79F790E080E0109721F0BD01C70185
:106D40000E944F36A1960FB6F894DEBF0FBECDBF9E
:106D5000DF91CF911F910F91FF90EF90BF90AF9077
:106D60009F908F900895695CDECFCF92DF92EF9273
:106D7000FF92CF93DF936C01EB0185E398E20E94D1
:106D8000C6170D2C000CEE08FF082AE0B701A6017B
:106D9000F7FE0DC06DE28AE591E10E947917442764
:106DA0005527BA014C195D096E097F092AE08AE569
:106DB00091E10E94693683E398E20E94C617CE01F2
:106DC000DF91CF91FF90EF90DF90CF900C945936E8
:106DD0000F931F93CF93DF938C01D0E0C0E0611538
:106DE000710519F00E944F36EC0162EA74E0C801A7
:106DF0000E944F368C0F9D1FDF91CF911F910F91F5
:106E00000895CF931092320260E08DE00E942B151E
:106E10000E94CB2BC1E0C0937F0E65EA74E08AE547
:106E200091E10E94E8366AE070E080E090E00E9424
:106E30009116C093320261E08DE00E942B150E94F2
:106E4000AF2BF19A78940C940C5FCF9108952F9208
:106E50003F924F925F927F928F929F92AF92BF929A
:106E6000CF92DF92EF92FF920F931F93CF93DF9316
:106E7000EC014B017A018A8180FFD5C0888183FFB4
:106E800016C0888D998DAA8DBB8D488959896A89CC
:106E90007B89841B950BA60BB70BA70170E060E004
:106EA000481759076A077B07A0F07C0112C086FFCC
:106EB00010C0EE81FF818681978155E0880F991F70
:106EC0005A95E1F728893989821B930B8E159F0506
:106ED00060F36701712C1E018CE0280E311C412CDF
:106EE00042E0542EC114D10409F4F3C048895989F1
:106EF0006A897B89EE81FF818A0111702881DB011B
:106F0000CA0139E0B695A795979587953A95D1F737
:106F100026FF30C0448D558D668D778D480F591FE3
:106F20006A1F7B1FEE81FF810115110509F081C0E9
:106F3000C11482E0D80608F47CC083A194A1A5A165
:106F4000B6A1481759076A077B0709F472C0C11434
:106F500084E0D80608F094C001E010E0940181A11B
:106F600092A10E944F1D882309F45DC0A12C82E0EC
:106F7000B82E75C0738078220115110581F4711047
:106F80000EC0452B462B472B81F527FF29C0848D4A
:106F9000958DA68DB78D8C879D87AE87BF87EE8137
:106FA000FF814C855D856E857F8542505109610961
:106FB0007109848104C0440F551F661F771F8A958D
:106FC000D2F780899189A289B389840F951FA61F62
:106FD000B71FAC01BD01470D511D611D711DA2CF31
:106FE0008C8D9D8DAE8DBF8DD6CF4C855D856E858C
:106FF0007F8523FF0CC08A8186FF09C04F5F5F4FEA
:107000006F4F7F4F4C875D876E877F87C8CF910119
:10701000CF010E94772087FD06C08111C0CF8881F3
:10702000807D09F056C08981826089838FEF9FEF50
:1070300053C0C201801B910B56018C159D0508F4AD
:107040005C0120E0CF0180960E94C71D009759F394
:10705000BC01600F711FA501C4010E9465948A0CD8
:107060009B1C88899989AA89BB898A0D9B1DA11DB2
:10707000B11D888B998BAA8BBB8BCA18DB0832CFCA
:107080008601012F1127069530E020E0888186FDDA
:107090000EC082818719990B092E000CAA0BBB0B1D
:1070A00080179107A207B30710F48C019D01D90145
:1070B000C80129E0880F991FAA1FBB1F2A95D1F785
:1070C0005C019401CF0180960E94EF2A8111C7CF05
:1070D000AACFC7018C199D09DF91CF911F910F9104
:1070E000FF90EF90DF90CF90BF90AF909F908F90E8
:1070F0007F905F904F903F902F900895EF92FF9276
:107100000F931F93CF93DF931F92CDB7DEB77C0110
:10711000962FF70140895189628973898A019B0101
:1071200085E036952795179507958A95D1F70F70C5
:1071300011F091112BC041E050E0BE016F5F7F4F15
:10714000C7010E942737813051F090E080E00F9016
:10715000DF91CF911F910F91FF90EF900895F7016C
:1071600080899189A289B3894F96A11DB11D808B19
:10717000918BA28BB38BF701868197818B96F0E27E
:107180000F9F90011124820F931FE1CF405E5F4F4C
:107190006F4F7F4F408B518B628B738BECCFCF93B4
:1071A000DF93EC01AB0170E060E085E0440F551F18
:1071B000661F771F8A95D1F7CE010E94532188233D
:1071C00031F060E0CE01DF91CF910C947E3890E0F9
:1071D00080E0DF91CF9108952F923F924F925F927E
:1071E0006F927F928F929F92AF92BF92CF92DF92D7
:1071F000EF92FF920F931F93CF93DF93CDB7DEB73C
:107200002E970FB6F894DEBF0FBECDBF9E878D8739
:107210007A8769875C874B87DC019E968C919E9765
:1072200080FF45C186FD04C09C968C9183FF4FC0B2
:10723000ED85FE85F081F983AD85BE851196BC9103
:10724000BA83ED85FE85F281FB83AD85BE851396FD
:10725000BC91BC83ED85FE85F481FD83AD85BE8543
:107260001596BC91BE83ED85FE85F681FF83AD85C5
:10727000BE851796BC91B887ED85FE85208831883C
:107280004288538864887588868897882B853C85D2
:1072900040E050E060E070E080E090E0A980BA80DB
:1072A000CB80DC80ED80FE800F8118850E941094D9
:1072B00051016201730184010E942E9441F038F063
:1072C000C101A981BA818A1B9B0B9C878B878B8408
:1072D0009C842D843E84B8E12B0E311C81149104D2
:1072E00009F46FC1ED85FE85F081F983AD85BE851A
:1072F0001196BC91BA83ED85FE85F281FB83AD8545
:10730000BE851396BC91BC83ED85FE85F481FD831B
:10731000AD85BE851596BC91BE83ED85FE85F68153
:10732000FF83AD85BE851796BC91B887AD85BE85B8
:107330009096ED91FC91DF01AD5DBD4FCD90DD905C
:10734000ED90FC9089819A81AB81BC81C822D922C1
:10735000EA22FB22260191E05922C114D104E10462
:10736000F104F9F429813A814B815C816D817E8140
:107370008F819885A0E00E94379409F072C0AD8596
:10738000BE859C968C9186FF65C0E15EFD4F808135
:107390009181A281B381ED85FE85808F918FA28F2F
:1073A000B38FED85FE8580A191A1FC01E25DFD4FCB
:1073B000A08149E0F694E794D794C7944A95D1F711
:1073C000ED85FE85408D518D628D738D4250510942
:1073D000610971090A2E04C0440F551F661F771FEB
:1073E0000A94D2F74C0D5D1D6E1D7F1DFC01E95EF8
:1073F000FD4F0081118122813381400F511F621F97
:10740000731F4114510409F05AC08114F2E09F0621
:1074100008F455C0FC010381148125813681401791
:1074200051076207730709F44AC08114F4E09F060C
:1074300008F09AC001E010E029853A85DC01119638
:107440008D919C910E944F1D882389F1612C82E0CF
:10745000782E4BC0ED85FE85848D958DA68DB78DDC
:107460009ACFAD85BE8558964D915D916D917C9179
:107470005B979E968C919E9786FF0AC04F5F5F4FE9
:107480006F4F7F4FFD01408F518F628F738F89CF78
:107490009101CF010E94A62387FD09C0811181CFF0
:1074A000AD85BE859C968C91807509F08AC0ED856E
:1074B000FE8585A5826085A78FEF9FEF86C020E0BF
:1074C00032E02419350934012815390508F4390149
:1074D00020E00E94C71D009751F3BC01640D751D8B
:1074E000A30189859A850E946594E985FA85E60D50
:1074F000F71DFA87E987930140E050E060E070E013
:1075000080E090E0AD85BE85AC901196BC9011975F
:107510001296CC9012971396DC9013971496EC90D9
:1075200014971596FC90159716960C91169717962A
:107530001C9117970E9410942C9311963C931197CD
:1075400012964C93129713965C93139714966C9320
:10755000149715967C93159716968C9316971796F5
:107560009C9386189708BACE2401452C552446943E
:10757000712C612C01E010E020E030E004C0000F2D
:10758000111F221F331FAA95D2F70C191D092E09AE
:107590003F09401651066206730610F493018201FA
:1075A0006801790129E0CC0CDD1CEE1CFF1C2A953A
:1075B000D1F7360129853A850E94EF2A811195CFAE
:1075C00076CF8B859C85881999092E960FB6F894ED
:1075D000DEBF0FBECDBFDF91CF911F910F91FF9006
:1075E000EF90DF90CF90BF90AF909F908F907F9063
:1075F0006F905F904F903F902F9008954F925F92C1
:107600006F927F928F929F92AF92BF92CF92DF92B2
:10761000EF92FF920F931F93CF93DF931F92CDB7FB
:10762000DEB7FC0104AD15AD0115110599F1F801A6
:1076300080889188A288B388C484D584E684F7843E
:1076400041E050E0BE016F5F7F4FC8010E942737C5
:107650000197E9F4898190E0F801808A918AA28AF1
:10766000B38AC486D586E686F7860F90DF91CF91E0
:107670001F910F91FF90EF90DF90CF90BF90AF9050
:107680009F908F907F906F905F904F9008958FEFB5
:107690009FEFE2CF06AD17AD8FEF9FEF01151105FC
:1076A00021F3F8014080518062807380848095804E
:1076B000A680B780C08CD18CE28CF38C41E050E086
:1076C000BE016F5F7F4FC8010E94EC38019781F4C3
:1076D000898190E0F80140825182628273828482C3
:1076E0009582A682B782C08ED18EE28EF38EBDCFF8
:1076F0008FEF9FEFEFCFFC0180A991A9009711F0C8
:107700000C94273782A993A9009711F00C94EC38B8
:107710008FEF9FEF08958F929F92AF92BF92CF927B
:10772000DF92EF92FF920F931F93CF93DF93C0905E
:10773000EF0DD090F00DE090F10DF090F20D8090F3
:10774000D2099090D309A090D409B090D5098C1893
:107750009D08AE08BF08D701C601BB0F880B982F44
:10776000DC01C091480AD091490A860121E08216C5
:1077700022E09206A104B104C4F19701482F582FCA
:10778000682F782F8BEF91E10E94CF346091460AE9
:107790007091470A6C0F7D1F40E052E08BEF91E142
:1077A0000E947B3B82E0D80EE11CF11CC092EF0DE1
:1077B000D092F00DE092F10DF092F20D8091460A18
:1077C0009091470A9E5F9093470A8093460ADF9103
:1077D000CF911F910F91FF90EF90DF90CF90BF90CE
:1077E000AF909F908F900C94D5339701482F582FCE
:1077F000682F782F8BEF91E10E94CF346091460A79
:107800007091470A6C0F7D1FA40181EE94E10E94E4
:107810007B3BC80CD91CEA1CFB1CC092EF0DD0921C
:10782000F00DE092F10DF092F20D8091460A9091E8
:10783000470A880E991E9092470A8092460AC7CF3F
:10784000CF93DF931F92CDB7DEB741E050E0BE018A
:107850006F5F7F4F0E947B3B019731F4898190E0FD
:107860000F90DF91CF9108958FEF9FEFF9CF0C9696
:107870000C94203C2F923F924F925F926F927F9296
:107880008F929F92AF92BF92CF92DF92EF92FF9230
:107890000F931F93CF93DF93CDB7DEB762970FB6E9
:1078A000F894DEBF0FBECDBF7A8769875E874D87AC
:1078B000DC01D0960D90BC91A02DB88BAF871097AE
:1078C00009F483C112968C9181FFBCC083FDADC0C9
:1078D000ED85FE85AF0170E060E0EF85F889808975
:1078E0009189A289B38980959095A095B0958417C8
:1078F0009507A607B70708F4A5C0CD84DE84442405
:107900004A94542C32013C96FC87EB87EF85F8892A
:1079100080889188A288B388C114D10409F428C151
:1079200026803780D1011396FC90B501A40199E01F
:1079300076956795579547959A95D1F7F4228401E6
:107940001170F11023C04485558566857785011532
:10795000110509F0D9C3411551056105710509F4F7
:10796000A9C0228126FF76C0808D918DA28DB38D16
:1079700088169906AA06BB0608F06CC04F5F5F4FD9
:107980006F4F7F4F4487558766877787AF85B88964
:107990001696ED91FC9117971C964D915D916D9106
:1079A0007C911F974250510961097109848104C07B
:1079B000440F551F661F771F8A95D2F780899189DA
:1079C000A289B389840F951FA61FB71FAC01BD0103
:1079D0004F0D511D611D711D0115110509F0A9C340
:1079E000C114B2E0DB0608F4A4C383A094A0A5A050
:1079F000B6A021A032A0C11424E0D20608F07EC0B7
:107A0000481559056A057B0529F410A243A254A222
:107A100065A276A229853A85C1010E94F41B8823BC
:107A200089F0E12C52E0F52EC8C3AF85B88958968D
:107A30004D915D916D917C915B97CD010E94532199
:107A4000811146CFEF85F8898181816081831E860F
:107A50001D86A0C02B853C85C1010E94772087FD33
:107A6000F1CF811106C08F8598890E94402288231A
:107A700049F3AF85B8891696ED91FC9117971C963E
:107A80004D915D916D917C911F9742505109610913
:107A90007109848104C0440F551F661F771F8A95A2
:107AA000D2F780899189A289B389480F591F6A1F2B
:107AB0007B1F96CFEF85F889848D958DA68DB78D28
:107AC0000097A105B10589F4CF010E9440228823C7
:107AD00009F4B8CFEF85F88984859585A685B785A3
:107AE000848F958FA68FB78F51CFEF85F8898487C4
:107AF0009587A687B7874ACF21E042C38601012F29
:107B00001127069530E020E082818F19990B092E0C
:107B1000000CAA0BBB0B081719072A073B0710F428
:107B2000D901C8018C019D010F2EF9E0000F111F32
:107B3000221F331FFA95D1F7F02D78018C0184169E
:107B40009506A606B70670F0840F951FA61FB71FEF
:107B500088169906AA06BB0628F410A243A254A2CE
:107B600065A276A229853A85C1010E94751B22C3B0
:107B7000EF85F889808D918DA28DB38D881599053B
:107B8000AA05BB0538F4808E918EA28EB38E8281B9
:107B9000806882838D859E8562960FB6F894DEBFDD
:107BA0000FBECDBFDF91CF911F910F91FF90EF904E
:107BB000DF90CF90BF90AF909F908F907F906F900D
:107BC0005F904F903F902F900895DC01D2960D90DA
:107BD000BC91A02DBA8BA98B109709F438CF9E9633
:107BE0008C9181FF0CC183FDEBC0ED85FE85FC8788
:107BF000EB8729893A89285E3F4F388B2F87E9899F
:107C0000FA8920803180428053806480758086802C
:107C100097802B853C85232B09F435C200A0F1A168
:107C2000E02DDF01AD5DBD4FCD90DD90ED90FC907E
:107C3000C220D320E420F520160131E03322C11404
:107C4000D104E104F10409F056C0A989BA89589613
:107C50008D909D90AD90BC905B9781149104A10490
:107C6000B10409F4F0C09E968C919E9786FFDBC00C
:107C70005C964D905D906D907C905F9718962C91DE
:107C8000189719963C9119971A964C911A971B962A
:107C90005C911B971C966C911C971D967C911D976F
:107CA0001E968C911E971F969C91AFEF0E9419947F
:107CB000E25DFD4F0081075F0E94F59329833A83BF
:107CC0004B835C836D837E838F83988729813A8180
:107CD0004B815C81420E531E641E751E84149504F4
:107CE000A604B70408F491C089899A890E94712575
:107CF000882309F484C0A989BA899096ED91FC91F2
:107D0000DF01A25DBD4F2C9129834601570149E057
:107D1000B694A794979487944A95D1F7A989BA897C
:107D200058964D905D906D907C905B97B2E04B1AA9
:107D300051086108710804C0440C551C661C771C6E
:107D40002A95D2F7480C591C6A1C7B1CDF01A95EDE
:107D5000BD4F8D919D910D90BC91A02D480E591E47
:107D60006A1E7B1E2114310409F08EC02B853C85D0
:107D7000211542E0340708F487C0C380D480E58031
:107D8000F680818192812115344008F033C14C1472
:107D90005D046E047F0441F410824FEF5FEFBA017F
:107DA000438354836583768329853A85B301A20191
:107DB0000E94F41B882319F1812C82E0982EC4C004
:107DC000A989BA8950960C91509751961C91519758
:107DD00052962C91529753963C91539754964C91AE
:107DE000549755965C91559756966C915697579621
:107DF0007C915797CD010E942C268111F6CEE989FE
:107E0000FA8985A5816085A722CE3FEF831A930A60
:107E1000A30AB30AA989BA8958968D929D92AD9208
:107E2000BC925B9768CF2F853889B501A401CF013B
:107E30000E94A623082E000C990B97FDE0CF892BFA
:107E400009F452CF58CFE989FA89848D958DA68D92
:107E5000B78D0097A105B10581F4CF010E9471256E
:107E6000882369F2E989FA89808D918DA28DB38D7D
:107E7000848F958FA68FB78F3ECFE989FA89808F3F
:107E8000918FA28FB38F37CF80E092E08219930950
:107E90008B849C848815990508F44C0121143104C5
:107EA00009F0A6C0A989BA892C9111963C91119725
:107EB00012964C91129713965C91139714966C91AD
:107EC000149715967C9115975096AC9050975196B3
:107ED000BC9051975296CC9052975396DC90539702
:107EE0005496EC9054975596FC90559756960C9155
:107EF000569757961C91579716968C9116971796EA
:107F00009C910E942E9408F473C025E0B301A20155
:107F1000CF010E94C71D009709F471CFA4016985A4
:107F20007A85820D931D0E946594280C391C2114BA
:107F3000B2E03B0649F4E989FA8980A191A10E9447
:107F4000471C882309F45BCF940140E050E060E0D7
:107F500070E080E090E0A989BA89AC901196BC905D
:107F600011971296CC9012971396DC901397149653
:107F7000EC9014971596FC90159716960C91169701
:107F800017961C910E94109429013A01382EE98914
:107F9000FA89208351824283738264837583868346
:107FA000978329853A85280D391D3A8729874B857E
:107FB0005C85481959095C874B87A088B188C288BD
:107FC000D388E488F588068917899201A3010E9465
:107FD0002E9409F008F413CE86A5806886A7408AFF
:107FE000518A628A738A648B758B368A978B07CE27
:107FF00021E08CCF0B851C85012F1127069530E0E1
:1080000020E041E050E060E070E0098004C0440FEF
:10801000551F661F771F0A94D2F749835A836B83D3
:108020007C83481959096A097B0904171507260733
:10803000370710F4B901A8014A015B0129E0880C57
:10804000991CAA1CBB1C2A95D1F78A01C414D5041B
:10805000E604F70488F0440D551D661D771DC4160F
:10806000D506E606F70640F410822FEF3FEFA90190
:10807000238334834583568329853A85B301A2013E
:108080000E94751B5ECFA989BA8918962C91189702
:1080900019963C9119971A964C911A971B965C91D8
:1080A0001B971C966C911C971D967C911D971E9694
:1080B0008C911E971F969C911F975101620173012D
:1080C00084010E942E9408F065CD18962C92189782
:1080D00019963C9219971A964C921A971B965C9295
:1080E0001B971C966C921C971D967C921D971E9652
:1080F0008C921E971F969C921F979E968C919E978E
:1081000080689E968C9346CDF101425051096109D9
:108110007109848104C0440F551F661F771F8A951B
:10812000D2F780899189A289B389480F591F6A1FA4
:108130007B1F80E092E0801B910B76018C159D05E2
:1081400008F47C010115110509F0D6CCAF85B8897A
:1081500050968D909D90AD90BC90539758968D9170
:108160009D910D90BC91A02D88169906AA06BB067C
:1081700030F4AF85B88912968C9185FFBDCC25E08F
:10818000CF0180960E94C71D009709F45BCCA70120
:1081900069857A85800F911F0E9465940E0D1F1DC1
:1081A0000115124051F4EF85F889868197818096F8
:1081B0000E94471C882309F445CCEF85F889808903
:1081C0009189A289B3898E0D9F1DA11DB11D808B40
:1081D000918BA28BB38B29853A852E0D3F1D3A8753
:1081E0002987CE18DF0892CB0C960C943A3CCF939B
:1081F000DF931F92CDB7DEB7698341E050E0BE0147
:108200006F5F7F4F0C960E943A3C0F90DF91CF91A9
:108210000895CF93DF931F92CDB7DEB7698341E016
:1082200050E0BE016F5F7F4F04960E943A3C0F9072
:10823000DF91CF910895FC01808181110EC080E211
:10824000DF011D928A95E9F777836683DB01159636
:108250008C91803121F0803239F080E0089580E403
:10826000808381E08283089580E8FACF9F92AF9265
:10827000BF92CF92DF92EF92FF920F931F93CF9313
:10828000DF93CDB7DEB7A0970FB6F894DEBF0FBE71
:10829000CDBF19821A821B82DC0112962C9121FF1C
:1082A00012C08C01FC01448D558D668D778D411572
:1082B00051056105710549F461E0C8010E9423225E
:1082C0007C01009749F480E067C0868197810E9415
:1082D000F2208111F1CFF7CF0E944521B82E85EE13
:1082E000F7018083D8011C9212961C921297169661
:1082F0008D919C910E94F822882329F3F8019381A3
:10830000992309F449C080859185A285B38566814A
:1083100077819E012F5F3F4F69010097A105B1054D
:1083200009F04CC0C9010E941B41882361F2EE2470
:10833000E394F12C95EEA92ED80113968C91139706
:108340008E1508F214966D917C916E197F09C60105
:108350000E94CF38FC01892B09F4B5CF83858F307B
:1083600009F0B1CF9081892F8F71E812ACCF85854C
:108370008B11A9CFA082D8011696ED91FC9180A116
:10838000816080A3BFEFEB1AFB0A96FFD5CFF801FF
:10839000868197810E94F822A0960FB6F894DEBFDE
:1083A0000FBECDBFDF91CF911F910F91FF90EF9046
:1083B000DF90CF90BF90AF909F9008952CE1F60191
:1083C00011922A95E9F720E1298321E02B83788710
:1083D0006F838D8F9E8FAF8FB8A3A9CF3F924F929F
:1083E0005F926F927F928F929F92AF92BF92CF9245
:1083F000DF92EF92FF920F931F93CF93DF93CDB74E
:10840000DEB7A0970FB6F894DEBF0FBECDBF7B01DD
:10841000DB011C92FC01C0A8D1A8C114D10409F44D
:10842000D9C019821A821B82D6018C91882309F443
:10843000CCC013969C9191115EC0807CF9F08FE2C4
:10844000FB018083118201E010E0C801A0960FB605
:10845000F894DEBF0FBECDBFDF91CF911F910F917A
:10846000FF90EF90DF90CF90BF90AF909F908F9054
:108470007F906F905F904F903F90089560E0C601AD
:108480000E942322FC01009709F49FC05C0100E0D8
:1084900068E020E0D5018C912830A9F4803229F1E0
:1084A00060E19EE2402F50E06A013FEFC31AD30A19
:1084B00084E6C816D10408F088C00F5F4E0D5F1D1A
:1084C000DA019C930FC0BFEFAB1ABB0A982F3FEBAA
:1084D000380F3A3128F43485362311F0905EE2CF1C
:1084E000803201F72F5F2C30A9F610E0F701E00F82
:1084F000F11F1082AACFF60180859185A285B385F0
:108500009E012F5F3F4F2901892B8A2B8B2B09F06E
:1085100046C066817781C9010E941B41882309F406
:1085200054C066246394712C10E000E0D6011396C9
:108530008C9113978615D0F214966D917C916619E3
:108540007709C2010E94CF385C010097F1F1FC016C
:1085500083858F30D1F580818F71681236C04701D5
:10856000800E911E312C632DC5010E947A14009754
:1085700009F4BCCF0F5F1F4F0436110530F58F375C
:10858000910510F08FE390E0D4018D934D01339469
:10859000BDE03B12E8CFEFEF6E1A7E0AC7CF80E254
:1085A000D9011D928A95E9F780E1898381E08B8367
:1085B0008681978198878F8380859185A285B385F1
:1085C0008D8F9E8FAF8FB8A3ACCFD7011C9210E0D8
:1085D00000E03BCFA2A8B3A8A114B104C1F3D50118
:1085E0009C968C91882381F182E0D82E10E000E0E7
:1085F000F50183A58D1508F479CF40E06D2DC501F7
:108600000E947627009701F1DC012C91213CE1F4D6
:10861000FC013296D701A00FB11F809621913191B4
:108620002115310509F462CF0F5F1F4F0436110584
:1086300058F42F37310510F02FE330E02D938E17CB
:108640009F0761F7D394D4CFF7011082C0CFCF92A8
:10865000DF92EF92FF920F931F93CF93DF93EC0182
:10866000122F80E2DE011D928A95E9F7FB018681D7
:1086700097819F838E835D834C83C48CD58CE68CDD
:10868000F78CC886D986EA86FB86FC01BB964F70BC
:10869000552735E0440F551F3A95E1F7E40FF51FD4
:1086A000238523FD11C0277328833385387111F486
:1086B000286028830B83212F2370213009F44BC0BD
:1086C00038F0223009F445C018821A8280E038C0A0
:1086D00021E015FDF9CF2A833A8131FF06C02881B8
:1086E000422F417189F720622883212F2870232B84
:1086F0002A83DC0193964D915D916D917C919697C3
:108700004C8B5D8B6E8B7F8B4489558970E060E06C
:10871000BA0155274427C28CD38CF12CE12C4C296B
:108720005D296E297F2915FF1DC041155105610581
:10873000710599F48A8180688A8312FD20C081E0E6
:10874000DF91CF911F910F91FF90EF90DF90CF902D
:10875000089523E0C0CF22E0BECF0E94F220811115
:10876000E9CFB2CF4C8F5D8F6E8F7F8F848D958DCB
:10877000A68DB78D888F998FAA8FBB8FDECF488D3E
:10878000598D6A8D7B8DCE010E945321882309F477
:108790009BCFD5CF8F929F92AF92BF92DF92EF92F5
:1087A000FF920F931F93CF93DF937C01EB01142F64
:1087B00000E0D12C88889988AA88BB8860E0CE0127
:1087C0000E947E380097A9F1FC012081222389F1C3
:1087D0002E3229F1253E19F1338533FD22C00023C5
:1087E00021F00E9445218D1124C0B501A40185E02E
:1087F00076956795579547958A95D1F7212FBE01B4
:10880000C7010E942743DF91CF911F910F91FF90E5
:10881000EF90DF90BF90AF909F908F90089500E011
:10882000C9CF3F30E1F726FFC5CF022F0F71D584A6
:10883000C1CF80E0E8CFAF92BF92CF92DF92EF92AC
:10884000FF920F931F93CF93DF93EC01888186FFF4
:108850000DC010E0812FDF91CF911F910F91FF90FC
:10886000EF90DF90CF90BF90AF900895888999895D
:10887000AA89BB8981159E4FAF41B10550F7CE0142
:108880000E944022182F882321F3EE81FF81CC849F
:10889000DD84EE84FF8432E0C31AD108E108F108D8
:1088A000848104C0CC0CDD1CEE1CFF1C8A95D2F721
:1088B00080899189A289B389C80ED91EEA1EFB1E40
:1088C00000E0A12C82E0B82EEE81FF8182810817A2
:1088D000B0F425E0B701A601400F511D611D711DC7
:1088E000CF0180960E94C71D009709F4B2CFFC010A
:1088F0009501119221503040E1F70F5FE5CF84815F
:1089000020E032E002C0220F331F8A95E2F7888907
:108910009989AA89BB89820F931FA11DB11D888BDC
:10892000998BAA8BBB8B96CF4F925F926F927F925F
:108930008F929F92AF92BF92CF92DF92EF92FF926F
:108940000F931F93CF93DF9300D01F92CDB7DEB765
:108950004C01DC019C968C919C9786FF5CC09096A4
:108960000D911C91F801E15EFD4F80819181A28102
:10897000B38189839A83AB83BC83C12CD12C7601CC
:1089800049815A816B817C819E012F5F3F4FC801D5
:108990000E94A62387FD3BC0BFEFCB1ADB0AEB0A80
:1089A000FB0A8111EDCFF801E25DFD4F8081875F09
:1089B00004C0CC0CDD1CEE1CFF1C8A95D2F7D40140
:1089C0009096ED91FC91E95DFD4F80819181A281AE
:1089D000B3818C0D9D1DAE1DBF1D0097A105B44038
:1089E00000F180E00F900F900F900F90DF91CF91EA
:1089F0001F910F91FF90EF90DF90CF90BF90AF90BD
:108A00009F908F907F906F905F904F900895C12CB2
:108A1000D12C7601C8CFF401C084D184E284F384E0
:108A2000CECFC4010E9471258823D9F2D40190963B
:108A30008D919C9191975896CD90DD90ED90FC9002
:108A40005B97B2E0CB1AD108E108F108FC01E25DC6
:108A5000FD4F208104C0CC0CDD1CEE1CFF1C2A95B0
:108A6000D2F7895E9D4FFC0180819181A281B38103
:108A7000C80ED91EEA1EFB1E412C512C320100E00B
:108A800012E0D40190968D919C919197FC01E25D4A
:108A9000FD4F208141E050E060E070E004C0440FF1
:108AA000551F661F771F2A95D2F74416550666068E
:108AB0007706C0F425E0B701A601440D551D661DDB
:108AC000771D0E94C71D009709F48BCFFC01980108
:108AD000119221503040E1F73FEF431A530A630AE5
:108AE000730ACFCF9C962C919C9726FD62C09E96D0
:108AF0002C919E9720689E962C93FC01E95DFD4F7A
:108B000080819181A281B3819C01AD0160E070E020
:108B100080E090E0D4011896AC9018971996BC901C
:108B200019971A96CC901A971B96DC901B971C9657
:108B3000EC901C971D96FC901D971E960C911E970D
:108B40001F961C911F970E94109418962C931897AB
:108B500019963C9319971A964C931A971B965C9307
:108B60001B971C966C931C971D967C931D971E96C5
:108B70008C931E971F969C9380819181A281B381D3
:108B80009C01AD0160E070E080E090E0F401A0881D
:108B9000B188C288D388E488F588068917890E943D
:108BA0001094208B318B428B538B648B758B868B0F
:108BB000978BC4010E94FF2715CFFC0184A581116A
:108BC0000CC08FE2DF011D928A95E9F780E484A74B
:108BD00071A360A381E086A7089580E008952F9295
:108BE0003F924F925F926F927F928F929F92AF923D
:108BF000BF92CF92DF92EF92FF920F931F93CF938A
:108C0000DF93CDB7DEB7E4970FB6F894DEBF0FBEA3
:108C1000CDBF6C018B012A01A22EDC019C968C91A8
:108C200081110DC0FB0184A5807549F0822F8370EE
:108C3000813009F491C040F0823009F48BC0F60114
:108C400014A616A6F12CE2C181E09A2D9870B92ED7
:108C5000B82A4114510409F481C0D20116968D91AD
:108C60009C910E966FE070E00E94C3936E5F6DA3BF
:108C7000C8010E947229F12CE12C1E01E1E22E0EA6
:108C8000311CFB2DF064FDA740E250E0BE016F5F98
:108C90007F4FC8010E94EC38009741F1809779F628
:108CA000898187FD5EC0E11017C0D8014D915D91AB
:108CB0006D917C913A014B01B0E26B1A7108810809
:108CC0009108D80158962D913D914D915C915B97FB
:108CD00029AB3AAB4BAB5CABBDA1EB1608F4E3940C
:108CE0008111C9C14114510409F4A9CFA4FEA7CF31
:108CF000B1FEA5CF4114510409F4A1CFFDA1EF1697
:108D000008F07DC240E250E0BE016F5F7F4FC801B6
:108D10000E94EC38009709F054C2D80158962D9162
:108D20003D914D915C915B972DA73EA74FA758AB06
:108D3000C8010E949444882309F481CF2DA53EA543
:108D40004FA558A9D80158962D933D934D935C9308
:108D50005B97D4CF83E079CF82E077CFB3E0BDA338
:108D60008ACFF11045C0EDA1EE1608F4E12C85384C
:108D700009F08ACFD601EFE21D92EA95E9F78A81E0
:108D8000D6019B968C939B979D81892F877394FF27
:108D90002BC09C968C93D80190968D919C91919725
:108DA000F60191A380A358968D919D910D90BC9151
:108DB000A02D82A393A3A4A3B5A3F80180819181E0
:108DC000A281B3818097A109B109F60186A397A377
:108DD000A0A7B1A7D8019E968C9186FB882780F921
:108DE00082A7FF24F39450CF8860F60184A7D3CFE5
:108DF000803C09F042C1F601B6A68A8181FF02C01B
:108E00002DA526A78985D60150968C9350978A85E3
:108E100051968C9351978B8552968C9352978C8553
:108E200053968C9353978D8554968C9354978E8537
:108E300055968C9355978F8556968C93569788891F
:108E400057968C938D899E89AF89B88DF601848F52
:108E5000958FA68FB78F898D80878A8D81878B8D1F
:108E600082878C8D83878D8D84878E8D85878F8D6E
:108E7000868788A187874114510409F0E1C0A6FCC8
:108E8000DECE8A2D847221F4F60186A581FF06C00C
:108E9000D6019C968C91817109F0D1CEA5FE73C14B
:108EA000F60186A581FFCBCE00E010E020E030E0A7
:108EB00040E050E060E070E0C6010E942C2688236C
:108EC00009F4BDCED6019E968C919E9781FFB7CEB8
:108ED0005C968D909D90AD90BC905F9781149104AD
:108EE000A104B10409F48BC058964D905D906D902B
:108EF0007C905B9786FF03C118962C911897199662
:108F00003C9119971A964C911A971B965C911B9756
:108F10001C966C911C971D967C911D971E968C91AA
:108F20001E971F969C91AFEF0E941994D6019096C0
:108F3000ED91FC91DF01A25DBD4F0C91075F0E9496
:108F4000F5932DA33EA34FA358A769A77AA78BA794
:108F50009CA70DA11EA12FA138A50F5F1F4F2F4F5A
:108F60003F4F411451046104710409F4BCC0D301A2
:108F7000C2010196A11DB11D89A39AA3ABA3BCA3F5
:108F8000B1E08B1A9108A108B10884189508A608C9
:108F9000B708080D191D2A1D3B1D011511052105D6
:108FA000310559F049A15AA16BA17CA1E12CCF0157
:108FB0000E944624882309F442CEF6017081618123
:108FC00052814381348125819681878170876187B1
:108FD000528743873487258796878787708B618B75
:108FE000528B438B348B258B968B878B86A5806821
:108FF00086A7C6010E94FF27882309F420CEF60128
:1090000086A581FF03C084A5806284A78F2DE49686
:109010000FB6F894DEBF0FBECDBFDF91CF911F9189
:109020000F91FF90EF90DF90CF90BF90AF909F9007
:109030008F907F906F905F904F903F902F9008950A
:10904000D2018D919C91119713969C938E931297B8
:109050002C8116968D919C9117972817190659F413
:10906000FF24F39418962D913C918D819E812817B1
:10907000390709F409CEF12C07CE813CE1F7F20162
:1090800044815581BE016D5F7F4FDB018D919D91C4
:10909000BD01F201A281B381A417B50759F4892B50
:1090A00051F7D20112968D919C918417950709F082
:1090B000EBCDE5CE9D012F5F3F4F338322832C9173
:1090C0008F379105C0F63FE9320F3A3108F420524C
:1090D0003FE9380F3A3108F480528213CCCF26167C
:1090E000370699F6DECF89A29AA2ABA2BCA2D6011E
:1090F0005C961D921D921D921C925F974ECF41145B
:10910000510461047104A9F119A21AA21BA21CA2A4
:109110009E012F5D3F4FB301A201F60180A191A1F5
:109120000E94A62387FD8BCD882391F0D601589607
:109130004D915D916D917C915B970FEF1FEF9801C1
:1091400090968D919C910E945123882309F477CDAC
:1091500049A15AA16BA17CA1411551056105710579
:1091600009F42BCFD60190968D919C910E940225F7
:1091700021CF89A29AA2ABA2BCA2F601148E158EB1
:10918000168E178EE5CFA2FE3ACFD60150960C91DF
:10919000509751961C91519752962C9152975396F5
:1091A0003C91539754964C91549755965C91559792
:1091B00056966C91569757967C91C6010E942C2624
:1091C0001BCF809709F03BCDE11017C0F8018081DB
:1091D0009181A281B3813C014D01F0E26F1A7108C7
:1091E00081089108D80158962D913D914D915C913F
:1091F0005B9729AB3AAB4BAB5CABE3947FCDF8010B
:1092000086A586FB882780F99FE2D6011D929A9554
:10921000E9F720A131A1F60131A320A398E294A798
:1092200029A93AA94BA95CA922A333A344A355A316
:1092300066A277A280A691A682A7D2018D919C9169
:10924000119713969C938E93129700E080E2782EEC
:1092500091EC892E20EC922E1B2D106835E8A32E60
:10926000BDA0BA9441E2E42E46E5F42EBDA10B1751
:1092700009F45BC041E0602FC6010E947627DC0143
:10928000892B09F4DCCC8C9187FDD9CCFD01272DED
:1092900011922A95E9F7011114C0AC92F601B3A618
:1092A0001196BC9211971B96FC92EE921A971F96FC
:1092B000FC92EE921E975396FC92EE9252970F5F9D
:1092C000D5CF013091F49C9211960C931197F60131
:1092D00016A7F201868113968C931397808591854A
:1092E00015969C938E931497EACF8C92F201448149
:1092F0005581BD016E5F7F4FCD018096F201A28145
:10930000B381A417B507D9F29D012F5F3F4F338377
:1093100022832C91022E000C330BDB012D933D9305
:10932000BD018A179B0751F7CACFC6010E94FF27CC
:10933000F82E6CCECF93DF93EC01FB0194A59075D2
:10934000F9F022E5CE010E94EF458823C9F080E3C1
:109350008CA7CE010E949444882391F0888D998D2A
:10936000AA8DBB8D8C8F9D8FAE8FBF8FCE010E943B
:10937000722981EC8EA7CE01DF91CF910C94FF274B
:1093800080E0DF91CF910895CF93DF93EC01FB0153
:10939000B42F8CA5811119C084A58075B1F02081EE
:1093A0002F7130E040E050E060E070E080E090E05D
:1093B000A0E00E94379449F42B2F50E040E0BF0119
:1093C000CE01DF91CF910C94EF4580E0DF91CF91FA
:1093D0000895AF92BF92CF92DF92EF92FF920F93D8
:1093E0001F93CF93DF93EC016A017B01B22E89E8D2
:1093F00095E10E94B12888A999A9892B09F47EC01A
:109400001092891510928A1510928B1589E895E1B2
:109410009093BA158093B915860108A8D9A9C02DD3
:10942000C114D10409F461C08C2D0531110508F077
:1094300084E1A82E81E0C81AD108FF24F394B60174
:10944000CE010E94CF380097B1F0FC0123852F3068
:10945000F1F4808186FF15C0A60170E060E0E5E0D0
:10946000440F551F661F771FEA95D1F7CE010E9462
:10947000532181110CC01092BA151092B91580E0D9
:1094800029C0F394F1E0CF1AD108AF14C0F680914F
:1094900089158111F0CF8881807D69F38889998948
:1094A000AA89BB898F719927AA27BB27892B8A2B69
:1094B0008B2B09F74B2DBE0189E895E10E94CA4329
:1094C0008823C9F280918D1590918E150817190780
:1094D00081F481E0DF91CF911F910F91FF90EF9088
:1094E000DF90CF90BF90AF900895CE010E94F322FD
:1094F000CECF89E895E10E944723BDCF8AA99BA9D9
:10950000892B09F4BCCF1092B5151092B6151092A4
:10951000B71589E895E19093BC158093BB150AA80F
:10952000DBA9C02DB701A60135E0440F551F661F0A
:10953000771F3A95D1F78A019B0140E050E060E047
:1095400070E0CE010E942C26882309F14B2DBE012C
:1095500089E895E10E94C4498823C9F08091AF153C
:109560009091B015A091B115B091B21525E0B695C6
:10957000A795979587952A95D1F7C816D906EA0633
:10958000FB0609F4A6CF89E895E10E94A72810926E
:10959000BC151092BB1573CF89E895E10E94B128E4
:1095A0006091F1157091F2156115710559F11092E4
:1095B000891510928A1510928B1589E895E1909380
:1095C000BA158093B915FB018081807D31F410922A
:1095D000BA151092B91580E0089580899189A28901
:1095E000B3898F719927AA27BB27892B8A2B8B2BAD
:1095F00071F740E089E895E10E94CA43882339F376
:1096000081E008956091F3157091F415611571056D
:1096100011F31092B5151092B6151092B71589E88E
:1096200095E19093BC158093BB1540E00E94C4491E
:109630008111E6CF1092BC151092BB150895DF92F0
:10964000EF92FF920F931F93CF93DF93CDB7DEB7C7
:10965000EB970FB6F894DEBF0FBECDBF7C018B0138
:109660005BAF4AAFD22E1DA61EA61FA6FC0184A585
:10967000882379F080E0EB960FB6F894DEBF0FBE3A
:10968000CDBFDF91CF911F910F91FF90EF90DF90B1
:109690000895FB0184A5807569F3EAADFBAD808177
:1096A0008F32D9F4EAADFBAD80818F3221F431964F
:1096B000FBAFEAAFF7CFF80160A171A1811104C03F
:1096C000C7010E94DD45D7CFCE0101960E94DD453E
:1096D000882381F28E010F5F1F4F6AAD7BAD9E0123
:1096E000265C3F4FAE01405D5F4FC7010E947D2A5F
:1096F000882309F4BFCFEAADFBAD80818823B9F0A0
:1097000020E0AE01405D5F4FB801C7010E94EF4508
:10971000882309F4AFCF8FE2F701DE0111960190A3
:109720000D928A95E1F7C7010E94A728D3CF2D2D6E
:10973000AE01405D5F4FB801C7010E94EF459BCF6E
:109740006115710521F0615D7D4F0C941F4B80E028
:109750000895EF92FF920F931F93CF93DF9300D062
:1097600000D0CDB7DEB7FB0140815181BC01640F51
:10977000751FDB017D01E81AF90A2D91022E000CFC
:10978000330B205331092A303105A0F3C701841B64
:10979000950BAC018FEF9FEF4115510579F08F01CB
:1097A000CE0101960E94659491E0E91AF108F80152
:1097B000F182E082CE0101960E94578E26960FB666
:1097C000F894DEBF0FBECDBFDF91CF911F910F91F7
:1097D000FF90EF9008954F925F926F927F928F92D9
:1097E0009F92AF92BF92CF92DF92EF92FF921F9320
:1097F000CF93DF931F921F92CDB7DEB71092D11493
:109800001092D4141092D5141092D6141092D7142A
:109810001092D31485E38093D21461E00E9459150D
:1098200061E08091D2140E942B1582E58093CF14C1
:109830001092D0141FB7F89480919110811127C015
:10984000E6E9F7E28491ECEDF7E29491E82FF0E09D
:10985000EE0FFF1FE35DF84DA591B491EC91E92364
:1098600021F461E085E30E942B1561E085E30E940D
:1098700059158CB580618CBD8CB580648CBD61E060
:1098800084E30E94591561E083E30E945915809199
:1098900091108F5F809391101FBF81E08093D1144E
:1098A0008091D414811104C08DEC94E10E94381A87
:1098B00061E08091D2140E942B151AE00E94461A92
:1098C0001150E1F760E08091D2140E942B150E94A4
:1098D000C3166053784F7A83698320E030E0A90192
:1098E00060E08DEC94E10E942A1B813009F422C1D2
:1098F000CE0101960E94211A882379F381E080939A
:10990000D3148DEC94E10E946C1AB7E6CB2EB2E131
:10991000DB2E8DEC94E19093CC148093CB141091BA
:10992000D31411118BC21092C8141092C714109244
:1099300067124FEF5FEFBA0140936A1250936B12B8
:1099400060936C1270936D12109294141092C21462
:109950001092C3141092C414D092CA14C092C914A5
:109960009093931480939214909369128093681249
:1099700020E040E050E0BA01C6010E94C71D0097F8
:1099800009F44AC1FC01E254FE4F2481222309F468
:1099900043C120812F7709F03FC18A539E4FFC01BC
:1099A00080809180A280B380B501A401C6010E948D
:1099B000C71D7C01009709F42FC145E050E06BEA18
:1099C00074E003960E948994892B09F025C1F70160
:1099D000E459FF4F8081893009F01EC17C97808156
:1099E0009181A281B381880D991DAA1DBB1D809311
:1099F000761490937714A0937814B09379143496D6
:109A000080819181A281B38180937A1490937B1499
:109A1000A0937C14B0937D1434964081518162816F
:109A20007381480D591D6A1D7B1D40937E14509310
:109A30007F14609380147093811434968081918197
:109A4000A281B3818093821490938314A093841491
:109A5000B0938514349680819181A281B3818093E3
:109A6000861490938714A0938814B09389143D961C
:109A7000208120939514275F81E090E0A0E0B0E082
:109A800004C0880F991FAA1FBB1F2A95D2F7809385
:109A90008E1490938F14A0939014B0939114019707
:109AA000A109B10980938A1490938B14A0938C140C
:109AB000B0938D1410927214109273141092741447
:109AC0001092751440E050E0BA01C6010E94111EC8
:109AD00080E48093941486E994E10E94A728B6015B
:109AE00086E994E10E94DD45882309F495C08091C0
:109AF0008D1090918E10892B21F4D0928E10C092EF
:109B00008D1087E692E19093901080938F1081E002
:109B10000F900F90DF91CF911F91FF90EF90DF900A
:109B2000CF90BF90AF909F908F907F906F905F90FD
:109B30004F9008952AEA31E040E050E068E08DEC73
:109B400094E10E942A1B82FF28C081E08093D714F1
:109B50008091D714C12CD12CE12C10E4F12E82304D
:109B600019F0C12CD12C760120E030E0A90167E387
:109B70008DEC94E10E942A1BA701960169E28DEC0D
:109B800094E10E942A1B8823E1F0CE0101960E94F5
:109B9000211A882349F387E1B2CE14E00E94461AC5
:109BA0008093D6141150D1F78A3A11F482E0CECFC7
:109BB000CE0101960E94211A882309F4BBCF86E0CA
:109BC0009ECE8091D7148230D1F420E030E0A901FC
:109BD0006AE38DEC94E10E942A1B882311F082E154
:109BE0008ECE0E94461A807C803C19F483E08093DC
:109BF000D7140E94461A0E94461A0E94461A8DECFB
:109C000094E10E946C1A80E58093CF1481E08093E8
:109C1000D0141092DC1479CE1092CA141092C91488
:109C200010926C12109287128FEF9FEFDC018093DD
:109C30008A1290938B12A0938C12B0938D12109273
:109C40009214109293141092941487E692E19093D8
:109C5000C8148093C7148DEC94E19093681280939C
:109C6000671241E050E060E070E040936F12509363
:109C70007012609371127093721290938912809394
:109C8000881220E040E050E0BA0187E892E10E94AB
:109C9000C71D009709F4CEC0FC01E254FE4F248199
:109CA000222309F4C7C020812F7709F0C3C08A534B
:109CB0009E4FFC01C080D180E280F380B701A601F5
:109CC00087E892E10E94C71DFC01892B09F4B2C00C
:109CD0008089823009F0AEC08385948581159240D9
:109CE00009F0A8C09585909369128FEF890F809332
:109CF0006A1281E0981731F01F5F193009F4D9C05A
:109D0000880FF8CF10936B1286899789B0E0A0E096
:109D10008093731290937412A0937512B09376127D
:109D2000892B8A2B8B2B61F484A195A1A6A1B7A1C5
:109D30008093731290937412A0937512B09376125D
:109D40008685978526013701480E591E611C711CB6
:109D500040927B1250927C1260927D1270927E1221
:109D60008189928990936E1280936D124091731243
:109D70005091741260917512709176124A015B01D4
:109D8000880C991CAA1CBB1C840C951CA61CB71C17
:109D90008092831290928412A0928512B0928612C1
:109DA00035E0880F991F3A95E1F781509E4F892F32
:109DB00099278695880E991EA11CB11C8092771256
:109DC00090927812A0927912B0927A128389948933
:109DD000B0E0A0E00097A105B10521F480A191A118
:109DE000A2A1B3A1C818D908EA08FB088C0D9D1DD3
:109DF000AE1DBF1D6C017D0104C0F694E794D7949D
:109E0000C7941A95D2F7D701C6010196A11DB11DBD
:109E100080937F1290938012A0938112B09382124C
:109E200085EFC8168FE0D806E104F10448F48CE011
:109E300080936C121092C8141092C71480E068CE00
:109E400080E125EFC2162FEFD206E104F10468F09D
:109E500084A595A5A6A5B7A5809383129093841297
:109E6000A0938512B093861280E280936C12409387
:109E70008E1250938F12609390127093911282E918
:109E800094E10E94472367E672E182E994E10E942F
:109E90001B41882379F280918B1090918C10892B33
:109EA00009F02FCE87E692E190938C1080938B106F
:109EB00028CE88E080936B12BDCF0E944394CF934D
:109EC000DF93EC0147E150E08B5C9C4F0E94BC8E1D
:109ED000C55BDC4F1882DF91CF910895CF92DF925E
:109EE000EF92FF920F931F93CF93DF938C01EB01BF
:109EF0007C0182EBE81A8CEFF80A2097E9F0680100
:109F0000EEEACE1AECEFDE0AF601808190E0C81787
:109F1000D907E9F0880F991FFC01E05BFB4F6081D6
:109F200071810C2E02C0769567950A94E2F76170F4
:109F3000C7010E947E18E8CF95E0C92ED12C61E0C0
:109F4000C7010E947E1881E0C81AD108C1F7F80144
:109F5000ED5AFC4FC08363E876E2C03138F4D0E0BC
:109F6000CC0FDD1FC059DB4F68817981C801DF91BB
:109F7000CF911F910F91FF90EF90DF90CF900C94B5
:109F80005F4FCF93DF93EC0168A170E00E946E4FAA
:109F90004AA15BA16CA17DA1CE01825B9C4F0E9476
:109FA000381869A170E0CE010E946E4F81E0DF9108
:109FB000CF910895CF92DF92EF920F931F93CF939B
:109FC000DF93EC016BE070E00E946E4F6E0182EB5C
:109FD000C81A8CEFD80A0D811E8130E020E0AE0156
:109FE00048555F4FBE01695D7F4FEE24E394C60183
:109FF0000E94AF188A8D9B8DAC8DBD8D892B8A2BCD
:10A000008B2B71F46E8D70E0CE010E946E4F81E05B
:10A01000DF91CF911F910F91EF90DF90CF90089536
:10A0200061E070E0CE010E946E4F4A8D5B8D6C8DB9
:10A030007D8DC6010E943818EACFFC01648170E072
:10A040000E946E4F81E008950F931F93CF93DF938B
:10A05000CDB7DEB708851985075F1F4F9E01245FC6
:10A060003F4F4A855B8561E870E0C8010E94038F1D
:10A070008DE396E20E94C617B8018AE591E10E943D
:10A08000E836DF91CF911F910F9108953F924F9243
:10A090005F926F927F928F929F92AF92BF92CF9278
:10A0A000DF92EF92FF920F931F93CF93DF9300D035
:10A0B00000D0CDB7DEB79C838B83742E622EF02E3A
:10A0C000FC01C18CD12C662321F064E070E00E9479
:10A0D0006E4FAB80BC80F2EBAF1AFCEFBF0A8B80F7
:10A0E0009C8088EA880E911CEB81FC81B796FA83EC
:10A0F000E9834B805C80F7ED4F1AFEEF5F0A8FEF2C
:10A10000C816D80609F489C0EB81FC810185128547
:10A1100023853485EF2CA40169817A81C5010E94D1
:10A12000AF1871101BC0FF24F3948F2D26960FB625
:10A13000F894DEBF0FBECDBFDF91CF911F910F917D
:10A14000FF90EF90DF90CF90BF90AF909F908F9057
:10A150007F906F905F904F903F900895EB81FC81CE
:10A160000585168527853089E655FE4FFE83ED83EC
:10A17000D40140E050E0BA0104171507260737075D
:10A1800009F46EC0ED81FE813190FE83ED83ED9088
:10A19000662039F0C201840F951FFC0180813822AE
:10A1A000E8223E1015C04F5F5F4F6F4F7F4FE4CFE7
:10A1B00061E070E08B819C810E946E4FEB81FC819D
:10A1C000428D538D648D758DC5010E943818ADCFB9
:10A1D000F1E0CF1AD10866E070E08B819C810E948B
:10A1E0006E4F64E070E08B819C810E946E4F61E055
:10A1F00070E08B819C810E946E4FEB81FC81428DCF
:10A20000538D648D758DC5010E94381864E070E02F
:10A210008B819C810E946E4F72CF772009F483CF8F
:10A22000EB81FC81ED5CFC4F8BE99FEF9183808398
:10A2300081E996E29F938F938B819C81845B9C4FF5
:10A240009A838983FC0181818F9380818F930E94FF
:10A2500024500F900F900F900F90712CF72C65CF1A
:10A26000FF20E1F3EB81FC81828D938DA48DB58D70
:10A27000892B8A2B8B2B09F09BCF678D70E0CF0148
:10A280000E946E4F52CF0F9301E020E041E060E06A
:10A290000E9446500F9108950F9300E020E041E0A6
:10A2A00060E00E9446500F9108950F9300E020E077
:10A2B00041E061E00E9446500F9108950F9301E044
:10A2C00020E040E060E00E9446500F9108950F9317
:10A2D00000E020E040E060E00E9446500F910895C9
:10A2E0000F9300E020E040E061E00E9446500F91B3
:10A2F00008950F9301E021E041E061E00E944650A3
:10A300000F9108954F925F926F927F928F929F92DA
:10A31000AF92BF92CF92DF92EF92FF920F931F9373
:10A32000CF93DF937C01DC011296CD91DC910E94EA
:10A33000C3164B015C01B8EB8B0EBBE09B1EA11C4E
:10A34000B11C88819981DC01ED91FC910084F1853B
:10A35000E02D1995181619063CF00E94C3166815D1
:10A3600079058A059B0568F388819981DC01ED9167
:10A37000FC910084F185E02D19958E0100571F4F47
:10A38000FE01E657FF4F5F01181619060CF060C07A
:10A3900088819981DC01ED91FC910284F385E02DA7
:10A3A00019956C01F80160817181828193816F5FE1
:10A3B0007F4F8F4F9F4F6083718382839383F5011B
:10A3C000808091805E01FEE8AF0EB11CD5010D9139
:10A3D0001C91940150E040E00E9447932801712CA9
:10A3E000612C641575058605970561F4C457DF4F28
:10A3F00088819981800F911FB4010E94C393F50158
:10A40000918380839FEFC916D90609F456C0F701DE
:10A41000E15DFC4F80819181A281B3818C0D911D02
:10A42000A11DB11D80839183A283B3838C2DDF9105
:10A43000CF911F910F91FF90EF90DF90CF90BF9041
:10A44000AF909F908F907F906F905F904F90089506
:10A45000D801FC901196EC9011971296DC9012970F
:10A4600013961C919F938F932081318150E040E09F
:10A470006F2D7E2D8D2D912F0E9447939F938F934B
:10A480007F936F93FE01E457FF4F81818F9380810B
:10A490008F931F93DF92EF92FF928FE396E29F9349
:10A4A0008F93DF93CF930E9424508DB79EB7409631
:10A4B0000FB6F8949EBF0FBE8DBF6EE676E28FEFAB
:10A4C0009FEF0E94B536CC24CA94DC2CAFCFCF923C
:10A4D000DF92EF92FF920F931F93CF93DF938C0144
:10A4E00069017A01EB0181E0C81AD108E108F1089D
:10A4F0008FEFC816D806E806F80629F0C8010E94B2
:10A5000082518993F0CFDF91CF911F910F91FF90EE
:10A51000EF90DF90CF900895CF93DF93EC012D85DE
:10A520003E854F855889BC01695D7F4F0E94675207
:10A530002D853E854F855889BE0166557E4FCE01DB
:10A540000E94675281E0DF91CF910895FC0125853B
:10A55000368547855089BC01695D7F4F0E946752EF
:10A5600081E00895CF92DF92EF92FF921F93CF93F5
:10A57000DF93EC010E94825190E0B0E0A0E0F82E61
:10A58000EE24DD24CC24CE010E948251E82ACE01A3
:10A590000E948251182FCE010E948251C82AC70101
:10A5A000B601712BDF91CF911F91FF90EF90DF905B
:10A5B000CF9008950C9482510F931F93CF93DF9304
:10A5C000EC018EEF92E0998388838A819B81FC0164
:10A5D000E057FF4F23812F9322812F9321812F93C7
:10A5E00020812F938E01015D1C4FF8012081219560
:10A5F0001F922F932EE935E03F932F939F938F93D4
:10A600000E9424508A819B81FC01E057FF4F2381E7
:10A610002F9322812F9321812F9320812F93F80153
:10A6200023812F9322812F9321812F9320812F9398
:10A630002CE835E03F932F939F938F930E942450F3
:10A64000FE01ED5CFC4F8DB79EB746960FB6F894B1
:10A650009EBF0FBE8DBF80819181892B39F48EA161
:10A66000811104C08CE99FEF918380838081918167
:10A6700068E475E0863FEFEF9E07C9F07CF462E284
:10A6800075E08B392FEF920791F062E375E08C391A
:10A69000EFEF9E0761F066E775E009C069E575E0D8
:10A6A0008F3F980721F06DE675E00097A1F7DF91E5
:10A6B000CF911F910F910C94B5362F923F924F92EC
:10A6C0005F926F927F928F929F92AF92BF92CF9242
:10A6D000DF92EF92FF920F931F93CF93DF93CDB74B
:10A6E000DEB72C970FB6F894DEBF0FBECDBF7C014E
:10A6F000DC01ED91FC910190F081E02D19955C0158
:10A70000D701ED91FC910280F381E02DC7011995ED
:10A710009A878987F5018081918100E010E020E02F
:10A7200030E040E050E060E070E00C960E94CF34F2
:10A7300019821A821B821C8249845A84F3ED4F1AB3
:10A74000FCEF5F0A69847A8427E2620E711C84EF51
:10A75000282E84E2382E89849A8437ED831A3EEFBE
:10A76000930A89819A81AB81BC810196A11DB11D9B
:10A7700089839A83AB83BC83D701ED91FC91C6801A
:10A78000D780F50100811181C8010C960E94E23545
:10A790002D833F834B875C87D801DC96ED91FC913C
:10A7A000309709F453C00089118922893389A4E6BE
:10A7B000B0E0A90198010E943C932D813F814B8517
:10A7C0005C850E944793B901C701F60119958985F7
:10A7D0009A850E94DA52182FD2018D919C9111977F
:10A7E00001968D939C9366E875E2183140F4E12F51
:10A7F000F0E0EE0FFF1FE05EFB4F60817181898505
:10A800009A850E945F4F183108F010C3E12FF0E0E5
:10A810008827E25FFB4A8F4F0C94EB933A54125512
:10A8200025554E555D55165716576F557E55BA55D9
:10A8300016571657D255E155F055FF550E561D5671
:10A840002C563B566E56A156D756F656F801A6AD75
:10A85000B7AD109751F00C9111961C91119712966B
:10A860002C91129713963C91A2CF00E010E020E0CB
:10A8700030E09DCF21E0E985FA8526A3DF01019034
:10A88000F081E02D0190F081E02DCD01199581112D
:10A8900068CFA985BA8596968C91E82FF0E0F88765
:10A8A000EF83882309F4DCC284E396E29F938F93BD
:10A8B000BF92AF920E9424508BE296E29F938F93B7
:10A8C000BF92AF920E94245082E296E29F938F93B0
:10A8D000BF92AF920E9424500FB6F894DEBF0FBE15
:10A8E000CDBFA985BA8512960D911C911397199623
:10A8F0004D905D906D907C901C9773016201B7E064
:10A90000CB0ED11CE11CF11C83E0F694E794D794A4
:10A91000C7948A95D1F784EA95E20E94C617C114BC
:10A92000D104E104F10409F4C9C229843A84E8EAB3
:10A930002E0E311C9801275F3F4F3A8729873E82B0
:10A940002D8289849A8401E810E0AD81BE818D91C9
:10A95000BE83AD831F928F93E1EBF4E0FF93EF93FF
:10A960001F930F939F928F920E94A2942D803E80FE
:10A9700033E0830E911C0350110981E0C81AD108FD
:10A98000E108F1080FB6F894DEBF0FBECDBF09F0A5
:10A9900086C229853A852115310529F0B9018AE554
:10A9A00091E10E944F3682EA95E20E94C6172AE0A2
:10A9B000B301A2018AE591E10E9469368CE995E232
:10A9C0000E9459363C813F938B818F939A819F934C
:10A9D000A981AF938FEA95E29F938F93BF92AF9235
:10A9E0000E9424500FB6F894DEBF0FBECDBF8F81FA
:10A9F00098852C960FB6F894DEBF0FBECDBFDF91C1
:10AA0000CF911F910F91FF90EF90DF90CF90BF906B
:10AA1000AF909F908F907F906F905F904F903F90FE
:10AA20002F900895E985FA852585368547855089D3
:10AA3000B401CF010E946752A985BA85ED91FC91BE
:10AA400011970280F381E02D20CF89859A850E949D
:10AA5000DA52482F50E0E985FA855683458390E025
:10AA6000B0E0A0E09C01AD01295F3F4F4F4F5F4F29
:10AA700013E056954795379527951A95D1F7308766
:10AA80002783B301CF010E946752A985BA85ED9152
:10AA9000FC9111970480F581E02DF7CE89859A8588
:10AAA0000E94A652882349F0A985BA85ED91FC91B0
:10AAB00011970680F781E02DE8CE89859A850E945E
:10AAC000B252E985FA85628F738F848F958FDF018B
:10AAD0000190F081E02D0084F185E02DD6CE8985AE
:10AAE0009A850E94DA52E985FA85818FDF0101900B
:10AAF000F081E02D0684F785E02DC7CE89859A8503
:10AB00000E94B252E985FA856187728783879487AC
:10AB10009B01AC01295F3F4F4F4F5F4FB3E056950C
:10AB2000479537952795BA95D1F725873687478773
:10AB3000508B223831054105510558F11F921F9263
:10AB4000B4E0BF93E8E0EF939F938F937F936F936D
:10AB50003F922F92A985BA8513968C9113978F9364
:10AB600012968C918F930E9424500FB6F894DEBFFA
:10AB70000FBECDBF89859A850E948C52882391F0A3
:10AB8000A985BA85ED91FC9111970288F389E02D92
:10AB90007CCEA985BA85ED91FC9111970088F18949
:10ABA000E02D73CE89859A850E94A652882349F0AC
:10ABB000A985BA85ED91FC911197008CF18DE02D5E
:10ABC00064CE89859A850E94A652882349F0A9857A
:10ABD000BA85ED91FC911197028CF38DE02D55CE45
:10ABE00089859A850E94A652882349F0A985BA854D
:10ABF000ED91FC911197048CF58DE02D46CE898561
:10AC00009A850E948C52882349F0A985BA85ED91D6
:10AC1000FC911197068CF78DE02D37CE89859A85AA
:10AC20000E948C52882349F0A985BA85ED91FC9148
:10AC3000119700A0F1A1E02D28CE89859A850E9468
:10AC40008C52882349F0A985BA85ED91FC91119722
:10AC500002A0F3A1E02D19CE89859A850E94DA52CF
:10AC6000E985FA858483DF010190F081E02D04A05D
:10AC7000F5A1E02D0ACE89859A850E94DA528823B3
:10AC800021F0813029F110E005C021E0E985FA8545
:10AC9000268F11E0A985BA855E96EC9163E876E28D
:10ACA000E03138F4F0E0EE0FFF1FE059FB4F608118
:10ACB000718189859A850E945F4F112379F0A9855A
:10ACC000BA85ED91FC91119706A0F7A1E02DDDCD9D
:10ACD000EDE0A985BA855E96EC93DBCF89859A85F0
:10ACE0000E94DA52882321F0813029F110E005C05A
:10ACF00021E0E985FA85278F11E0A985BA855F965D
:10AD0000EC9163E876E2E03138F4F0E0EE0FFF1FFB
:10AD1000E059FB4F6081718189859A850E945F4F60
:10AD2000112379F0A985BA85ED91FC91119700A4C2
:10AD3000F1A5E02DAACDE6E0A985BA855F96EC9352
:10AD4000DBCF89859A850E94825190E0182F0027D9
:10AD500089859A850E948251F801E82BCF01A98547
:10AD6000BA8516969C938E9315979C0150E040E00F
:10AD7000295F3F4F4F4F5F4F63E05695479537959B
:10AD800027956A95D1F718963C932E9317973327FA
:10AD900044275527B301CD010E946752A985BA8582
:10ADA000ED91FC91119702A4F3A5E02D6ECD89855C
:10ADB0009A850E94DA52A985BA85ED91FC91119786
:10ADC00006A4F7A5E02D882321F0682FCD01199561
:10ADD000EECF60E089859A851995A985BA85ED91B0
:10ADE000FC91119704A4F5A5E02D4FCD89859A8596
:10ADF0000E94DA52E985FA8580A3CF010E94DA52D7
:10AE0000A985BA8591968C939197CD010E94B252F3
:10AE1000E985FA8562A373A384A395A3DF0101905A
:10AE2000F081E02D00A8F1A9E02D2FCD1F921F93F6
:10AE300089859A858B5C9C4F9F938F9380E695E2E2
:10AE40009F938F93E985FA8583818F9382818F9376
:10AE50000E9424500FB6F894DEBF0FBECDBF19CDAF
:10AE600084E096E29F938F93BF92AF920E9424500A
:10AE70003C813F938B818F939A819F93A981AF935C
:10AE800088EE95E29F938F93BF92AF920E942450D9
:10AE90008AEC95E29F938F93BF92AF921BCD0630C1
:10AEA000110509F052CDE985FA85309709F447CDAF
:10AEB000BF018AE591E10E944F3641CD8AE995E2D2
:10AEC0000E94C61770CDCF93DF93EC010E94DC5235
:10AED000CE01DF91CF910C94CE8D0C94CE8D2F921C
:10AEE0003F924F925F926F927F928F929F92AF921A
:10AEF000BF92CF92DF92EF92FF920F931F93CF9367
:10AF0000DF93CDB7DEB7AC970FB6F894DEBF0FBEB8
:10AF1000CDBF8C016B01FA01DB018C91807D11F4B6
:10AF200080E018C1D8018C918111FACF8681978178
:10AF30000C966DE070E00E94C3936CA381858370D2
:10AF4000662463948111660E722E7F011CA70BA7E5
:10AF5000F6010680F781E02DFAA3E9A3C6010E945D
:10AF6000F3221DA21EA2812C912C10E000E01BA256
:10AF70009701265F3F4F3AA729A7D60150962D90FB
:10AF80003D904D905C90539765E05694479437946C
:10AF900027946A95D1F7510160E0C6010E947E387E
:10AFA000FC01892BB1F5F60181818111B9CF74FEC5
:10AFB000B7CF872D83708150823008F0B1CF112335
:10AFC00011F0ADA0BEA0161558F460E0C6010E94B5
:10AFD0007E38892B09F0E9C0F60181818111A0CF6B
:10AFE000012F10E0862C912C0815190508F0DFC000
:10AFF000C6010E941B44882309F492CFA9A1BAA1DB
:10B0000012968C91B0E18B9FC0011124080F191F7B
:10B01000EBCF9081953E11F091110EC0111102C03D
:10B020002DA23EA2161508F41F5F992309F4BFCF85
:10B03000953E29F400E0A1CF161508F44AC09E32CF
:10B04000C9F383858F3009F070C0011144C0292FE6
:10B050002F71922E3CA1321390CF96FF8ECF858414
:10B06000032F81E0981289CF80E2F601DE0111966C
:10B0700001900D928A95E1F7D7018D919C911197DE
:10B0800013969C938E93129744244394041508F4CA
:10B0900074CFB501CE0101960E94CF381C01892BD7
:10B0A00049F2F7010480F581E02DF8A7EFA3512CB8
:10B0B000652DC1010E947A14D7011296ED91FC9181
:10B0C0002FA138A5E217F30771F4892B09F455CFA6
:10B0D000B1CF10E0B4CF9A949911ACCF8585881583
:10B0E00009F4BFCFA7CF8038910508F0A3CF2FE98F
:10B0F000280F2A3108F480529F012F5F3F4FD7015C
:10B1000013963C932E93129790812FE9290F2A31A1
:10B1100008F4905298138ECF5394BDE05B12C8CFC1
:10B120004394E1E0AE1AB108B1CF83FD83CF002391
:10B1300051F121E09212F4CECF010E9445218811F5
:10B14000EFCE76FCEDCE272DA501B6018BA59CA5F3
:10B150000E942743AC960FB6F894DEBF0FBECDBF5A
:10B16000DF91CF911F910F91FF90EF90DF90CF90E3
:10B17000BF90AF909F908F907F906F905F904F9017
:10B180003F902F9008954BE050E069A57AA5CF013C
:10B190000E945894892B09F0F0CED70119968C9112
:10B1A00080FFCFCF31E03BA3E8CE1F5F0CCFEBA1F8
:10B1B000EE23E9F1D70118965C9042E6442E10E0A8
:10B1C00000E05EE7352E4701BAE08B0E911C0E942D
:10B1D000C316060F171FE3E0E51510F433E0532EF6
:10B1E00094E0950D802F8F708A3008F07EC0805DCE
:10B1F000F701E90FF11D828724E0169507952A953E
:10B20000E1F79150591670F3F701E50DF11D328603
:10B21000C6010E94F32261E0C6010E947E380097B9
:10B2200009F065C0D60111968C91811179CE0FEF8E
:10B23000060DA00EB11C80E2F601DE011196019010
:10B240000D928A95E1F74701FAE08F0E911CC40137
:10B250000E944521582ED7018D919C9111971396EC
:10B260009C938E93129711E0612C402E689446F8BF
:10B270008FE0382EB501011708F467C0611B710912
:10B28000CE0101960E94CF38FC01892B09F448CEEB
:10B29000AF81B88590968C919097816090968C93B1
:10B2A000842D0113812F8083338614865586138E57
:10B2B000128ED70114964D915C9160E0D7011296E1
:10B2C0002D913C9113972417350731F5662081F1B4
:10B2D00063942FEF3FEF653080F5328321836F5FFA
:10B2E00032966D3059F71F5FC5CF895C81CFFC0165
:10B2F0002081222309F49BCF238523FD8CCF4BE0B3
:10B3000050E0BC01C4010E945894892B09F083CFFE
:10B310004A9441105CCF04CEC901019613969C93C8
:10B320008E931297D9012C91022E000C330BD3CFA0
:10B3300030E020E066246394CECF6B3018F4358380
:10B340002483CDCF37832683CACFC6010E94CF384E
:10B35000009709F4E5CD20E2FC0111922A95E9F766
:10B360002BE0F401DC0101900D922A95E1F7D70161
:10B3700019962C912871FC01248721E236E5318B46
:10B38000208B318F208F338B228BA9A1BAA190966D
:10B390008C919097816090968C93D5CEDF92EF92AE
:10B3A000FF920F931F93CF93DF93CDB7DEB7E7974D
:10B3B0000FB6F894DEBF0FBECDBF7C018B015FAB33
:10B3C0004EABD22E19821A821B82FC018081882307
:10B3D00079F080E0E7960FB6F894DEBF0FBECDBFE0
:10B3E000DF91CF911F910F91FF90EF90DF90089523
:10B3F000FB018081807D69F3EEA9FFA980818F32F6
:10B40000D9F4EEA9FFA980818F3221F43196FFABE8
:10B41000EEABF7CFF80166817781811104C0C701D7
:10B420000E941B41D7CFCE0101960E941B41882369
:10B4300081F28E010F5F1F4FAE014A5C5F4FBE016C
:10B440006F5D7F4F8EA99FA90E949829882309F4D8
:10B45000C0CFEEA9FFA980818823B9F020E0AE011A
:10B460004F5D5F4FB801C7010E946F57882309F4F1
:10B47000B0CF80E2F701DE01119601900D928A951E
:10B48000E1F7C7010E944723D4CF2D2DAE014F5DB8
:10B490005F4FB801C7010E946F579CCF61157105BE
:10B4A00021F0655D7D4F0C94CE5980E00895CF93D7
:10B4B000DF93CDB7DEB7AF970FB6F894DEBF0FBE00
:10B4C000CDBFAC016091C7147091C81461157105AE
:10B4D00089F019821A821B8220E0CE0101960E9417
:10B4E0004E5AAF960FB6F894DEBF0FBECDBFDF91B8
:10B4F000CF9108956091C9147091CA1480E06115CC
:10B50000710579F31DA61EA61FA620E0CE010196A7
:10B510000E94A04BE6CFCF93DF93CDB7DEB7AF97B6
:10B520000FB6F894DEBF0FBECDBFAC016091C7145B
:10B530007091C81461157105B9F019821A821B82C5
:10B5400021E0CE0101960E944E5A882321F0CE01BF
:10B5500001960E943641AF960FB6F894DEBF0FBE3B
:10B56000CDBFDF91CF9108956091C9147091CA1435
:10B570006115710551F01DA61EA61FA621E0CE0182
:10B5800001960E94A04B811102C080E0E4CFCE0161
:10B5900001960E94CA288823C1F3DDCFDF92EF9283
:10B5A000FF920F931F93CF93DF9300918F10109111
:10B5B00090100115110549F480E0DF91CF911F91A2
:10B5C0000F91FF90EF90DF900895D42E7B01EC0156
:10B5D0000E94B128F801E05AFD4F60817181611528
:10B5E000710589F0188219821A82D9ABC8AB2D2D4A
:10B5F000A701CE010E944E5A882311F081E0DDCFD1
:10B6000019AA18AADACFF801EE59FD4F60817181AD
:10B610006115710589F21CA61DA61EA6DBABCAAB7F
:10B620002D2DA701CE010E94A04B8111E7CF1BAAAF
:10B630001AAAC3CF4F925F926F927F928F929F927E
:10B64000AF92BF92CF92DF92EF92FF920F931F9330
:10B65000CF93DF93CDB7DEB7C854D1090FB6F894B6
:10B66000DEBF0FBECDBF5C014B011C821B821EAA38
:10B670001DAA18AE1FAA8AEC92E09A83898340E043
:10B6800064E472E0CE0105960E94CE5A882309F444
:10B6900057C004E010E020E030E040E050E060E01F
:10B6A00070E0CE0105960E94CF3484E0C82ED12CE4
:10B6B000E12CF12C0E94C3166F73772788279927F6
:10B6C00021E0613271058105910508F420E0822FA7
:10B6D0000E94C33440E250E066EF70E1CE0105966F
:10B6E0000E947B3B809741F540E150E0BE01675CE2
:10B6F0007F4FCE0105960E947B3B4097E9F480E3A3
:10B70000C80ED11CE11CF11CCE01C9960E94578EB7
:10B710002C01990F6608770862E970E186EF90E1E5
:10B720000E947994892B41F5F501C082D182E28291
:10B73000F382F40151824082CE0105960E94B12825
:10B74000CE0101960E94392CC85BDF4F0FB6F894EA
:10B75000DEBF0FBECDBFDF91CF911F910F91FF9044
:10B76000EF90DF90CF90BF90AF909F908F907F90A1
:10B770006F905F904F9008958201930140E050E0F8
:10B7800060E070E0CE0105960E940F35811192CFE6
:10B79000D3CFDF92EF92FF920F931F93CF93DF935C
:10B7A000CDB7DEB7A0970FB6F894DEBF0FBECDBF02
:10B7B0008C01DB019C91907D09F496C07B0122E510
:10B7C000C8010E946F57882309F48EC081E0F801F8
:10B7D000828380E1D82ED082C8010E941B44882336
:10B7E00009F482C0F80184859585A685B785848F84
:10B7F000958FA68FB78FC8010E94F322C8010E94BF
:10B800000A23882309F470C061E0C8010E94232242
:10B81000FC01892B09F468C0D38680E2DE01119611
:10B8200001900D928A95E1F78EE28983FE013296AE
:10B83000CE010C9620E22193E817F907E1F7D80131
:10B840001696ED91FC9117975C964D915D916D91D7
:10B850007C915F974250510961097109848104C04C
:10B86000440F551F661F771F8A95D2F780899189EB
:10B87000A289B389480F591F6A1F7B1F21E0CF019E
:10B8800080960E94C71D009779F120E2FE01319653
:10B89000DC0101900D922A95E1F72EE22A83F7014F
:10B8A000448D558D668D778D7E8B6D8B5C8F4B8F28
:10B8B00020E2FE013196DC01909601900D922A95CE
:10B8C000E1F7D80116968D919C91A0960FB6F89449
:10B8D000DEBF0FBECDBFDF91CF911F910F91FF90C3
:10B8E000EF90DF900C94F82280E0A0960FB6F894C9
:10B8F000DEBF0FBECDBFDF91CF911F910F91FF90A3
:10B90000EF90DF900895DF92EF92FF920F931F93D5
:10B91000CF93DF93CDB7DEB7E7970FB6F894DEBFCE
:10B920000FBECDBF7C018B015FAB4EABD22E198217
:10B930001A821B82FC018081882379F080E0E796DF
:10B940000FB6F894DEBF0FBECDBFDF91CF911F9130
:10B950000F91FF90EF90DF900895FB018081807D33
:10B9600069F3EEA9FFA980818F32A9F4EEA9FFA99E
:10B9700080818F3221F43196FFABEEABF7CFF80127
:10B9800066817781CE0101960E941B418823B1F226
:10B990008E010F5F1F4FAE014A5C5F4FBE016F5DAE
:10B9A0007F4F8EA99FA90E949829882339F2EEA97A
:10B9B000FFA98081882319F120E0AE014F5D5F4F20
:10B9C000B801C7010E946F57882361F080E2F70138
:10B9D000DE01119601900D928A95E1F7C7010E9450
:10B9E0004723D6CFDD2009F4A9CFAE014F5D5F4FCD
:10B9F000B801C7010E94C95B8111E8CF9FCFAE019A
:10BA00004F5D5F4FB801C7010E94C95B98CFCF92CD
:10BA1000DF92EF92FF92CF93DF93CDB7DEB7CD5A8F
:10BA2000D1090FB6F894DEBF0FBECDBFAC016B01DC
:10BA3000E090C714F090C814E114F10409F45BC15C
:10BA4000C257DF4F1882CE58D040C157DF4F1882FF
:10BA5000CF58D040C057DF4F1882C059D04085ED35
:10BA6000E81A8DEFF80A20E0B701CE0182579F4F08
:10BA70000E94CE59882309F41FC118AA19AA1AAA2C
:10BA800019821A821B82C257DF4F8881CE58D0405C
:10BA9000887111F480E010C1CC56DF4F28813981C4
:10BAA000C459D040F701868197812817390791F74B
:10BAB000CE0182579F4F0E940A2380E2FE01E25787
:10BAC000FF4FDE01119601900D928A95E1F760E03B
:10BAD000CE0182579F4F0E942322FC01892BD1F275
:10BAE00090E2DE01A15ABF4F01900D929A95E1F7C5
:10BAF000C257DF4F8881CE58D04083FFEBC021E58D
:10BB0000A601B701CE01C0960E94CE59C12CD12CFE
:10BB10007601882309F4BECF28968CAD9DADAEADDD
:10BB2000BFAD2897CE55DF4F88839983AA83BB8307
:10BB3000C25AD0408CA99DA9CE56DF4F99838883E5
:10BB4000C259D0408BA9CF56DF4F8883C159D0400E
:10BB500088AD99ADAAADBBADCA56DF4F8883998336
:10BB6000AA83BB83C659D04018AA1AAA61E0CE01A5
:10BB700082579F4F0E942322009709F48BCFDC014C
:10BB80001D9623E1EFE5F0E0EC0FFD1F3D960190DF
:10BB90000D922A95E1F7AB962FADAB97FC01238769
:10BBA000C114D104E104F10409F46FC0CC56DF4F95
:10BBB000E881F981C459D0408481B701A60142507F
:10BBC00051096109710904C0440F551F661F771F91
:10BBD0008A95D2F780899189A289B389480F591F24
:10BBE0006A1F7B1F20E0CF0180960E94C71DFC01C9
:10BBF000892B09F44FCF90E2B096DE01A15ABF4FD6
:10BC000001900D929A95E1F7B701A601CC56DF4F4E
:10BC100088819981C459D0400E94F220882309F478
:10BC200039CFCC56DF4FE881F981C459D040C65591
:10BC3000DF4F488159816A817B81CA5AD040425086
:10BC4000510961097109848104C0440F551F661FA1
:10BC5000771F8A95D2F780899189A289B389480F85
:10BC6000591F6A1F7B1F21E0CF0180960E94C71DCC
:10BC7000DC01892B09F40ECF90E2FE01E15AFF4F5F
:10BC8000909601900D929A95E1F71D8E1E8E1F8E53
:10BC900018A282E08B8388E08983CE0101960E94FE
:10BCA0003641882309F4F6CECC56DF4F888199813E
:10BCB000C459D0400E94F822C355DF4F0FB6F89404
:10BCC000DEBF0FBECDBFDF91CF91FF90EF90DF9031
:10BCD000CF90089520E0A601B701CE01C0960E9442
:10BCE000835C882309F4D6CE6096CCACDDACEEAC98
:10BCF000FFAC609711CFE090C914F090CA14E11422
:10BD0000F10409F4C7CEC557DF4F1882CB58D04095
:10BD1000C457DF4F1882CC58D040C357DF4F18822A
:10BD2000CD58D040F1EDEF1AFDEFFF0A20E0B7014A
:10BD3000CE01815A9F4F0E941F4B882309F4AACE3F
:10BD40006D961FAE6D976E961FAE6E976F961FAE77
:10BD50006F971DA61EA61FA6C557DF4F8881CB581B
:10BD6000D040887109F496CEC158DF4F28813981BF
:10BD7000CF57D040F70180A191A12817390709F0CA
:10BD800089CE21E5A601B701CE01C0960E941F4BC6
:10BD9000882309F47FCE8FE2FE01E15AFF4FDE01D6
:10BDA000119601900D928A95E1F789E0FE01EE5A15
:10BDB000FF4FAFE5B0E0AC0FBD1F929601900D9222
:10BDC0008A95E1F76C968FAD6C97C657DF4F8883E5
:10BDD000CA58D040C357DF4F8881CD58D0408068C3
:10BDE000C357DF4F8883CD58D040CE01815A9F4F33
:10BDF0000E94FF27882309F44DCE1D8E1E8E1F8EB4
:10BE000018A282E08FA788E08DA7CE0101960E943C
:10BE1000CA28811151CF3ECE61E070E087ED9DE0F0
:10BE20000E94978EFF920F931F93CF93DF93CDB70E
:10BE3000DEB7C456D1090FB6F894DEBF0FBECDBF32
:10BE40008C01DB018C918F3289F17F936F9384E4B5
:10BE500092E09F938F9380EC9DE19F938F931F932C
:10BE60000F930E94D38E0FB6F894DEBF0FBECDBFE6
:10BE7000F80101900020E9F7BF016150710950E01D
:10BE800040E020E090E080E03EE2F32E0617170746
:10BE900009F49AC0FB013197223009F44FC0B8F47D
:10BEA000222311F12130D9F1BF01F0CF7F936F939D
:10BEB0008DEB9DE19F938F931F930F930E94D38EE1
:10BEC0000F900F900F900F900F900F90D1CF2330C5
:10BED00009F453C0243041F730813F3209F06DC07E
:10BEE0004150510949F1E0CF30813F3251F461E0D6
:10BEF00070E06C0F7D1F680F791FDB013C9301968A
:10BF0000D3CF3E3209F45CC061E070E06C0F7D1F5E
:10BF1000680F791FDB013C93019621E0C5CF30818A
:10BF200061E070E06C0F7D1F680F791FDB013C93AF
:10BF300001963F3209F0B8CF20E0B6CF20812F32F2
:10BF400029F414161506C4F724E0AECF2E32D1F131
:10BF500014161506CCF361E070E06C0F7D1F680FBE
:10BF6000791FDB01FC9262E070E06C0F7D1F680FAF
:10BF7000791FDB012C930296D0CF20812F32D1F094
:10BF800061E070E06C0F7D1F680F791FDB01FC9290
:10BF900062E070E06C0F7D1F680F791FDB01FC927F
:10BFA00063E070E06C0F7D1F680F791FDB012C933D
:10BFB0000396B3CF4F5F5F4FC7CF3E3209F074CFC8
:10BFC00022E072CF23E070CF141615067CF48FEFB9
:10BFD0009FEFCC59DF4F0FB6F894DEBF0FBECDBF39
:10BFE000DF91CF911F910F91FF900895FE0131963F
:10BFF0008E0F9F1FDC011C92DF010D900020E9F7DE
:10C00000CD0101978E1B9F0BE80FF91FD8013197C7
:10C010009D01261B370B281739071CF420812D930F
:10C02000F6CF97FF02C090E080E0800F911FFC01E7
:10C030001082F80101900020E9F7329780818F3259
:10C0400081F01F930F9389EB9DE19F938F931F9333
:10C050000F930E94D38E0F900F900F900F900F9020
:10C060000F9040E0B80189E195E10E94CE5A882303
:10C07000A1F089E195E10E94CC35882339F089E16E
:10C0800095E10E94B12881E090E0A3CF89E195E19C
:10C090000E94B1288EEF9FEF9CCF8DEF9FEF99CF3D
:10C0A0004F925F926F927F928F929F92AF92BF92C8
:10C0B000EF92FF921F93CF93DF93CDB7DEB7C054BB
:10C0C000D1090FB6F894DEBF0FBECDBF809192109C
:10C0D000833509F0C0C0809193108A3309F0BBC04A
:10C0E0000E94521464E970E182E990E10E94829416
:10C0F00080919210811106C067EB74E082E990E1B3
:10C100000E94829482E990E1FC0101900020E9F70D
:10C11000CF01835990418093DA0941E362E970E1EC
:10C1200089E895E10E94CE5A0E94C3166093CE0919
:10C130007093CF098093D0099093D109F12CE12C11
:10C1400010E090E2892E9EE4992EA12CB12C0E9441
:10C15000C3164090CE095090CF096090D0097090DE
:10C16000D1096419750986099709681579058A0541
:10C170009B0598F58AE591E10E944117892B39F3D7
:10C180000E94C3166093CE097093CF098093D009A3
:10C190009093D1098AE591E10E941F17E1E0F0E058
:10C1A000EC0FFD1FE10FF11D80831F3358F41F5F5B
:10C1B000FFEFEF1AFF0A88EE882E83E0982EA12C5D
:10C1C000B12CC5CF40E450E0BE016F5F7F4F89E8DE
:10C1D00095E10E943A3C10E0EBCF412F50E0BE01C8
:10C1E0006F5F7F4F89E895E10E943A3CA70170E0BC
:10C1F00060E02AE08AE591E10E94693660EC74E033
:10C200008AE591E10E94E83689E895E10E94B1282B
:10C2100080E288168EE49806A104B10421F487EB2D
:10C2200094E00E948B5A0E94521481E0C05CDF4F60
:10C230000FB6F894DEBF0FBECDBFDF91CF911F9137
:10C24000FF90EF90BF90AF909F908F907F906F90F6
:10C250005F904F90089580E0E9CF0E94EB4B809370
:10C26000F60D811106C067EC74E084E492E00C9452
:10C2700082940895CF92DF92EF92FF920F931F93D3
:10C28000CF93DF930E942D6180E00E94C3348091A0
:10C29000CB149091CC140E94851C0E940C922DEB23
:10C2A00037E346E05AE30E9449920E9478938B015B
:10C2B000D82FC92F0E94081F9B01AC01E091C71421
:10C2C000F091C8143097D1F18281682F70E090E02E
:10C2D00080E00E94A7930E940C922DEB37E346E08A
:10C2E0005AE30E9449920E9478936B017C01802F4F
:10C2F0000E94BA2B812F0E94BA2B8D2F0E94BA2B3D
:10C300008C2F0E94BA2B8C2D0E94BA2B8D2D0E944F
:10C31000BA2B8E2D0E94BA2B8F2D0E94BA2B80E053
:10C320000E94BA2B0E94AF2BDF91CF911F910F91EA
:10C33000FF90EF90DF90CF900C94CB2B8091C9149D
:10C340009091CA140097A1F0825D9D4FFC0160811D
:10C3500081E090E0A0E0B0E06C017D0104C0CC0C75
:10C36000DD1CEE1CFF1C6A95D2F7C701B601B1CFE8
:10C3700060E070E0CB01ADCFCF93DF93EC016EE2D4
:10C3800070E00E949794009739F0C817D90721F000
:10C390000196DF91CF91089584EA94E0FACFCF938C
:10C3A000DF93EC018991882349F0082E000C990B4A
:10C3B0000E945094FE0131978083F4CFDF91CF919A
:10C3C00008952F923F924F925F926F927F928F9239
:10C3D0009F92AF92BF92CF92DF92EF92FF920F9314
:10C3E0001F93CF93DF93CDB7DEB71C016B014DB622
:10C3F0005EB6FB0101900020E9F731977F01E61A54
:10C40000F70AC70101962DB73EB7281B390B0FB6A7
:10C41000F8943EBF0FBE2DBF8DB79EB701963C016D
:10C42000C701880F991FADB7BEB7A81BB90B0FB6D0
:10C43000F894BEBF0FBEADBF0DB71EB70F5F1F4F45
:10C4400043015B01F50181915F01082E000C990BFE
:10C450000E945094D4018D934D01C5018C199D0902
:10C46000E816F9067CF7F801718260827101CC242C
:10C47000C394D12CD7018D917D01F601E150F04894
:10C480005F01882309F475C0082E000C990B0E94E7
:10C490005094A601F501EE0FFF1FE00FF11F415070
:10C4A0005109A081B1819C9191110DC021E0C21A66
:10C4B000D108D601AA0FBB1FA00FB11F2D913C912F
:10C4C0003183208328C09A3209F047C0A081B1810E
:10C4D00011969C9111979A3221F41196B183A08301
:10C4E000F5CF981711F09F33B1F496015D0192E0FA
:10C4F000A90EB11C2115310509F453C02150310991
:10C50000B901660F771F600F711FDB016D917C9180
:10C510006A157B0579F732974115510509F0BFCFB0
:10C52000C114D10409F0A6CF80E00FB6F8945EBE26
:10C530000FBE4DBEDF91CF911F910F91FF90EF90F5
:10C54000DF90CF90BF90AF909F908F907F906F9033
:10C550005F904F903F902F9008959F3311F0981364
:10C5600004C01196B183A083D6CFB1E0CB1AD10815
:10C57000A0CFEE0FFF1FE00FF11F1C141D04A4F647
:10C5800021E0C21AD108A081B1818C918A3221F4B4
:10C590001196B183A083F7CF32978111EECF81E05E
:10C5A000C4CF9601220F331F200F311FD901AD9246
:10C5B000BC9296012F5F3F4F6901ADCFCF93DF93C0
:10C5C000CDB7DEB7EC970FB6F894DEBF0FBECDBF88
:10C5D000AE014E5B5F4FFA0161917191AF01CE01E7
:10C5E00001960E943C8FBE016F5F7F4F8AE591E10B
:10C5F0000E94E836EC960FB6F894DEBF0FBECDBFB2
:10C60000DF91CF910895AF92BF92CF92DF92EF92D8
:10C61000FF920F931F93CF93DF93CDB7DEB7CF5A1F
:10C62000D4400FB6F894DEBF0FBECDBF8E010059C7
:10C630001B4FD80113961C921E92129788EE93E01E
:10C64000A0E0B0E0F80184839583A683B78315AE9C
:10C6500014AE17AE16AE8CE993E09183808389EC1B
:10C6600094E09F938F938CEE94E29F938F937E013F
:10C67000F4EFEF1AFBEFFF0AFF92EF920E94D38EC6
:10C6800068012CE0C20ED11C40E0B701C6010E9437
:10C69000CE5A0F900F900F900F900F900F9088230D
:10C6A00009F4FEC1C6010E94B12888ED94E29F936F
:10C6B0008F930E94DE620F900F9028E2C22ED12C41
:10C6C00060E07FEF8FEF90E00E944F346AEF70E000
:10C6D00080E090E00E94911660E870E880EF90E0C2
:10C6E0000E944F346AEF70E080E090E00E94911663
:10C6F00031E0C31AD10821F789ECA82E84E0B82EC6
:10C70000BF92AF9280ED94E29F938F9396EFC92EE4
:10C7100090E1D92EDF92CF920E94D38EC6010E9463
:10C720008B5ABF92AF9287EC94E29F938F93DF92E4
:10C73000CF920E94D38EC6010E948B5ABF92AF92B5
:10C740008CEB94E29F938F93DF92CF920E94D38ED3
:10C75000C6010E948B5AB601C7010E94075D40E0E6
:10C76000B601C8010C960E94CE5A0FB6F894DEBFEF
:10C770000FBECDBF882309F458C184E893E09A83A3
:10C7800089831C830B831D828FE390E0C357DF4FA7
:10C7900099838883CD58D04087E290E0C157DF4F1E
:10C7A00099838883CF58D040CF56DF4F19821882A3
:10C7B000C159D040CD56DF4F188219821A821B8290
:10C7C000C359D04087E994E20E94C6178BE994E2EE
:10C7D0000E9459366E01B7E9CB0ED11C8EE693E06C
:10C7E000F6019183808368E0CE0187569F4F0E94B7
:10C7F000DB1969E0CE0181569F4F0E94DB196AE088
:10C80000CE018B559F4F0E94FE196BE0CE018555DE
:10C810009F4F0E94DB196CE0CE018F549F4F0E9406
:10C82000FE19C954DF4F1882C75BD040CE01855531
:10C830009F4F0E94BA199E012D5F3F4FC654DF4F94
:10C8400039832883CA5BD040C454DF4F1882CC5B45
:10C85000D040C354DF4F19821882CD5BD040C15401
:10C86000DF4F19821882CF5BD040CF53DF4F188241
:10C8700019821A821B82C15CD040CB53DF4F1882D1
:10C8800019821A821B82C55CD040C753DF4F1882C1
:10C8900019821A821B82C95CD040C353DF4F1882B1
:10C8A00019821A821B82CD5CD04080E2CF52DF4FCA
:10C8B0008883C15DD040CE52DF4F188219821A8220
:10C8C0001B82C25DD04041E0CA52DF4F4883C65D43
:10C8D000D040C952DF4F4883C75DD040C252DF4FBE
:10C8E0001882CE5DD040CB51DC4F19821882C55ED4
:10C8F000D340C951DC4F188219821A821B82C75E4D
:10C90000D340C551DC4F19821882CB5ED3408D8154
:10C9100081111DC0C157DF4F88819981CF58D04008
:10C92000CF56DF4F68817981C159D040860F971F5C
:10C93000C357DF4F68817981CD58D0400E94C3939F
:10C94000CF56DF4F99838883C159D0404D8384E30C
:10C9500093E0C854DF4F99838883C85BD040CC5F95
:10C96000DB4F39832883C450D440CA5FDB4F3983FF
:10C970002883C650D440C85FDB4FD982C882C850D4
:10C98000D440C65FDB4F1882CA50D440D601ED9127
:10C99000FC910088F189E02DC6011995811106C02E
:10C9A00069E674E286EF9FEF0E94B536C55FDB4F04
:10C9B0001882CB50D44080E993E09A838983CE01DA
:10C9C00001960E945D53892B09F44AC087EB94E2DB
:10C9D0009F938F930E94DE6289EC94E09F938F93E4
:10C9E0008FEA94E29F938F93FF92EF920E94D38EEF
:10C9F000C8010C960E94B128B70186EF90E10E9411
:10CA0000075D60E07FEF80E090E00E944F340FB65A
:10CA1000F894DEBF0FBECDBF84E893E09A8389838C
:10CA2000CE0188549F4F0E94DC528CE993E0D801DC
:10CA30008D939C93C8010C960E94B128C155DB4F81
:10CA40000FB6F894DEBF0FBECDBFDF91CF911F911F
:10CA50000F91FF90EF90DF90CF90BF90AF9008952F
:10CA600089EA94E29F938F930E94DE6289EC94E0BE
:10CA70009F938F9380EA94E29F938F93FF92EF921C
:10CA80000E94D38EC8010C960E94B128B70186EF90
:10CA900090E10E94075D60E070E08FEF90E0B5CF1D
:10CAA00060E07FEF80E090E00E944F34BECF809145
:10CAB00030021F928F938EE494E29F938F930E9493
:10CAC000DE620E94AF2B81E00E94BA2B0F900F9084
:10CAD0000F900F900C94CB2B4F925F926F927F929E
:10CAE000AF92BF92CF92DF92EF92FF920F931F937C
:10CAF000CF93DF930E94C31680E00E94C3340E944C
:10CB00002D610E94AF2B0E94A02BE82EC2E9D0E13C
:10CB1000F12CFE1469F00E94AF2B0E94A02BE82F8D
:10CB2000880FFF0BE25BFC4DE491E993F394F1CFA6
:10CB300082E990E1EF2DF0E0EE56FF4E1082F11009
:10CB40007EC02091CF0D1F922F939F938F9327E448
:10CB500033E23F932F939F938F930E94D38E8091C4
:10CB6000CF0D8F5F8093CF0D8DB79EB708960FB610
:10CB7000F8949EBF0FBE8DBF0E94AF2B0E94A02BCA
:10CB8000C82F809192108F3209F45CC064E472E087
:10CB900086EF90E10E94125F64E472E086EF90E11C
:10CBA0000E94829462E970E186EF90E10E946E94A7
:10CBB00086EF90E10E94575A811106C063ED74E040
:10CBC00086EF90E10E946E9440E066EF70E189E8A4
:10CBD00095E10E94CE5AA82E89E895E10E94E2359F
:10CBE000B22ED32FC22ED32E7A0100E010E020E027
:10CBF00030E040E050E060E070E089E895E10E94BC
:10CC0000CF34AA2051F0D701C6010197A109B1097B
:10CC100081159240A105B105E0F082E393E29F9374
:10CC20008F930E94DE620F900F90C5E081E0C816DE
:10CC300082E0D806E104F10418F5C1E021C01092A9
:10CC4000CF0D9ACF62E970E186EF90E10E94829465
:10CC5000AFCF86EF90E10E94BC610E94CF616C2F44
:10CC600070E0660F771F6153744F4B2D5D2F89E87D
:10CC700095E10E947B3B2C01990F66087708C0E084
:10CC80004C145D046E047F0408F4C8E089E895E163
:10CC90000E94B1288C2F0E94BA2B0E94AF2BDF91EB
:10CCA000CF911F910F91FF90EF90DF90CF90BF90A9
:10CCB000AF907F906F905F904F900C94CB2B4F92E2
:10CCC0005F926F927F929F92AF92BF92CF92DF92CC
:10CCD000EF92FF920F931F93CF93DF9380E00E9418
:10CCE000C3340E942D610E94AF2B0E94A02BD82F2D
:10CCF00002E910E1C0E0CD1779F00E94AF2B0E944D
:10CD0000A02BE82F880FFF0BE25BFC4DE491D801CC
:10CD1000ED938D01CF5FEFCFEC2FF0E0EE56FF4E9D
:10CD200010828091DB098111BCC0809192108F32FA
:10CD300009F47EC064E472E086EF90E10E94125F25
:10CD400064E472E086EF90E10E94829462E970E10F
:10CD500086EF90E10E946E9441E366EF70E189E80E
:10CD600095E10E94CE5AF82E0E94AF2B0E94A02B74
:10CD7000C82F0E94AF2B0E94A02B90E0982F8827ED
:10CD8000C80FD92FD11D00E010E020E030E040E0D6
:10CD900050E060E070E089E895E10E94CF34FF2028
:10CDA00019F0912C209751F48FE190E29F938F938B
:10CDB0000E94DE620F900F9099249394C12CD12C85
:10CDC00076012E010D2E000C66087708D301C201F2
:10CDD0008C199D09AE09BF098E010C191D098130FE
:10CDE0009240A105B10510F000E012E00E94C316C8
:10CDF0006F7377278827992721E0613271058105B4
:10CE0000910508F420E0822F0E94C33420E8A22E6E
:10CE10002EE0B22EC50180589E408017910778F40D
:10CE20000E94AF2B0E94A02BD5018D935D01F2CF04
:10CE300062E970E186EF90E10E9482948DCF9110BB
:10CE40000CC0A80160E87EE089E895E10E943A3CC8
:10CE50008017910710F497E0992EB2E0DB0EE11CE9
:10CE6000F11CC414D504E604F70408F4AFCF89E834
:10CE700095E10E94B128892D0E94BA2B0E94AF2B08
:10CE8000DF91CF911F910F91FF90EF90DF90CF90A6
:10CE9000BF90AF909F907F906F905F904F900C9459
:10CEA000CB2B8DE0982EE7CF4F925F926F927F92BF
:10CEB0008F929F92AF92BF92CF92DF92EF92FF92AA
:10CEC0000F931F93CF93DF9380917E0E882309F4F5
:10CED00049C00E948B3B8091EF0D9091F00DA09185
:10CEE000F10DB091F20D4C015D01BB0C8808982C3E
:10CEF0005401F091D209E091D309C090D409D090A7
:10CF0000D509E090D609F090D7090091D809109181
:10CF1000D9099C01AD01682D782D882D982DAF2E53
:10CF2000BE2E0E942E9408F4A3C010927E0E8BEFAA
:10CF300091E10E94B12880E00E9403348BEF91E1DF
:10CF4000DF91CF911F910F91FF90EF90DF90CF90E5
:10CF5000BF90AF909F908F907F906F905F904F9019
:10CF60000C94B1288091CA0B882379F10E94C316D2
:10CF70000091C50B1091C60B2091C70B3091C80BC7
:10CF8000601771078207930700F190915C0981E0B7
:10CF900089270E94C3340E94C3166093C50B709307
:10CFA000C60B8093C70B9093C80B83E392E10E945A
:10CFB000203C97FF1092C90B8136910509F483C07C
:10CFC0000CF067C0019609F4DAC001ED1DE0D0E075
:10CFD000C0E06FE5462E6EE1562E7CE8672E7EE1BE
:10CFE000772EE2E38E2EEEE19E2EF80180818823DB
:10CFF000C1F10E94C3169E01220F331F220F331F5F
:10D00000A9014E53564F6A01FA01208131814281B4
:10D010005381621773078407950718F1AE014C52CC
:10D02000524F7A01FA016081E62FF0E0EE0FFF1F08
:10D03000E153F44FA080B180B092C109A092C00921
:10D04000C5018827907C8115F0E49F0709F43CC155
:10D0500008F0B4C0892B09F4DCC0F70180818F5F30
:10D06000808321960F5F1F4FC330D10509F0BDCFDC
:10D07000DF91CF911F910F91FF90EF90DF90CF90B4
:10D08000BF90AF909F908F907F906F905F904F90E8
:10D0900008958236910509F43FC0803A910509F060
:10D0A00094CF83E392E10E94203CEC0197FD64C0A1
:10D0B00083E392E10E94203C97FD3DC0682F8C2FB6
:10D0C0000E94BF3082CF83E392E10E94203CEC01BA
:10D0D00083E392E10E94203C182F0E94C3166B014B
:10D0E0007C0120E0312F2C0F3D1FA8EEB3E00E9401
:10D0F000699324E43CEA40E050E00E944793C20E6A
:10D10000D31EE41EF51EC092C50BD092C60BE09252
:10D11000C70BF092C80B59CF0E94C3166F5E7F4FAA
:10D120008F4F9F4F6093C50B7093C60B8093C70BB7
:10D130009093C80B4ACF8EE19EE19F938F930E94FC
:10D14000DE620F900F908091C90B8F5F8093C90BA7
:10D150008B3008F43ACF83E392E10E94B128109219
:10D16000CA0B60E088E00E94BF3060E089E00E9466
:10D17000BF3060E08AE0A4CF87E09EE1DECF8091FF
:10D18000CB0B813069F400E011E020E030E040E0BA
:10D1900050E060E070E083E392E10E94CF3415CF6D
:10D1A00081EF9DE19F938F930E94DE628091C90B76
:10D1B0008F5F8093C90B0F900F90CACF811540E805
:10D1C000940721F08115904C09F047CFC5018827BD
:10D1D000907F8115F0E89F0709F4FAC28115904904
:10D1E00009F410C3F0E1AF16F0EABF0609F018C366
:10D1F000DF93CF931F926F937F926F920E94DE62B4
:10D20000F80110820F900F900F900F900F900F90D9
:10D2100024CF4A2D8B2D8F70950122273073211535
:10D2200090E13907A1F180F46A2D232BD1F1F801A7
:10D230001082BF92AF929F928F920E94DE620F90F7
:10D240000F900F900F9009CF2115F0E23F0761F189
:10D250002115304361F790E0FC01EE0FFF1FE80F4E
:10D26000F91FEC0FFD1FEE0FFF1FE05AF64F8081F4
:10D27000918150E070E060E0480F591F611D711D01
:10D28000DE01A35AB64F6C9351834083E6CEE82F5C
:10D29000F0E0E25EF44F60816A0DFE01E35AF64F62
:10D2A00010820E94BF30D9CE90E0FC01EE0FFF1F2C
:10D2B000E80FF91FEC0FFD1FEE0FFF1FE05AF64FAE
:10D2C000BB24B182A082C9CEC50188279077811581
:10D2D000F0E69F0721F1811520E7920709F447C086
:10D2E0008115904509F05AC04B2D4F70842F90E066
:10D2F000FC01EE0FFF1FE80FF91FEC0FFD1FEE0FF3
:10D30000FF1FE05AF64FA081B1812A2D30E00E9424
:10D3100069937183608321E0240F2F701BC02B2D34
:10D320002F70822F90E0FC01EE0FFF1FE80FF91F16
:10D33000EC0FFD1FEE0FFF1FE05AF64FB5017727E8
:10D34000808191810E94C39371836083E1E0E20F49
:10D35000EF702E2F30E0F901EE0FFF1FE20FF31FE9
:10D36000EC0FFD1FEE0FFF1FE05AF64F7CC08B2D18
:10D370008F7090E0FC01EE0FFF1FE80FF91FEC0F1C
:10D38000FD1FEE0FFF1FE05AF64F808191818A1931
:10D390009109DE01A35AB64F1C9265C02A2D2F7049
:10D3A000A50184E0569547958A95E1F74F70AA2428
:10D3B000A11457E4B50609F42EC108F057C0A11412
:10D3C00093E4B90609F46BC1B0F4A114F1E4BF060B
:10D3D00009F4A8C0A11452E4B50609F4B0C0A11420
:10D3E00080E4B80609F07EC0E22FF0E0E25EF44F80
:10D3F0006081842F56CFA11495E4B90609F4B5C015
:10D40000A114E6E4BE0609F4D6C0A114F4E4BF06F4
:10D4100009F068C050E0FA01EE0FFF1FE40FF51F9E
:10D42000EC0FFD1FEE0FFF1FE05AF64F8081918138
:10D4300030E0D901AA0FBB1FA20FB31FAC0FBD1F55
:10D44000AA0FBB1FA05AB64F2D913C91A90170E0C5
:10D4500060E0480F591F611D711DDE01A35AB64FD0
:10D460006C93820F931F91838083F7CDA1145BE4AB
:10D47000B50609F42FC158F5A11499E4B90609F4C9
:10D48000EFC0A114EAE4BE0609F409C1A114F8E44E
:10D49000BF0641F550E0FA01EE0FFF1FE40FF51F44
:10D4A000EC0FFD1FEE0FFF1FE05AF64F30E0D901E1
:10D4B000AA0FBB1FA20FB31FAC0FBD1FAA0FBB1F2C
:10D4C000A05AB64F8D919C9180959095CCCFA11488
:10D4D0005DE4B50609F43CC140F4A1149CE4B9062E
:10D4E00009F417C1F8011082B8CDA114EEE4BE060C
:10D4F00009F45AC1A114FFE4BF06A1F750E0FA01F4
:10D50000EE0FFF1FE40FF51FEC0FFD1FEE0FFF1FC7
:10D51000E05AF64F8081918102C0969587952A95B1
:10D52000E2F7A1CF30E0F901EE0FFF1FE20FF31F8A
:10D53000EC0FFD1FEE0FFF1FE05AF64F59CF50E0E2
:10D54000CA01880F991F840F951F8C0F9D1F880F8C
:10D55000991F805A964FE22FF0E0E25EF44F20814F
:10D5600030E0FC013183208378CD842F90E0FC01F2
:10D57000EE0FFF1FE80FF91FEC0FFD1FEE0FFF1F4F
:10D58000E05AF64F822F90E0DC01AA0FBB1FA80FD4
:10D59000B91FAC0FBD1FAA0FBB1FA05AB64F808189
:10D5A00091816D917C91861B970BDE01A35AB64F3A
:10D5B0001C9291838083842F90E0DE01A35AB64FA2
:10D5C00030E0F901EE0FFF1FE20FF31FEC0FFD1F1C
:10D5D000EE0FFF1FE05AF64F208131814C9150E051
:10D5E00070E060E0420F531F611D711DFC01EE0FE2
:10D5F000FF1FE80FF91FEC0FFD1FEE0FFF1FE05A92
:10D60000F64F80819181480F591F611D711D862F32
:10D6100081708C9339CE50E0FA01EE0FFF1FE40FBA
:10D62000F51FEC0FFD1FEE0FFF1FE05AF64F30E025
:10D63000D901AA0FBB1FA20FB31FAC0FBD1FAA0FAA
:10D64000BB1FA05AB64F808191812D913C91821BC6
:10D65000930BDE01A35AB64F2C91821B91099CCEED
:10D6600050E0FA01EE0FFF1FE40FF51FEC0FFD1F56
:10D67000EE0FFF1FE05AF64F30E0D901AA0FBB1F93
:10D68000A20FB31FAC0FBD1FAA0FBB1FA05AB64FEE
:10D69000808191812D913C9182239323E4CE30E0CF
:10D6A000F901EE0FFF1FE20FF31FEC0FFD1FEE0F4E
:10D6B000FF1FE05AF64F2081318150E0FA01EE0F52
:10D6C000FF1FE40FF51FEC0FFD1FEE0FFF1FE05AC9
:10D6D000F64F48CF50E0FA01EE0FFF1FE40FF51FA1
:10D6E000EC0FFD1FEE0FFF1FE05AF64F30E0D9019F
:10D6F000AA0FBB1FA20FB31FAC0FBD1FAA0FBB1FEA
:10D70000A05AB64F808191812D913C918227932719
:10D71000AACE842F90E0FC01EE0FFF1FE80FF91F47
:10D72000EC0FFD1FEE0FFF1FE05AF64F30E0D9015E
:10D73000AA0FBB1FA20FB31FAC0FBD1FAA0FBB1FA9
:10D74000A05AB64F208131810D90BC91A02DDFCD24
:10D75000842F90E0FC01EE0FFF1FE80FF91FEC0F84
:10D76000FD1FEE0FFF1FE05AF64F30E0D901AA0F60
:10D77000BB1FA20FB31FAC0FBD1FAA0FBB1FA05A28
:10D78000B64F808191816D917C910E94C3939C01E1
:10D790007183608381E0840F8F7090E0FC01EE0F55
:10D7A000FF1FE80FF91F8FCF50E0FA01EE0FFF1FA8
:10D7B000E40FF51FEC0FFD1FEE0FFF1FE05AF64FB1
:10D7C0008081918102C0880F991F2A95E2F74BCE84
:10D7D0008B2D8F7090E0FC01EE0FFF1FE80FF91FFB
:10D7E000EC0FFD1FEE0FFF1FE05AF64F8081918175
:10D7F000019791838083892B09F42FCC6A0DF7015F
:10D8000060832BCC0E94C316FFE0BF226A0D7B1DF4
:10D81000811D911DF60160837183828393831DCCEA
:10D82000C501807F8115904A89F4BB24F501EE0F74
:10D83000FF1FEA0DFB1DEC0FFD1FEE0FFF1FE05A4F
:10D84000F64FA080B1800E94C316E0CFC5018827A3
:10D850008115914A99F2F8011082BF92AF925F92BE
:10D860004F92EBCCCF93DF93CDB7DEB787ED9DE042
:10D870000E94758E80917F0E882341F110927F0E59
:10D880000E94C02C89E895E10E94B12881E595E1CC
:10D890000E94B12881EC95E10E94B12883E392E1D6
:10D8A0000E94B12889E195E10E94B1288091F50D8F
:10D8B000882309F442C0F09A64E670E080E090E0CA
:10D8C0000E9491161092D40D1092D10D81E00E9409
:10D8D000C3341092D00D0E940715892BD1F08FB15F
:10D8E00080932F021092330260E08FE00E942B158C
:10D8F00081E08093D00D8093330261E08FE00E943D
:10D900002B15809130028F3F21F480912F0280935C
:10D910003002809130028E3290F4E0913002F0E0DB
:10D92000EE0FFF1FE655FC4F0190F081E02D199599
:10D930000E945467DF91CF910895F098BDCF8091F8
:10D9400030028F3FA9F38FEF80933002F1CF8093A5
:10D9500008010E94AF2B0E9454670E940715892B73
:10D96000D1F360E08FE00E942B151ABC61E08FE0DC
:10D970000C942B150E9454670E940715892BD1F334
:10D9800060E08FE00E942B151ABC61E08FE00E94DE
:10D990002B158FB10895CF930E94AF2B0E94BA6CC4
:10D9A000C82F0E94AF2B8C2F63E00E94B793E92F02
:10D9B000F0E0EF52F24F81E08083CF910C94CB2BBB
:10D9C000CF930E94AF2B0E94BA6CC82F0E94AF2B3E
:10D9D0008C2F63E00E94B793E92FF0E0EF52F24FF3
:10D9E0001082CF910C94CB2BCF93DF930E94AF2B5F
:10D9F0000E94BA6C63E00E94B793C92FD0E0FE0189
:10DA0000EC52F24FDE01A453B44F8C9180830E94FC
:10DA1000AF2BCF52D24F1882DF91CF910C94CB2BEA
:10DA2000CF93DF930E94AF2B0E94BA6CD82F0E9435
:10DA3000AF2B0E94BA6CC82F0E94AF2B8D2F63E0D2
:10DA40000E94B793892F90E0FC01E453F44FC08308
:10DA5000FC01EC52F24FC0838F52924F21E0FC0147
:10DA60002083DF91CF910C94CB2BEF92FF920F93F9
:10DA70001F93CF93DF930E94AF2B0E942D610E94D2
:10DA8000BA6CC82F0E94AF2B0E94BA6C86952C2FBF
:10DA9000280F3327331F79010C2F10E00E151F05B7
:10DAA000BCF40E94AF2B0E94BA6CD82F0E94AF2BFF
:10DAB0000E94BA6C000F111FF801E153F44F90E07F
:10DAC000982F88278D0F911D91838083CF5FE4CF9E
:10DAD0000E94AF2BDF91CF911F910F91FF90EF909C
:10DAE0000C94CB2B0E94AF2B0E94BA6C8093CB0B73
:10DAF0000E94AF2B0C94CB2BEF92FF920F931F93AE
:10DB0000CF93DF9300D01F921F92CDB7DEB70E9454
:10DB10002D610E94AF2B0E94BA6C082F82E9E82E7B
:10DB200080E1F82E10E0101779F00E94AF2B0E94D0
:10DB3000BA6CE82F880FFF0BE25BFC4DE491D70134
:10DB4000ED937D011F5FEFCFE12FF0E0EE56FF4E2A
:10DB50001082809192108F3209F44EC064E472E01A
:10DB600086EF90E10E94125F64E472E086EF90E13C
:10DB70000E94829462E970E186EF90E10E946E94C7
:10DB800086EF90E10E94575A811106C068ED74E05B
:10DB900086EF90E10E946E941092C90B1092C50B13
:10DBA0001092C60B1092C70B1092C80B83E392E140
:10DBB0000E947C35882321F083E392E10E94B12802
:10DBC00040E066EF70E183E392E10E94CE5A81115A
:10DBD0001AC081E00E94BA2B0E94AF2B0E94CB2B6F
:10DBE0000F900F900F900F900F90DF91CF911F919A
:10DBF0000F91FF90EF90089562E970E186EF90E158
:10DC00000E948294BDCF44E050E0BE016F5F7F4F21
:10DC100083E392E10E947B3B1D82049741F46DED0A
:10DC200074E0CE0101960E947994892B31F083E350
:10DC300092E10E94B1288BE0CDCF00E011E020E01E
:10DC400030E040E050E060E070E083E392E10E9469
:10DC5000CF3480E00E94033480E00E94C33480E02F
:10DC6000B9CFCF93DF930E94AF2B0E94BA6CD82F0D
:10DC70000E94AF2B0E94BA6CC82F0E94AF2B8D2F31
:10DC800090E0D7FD08C08B5B944FFC01C083DF910F
:10DC9000CF910C94CB2B6C2F805891090E940F933D
:10DCA000F6CF0E94AF2B0E94BA6C282F30E087FD80
:10DCB0000AC02B5B344FF90180810E94BA2B0E946D
:10DCC000AF2B0C94CB2BC901805891090E9407936C
:10DCD000F4CF2F923F924F925F926F927F928F92EA
:10DCE0009F92AF92BF92CF92DF92EF92FF920F93EB
:10DCF0001F93CF93DF93CDB7DEB7CB5DD1090FB6BE
:10DD0000F894DEBF0FBECDBF0E94AF2B0E94BA6C4D
:10DD1000082F62E9E62E60E1F62E10E01017D9F028
:10DD20000E94AF2B0E94BA6CE82FF0E0E25BFC4D42
:10DD3000E49186528A3138F0D701EC931F5FFFEFF0
:10DD4000EF1AFF0AEBCF8E2FEE0F990B0E9448942B
:10DD5000F7018083F3CFE12FF0E0EE56FF4E108203
:10DD60000E94AF2B0E94BA6CF82E9E012F5F3F4F8E
:10DD700059018901802F8A198F15C8F40E94AF2B91
:10DD80000E94BA6CE82FF0E0E25BFC4DE491865211
:10DD90008A3128F0D801EC930F5F1F4FEBCF8E2F05
:10DDA000EE0F990B0E944894F8018083F5CFF5019E
:10DDB000EF0DF11D10820E94AF2B0E94BA6CD82E7D
:10DDC0008E010B591F4F78018E2D801B8D15D0F4BD
:10DDD0000E94AF2B0E94BA6CE82FF0E0E25BFC4D92
:10DDE000E49186528A3130F0D701EC93FFEFEF1ABD
:10DDF000FF0AEACF8E2FEE0F990B0E944894F7018D
:10DE00008083F4CFF801ED0DF11D108280E00E94B7
:10DE10000334C0901F02D12CCC0CDD1C0D2C000C47
:10DE2000EE08FF08E0912302E150FF0BEE0FFF1F09
:10DE3000EE51FD4F20813181A8EEB3E00E9469933D
:10DE4000A70196010E944793209313023093140276
:10DE50004093150250931602E0912702E150FF0B08
:10DE6000EE0FFF1FEE51FD4F20813181A8EEB3E090
:10DE70000E946993A70196010E944793209317027D
:10DE8000309318024093190250931A02E0912B022A
:10DE9000E150FF0BEE0FFF1FEE51FD4F208131814E
:10DEA000A8EEB3E00E946993A70196010E944793F0
:10DEB00020931B0230931C0240931D0250931E02BC
:10DEC0001092440B1092430B1092420B52E9E52E34
:10DED00050E1F52EF0923D0BE0923C0BB0923F0BDF
:10DEE000A0923E0B1093410B0093400B60E080E04A
:10DEF0000E94BF3060E081E00E94BF3060E082E0BD
:10DF00000E94BF3060E083E00E94BF3060E084E0A8
:10DF10000E94BF3060E085E00E94BF301092240B69
:10DF200068E387E00E94BF306FE088E00E94BF3066
:10DF30006FE089E00E94BF306FE08AE00E94BF304E
:10DF400060E08BE00E94BF3060E08CE00E94BF3058
:10DF500060E08DE00E94BF3010923B0B10923A0BB4
:10DF60001092390B1092380B1092370B1092360B1F
:10DF70001092350B1092340B1092330BD7010D9089
:10DF80000020E9F7CD018359904190932E0B8093A7
:10DF90002D0BF50101900020E9F73197EA19FB09F3
:10DFA000F093300BE0932F0BF80101900020E9F77C
:10DFB0003197E01BF10BF093320BE093310B109291
:10DFC000FD0D1092FC0D81E080932C0B83E39BE010
:10DFD000B82FB095C552DF4FB883CB5DD04080914C
:10DFE000330B882341F08091340B882321F08091FA
:10DFF000350B811127C4E6E3FBE0CB52DF4FF983F9
:10E00000E883C55DD04023E33BE0C952DF4F39834D
:10E010002883C75DD04010E000E09924939484E108
:10E02000882EC952DF4FA881B981C75DD0408D913C
:10E03000C952DF4FB983A883C75DD040811133C275
:10E040007801EE0CFF1CF701E45CF44FC080D18036
:10E05000CB52DF4FE881F981C55DD040208131810D
:10E06000CF52DF4F39832883C15DD040C8018E5B1A
:10E07000944F1C01F701E35DF44FA081B181C752B9
:10E08000DF4FB983A883C95DD040FC018081811135
:10E09000ABC12A173B070CF0C7C3F601E20FF31F11
:10E0A0008081482F082E000C550B8F3409F4FBC2D9
:10E0B0000CF05DC08A33D4F580330CF00AC384328F
:10E0C00009F486C144F4882309F489C1803209F433
:10E0D00086C11AE00EC2883209F49DC2893209F461
:10E0E000B4C28632B1F760E0F801E152FD4F8081A1
:10E0F0000E94BF30F701E85EF44F11821082D10117
:10E100009C920E94C316F801A3E0EE0FFF1FAA9590
:10E11000E1F7E050F54F9B01AC01608331838283CE
:10E120005383148215821682178259C1883484F46D
:10E1300081340CF062C38A3309F453C28D3349F63B
:10E14000F701E85EF44F81E090E09183808347C15E
:10E150008D3409F408C10CF042C1883409F0B9CFFC
:10E160009092350B9092340B9092330B38C18836D5
:10E17000B9F30CF0EBC0873509F408C20CF079C094
:10E18000853509F427C20CF0A2C1843509F0A1CF6E
:10E190002F5F3F4FCF52DF4F39832883C15DD0407F
:10E1A000BE016F527F4FC6010E94A94BAC0170E0C7
:10E1B00060E040931F02509320026093210270930D
:10E1C00022024C53510961097109453B5105610512
:10E1D000710508F08DC19927880F991F2C01712CAA
:10E1E000612CF3E2EF2EF2E0FF2EE3E1F2E0CD52FC
:10E1F000DF4FF983E883C35DD040D701EC91E15054
:10E20000FF0BEE0FFF1FEE51FD4F20813181A8EE75
:10E21000B3E00E946993A30192010E9447935901C0
:10E220006A01F701848195810D970CF48FC1CD525D
:10E23000DF4FA881B981C35DD040AD92BD92CD9230
:10E24000DC921397F4E0EF0EF11CCD52DF4F2881E2
:10E250003981C35DD0402C5F3F4FCD52DF4F3983B2
:10E260002883C35DD0408FE292E08E159F0529F68A
:10E27000B6C0883509F496C081360CF42ACFF70170
:10E28000E85EF44F6F01F701EC5FFD4F80818A304B
:10E2900008F089E08150990B6CE0689F9001699FBC
:10E2A000300D112449585D4FDA01EC91D6018C9163
:10E2B000E80FE20FF32FF11DEE0FFF1FEE5BFD4D98
:10E2C0002591349150E040E06AE87FE08BE190E0F6
:10E2D0000E941D9329013A01B8E04B0E511C611CAC
:10E2E000711C54E075946794579447945A95D1F7EC
:10E2F000642DF801EB52FD4F80810E94BF30452C08
:10E300005524642DF801EE52FD4F80810E94BF30EC
:10E31000F60111821082D1019C920E94C316F8016D
:10E32000A3E0EE0FFF1FAA95E1F7E050F54F9B0128
:10E33000AC016083318382835383148215821682F9
:10E340001782F801E05FFD4F6081FBC0843709F45C
:10E350001FCFECF48E3609F442C08F3609F4A3C106
:10E360008D3609F0B6CE2F5F3F4FCF52DF4F398346
:10E370002883C15DD040BE016F527F4FC6010E940D
:10E38000A94B6FE3681B87E00E94BF3028C0863727
:10E3900009F49DC00CF41EC1873709F4F7C0883713
:10E3A00009F097CE2F5F3F4FCF52DF4F398328833D
:10E3B000C15DD040BE016F527F4FC6010E94A94B84
:10E3C000F92E682F8BE00E94BF306F2D8CE0DCCFE0
:10E3D000F701E85EF44F2FEF3FEF31832083F10127
:10E3E0008081882309F420C20E94C316F80123E02B
:10E3F000EE0FFF1F2A95E1F7E050F54FC080D18066
:10E40000E280F3806C197D098E099F09F801EE0FF7
:10E41000FF1FEE0FFF1FED5EFD4FC080D180E28039
:10E42000F380C616D706E806F906F0F4CF52DF4FA0
:10E4300088819981C15DD0400196CF52DF4F998389
:10E440008883C15DD040D1011C9270E060E0C5526C
:10E45000DF4F8881CB5DD040C952DF4FB881C75DA7
:10E46000D0408B0F0E948530CF52DF4F8881998139
:10E47000C15DD040CB52DF4FE881F981C55DD0400E
:10E4800091838083C752DF4F28813981C95DD04095
:10E490008217930744F0C952DF4FE881F981C75DC5
:10E4A000D040319790820F5F1F4FCB52DF4F888152
:10E4B0009981C55DD0400296CB52DF4F9983888306
:10E4C000C55DD0400330110509F0ABCD88CD2F5F7D
:10E4D0003F4FCF52DF4F39832883C15DD040BE010B
:10E4E0006F527F4FC6010E94A94B8031910520F1E8
:10E4F00019E00E94C02C812F0E94BA2B0E94AF2BE2
:10E500000E94CB2BC552DF4F0FB6F894DEBF0FBE73
:10E51000CDBFDF91CF911F910F91FF90EF90DF90D2
:10E52000CF90BF90AF909F908F907F906F905F90B3
:10E530004F903F902F900895F801E05FFD4F80834A
:10E54000682FF801E152FD4F80811ECFE281E1503A
:10E55000FF0BEE0FFF1FEE51FD4F20813181A8EE22
:10E56000B3E00E946993A30192010E9447932A0D90
:10E570003B1D4C1D5D1DCD52DF4FE881F981C35D10
:10E58000D04020833183428353835CCE2F5F3F4F43
:10E59000CF52DF4F39832883C15DD040BE016F5217
:10E5A0007F4FC6010E94A94B883008F0A1CF98E0A8
:10E5B000EEEAF2E0DE01A753BF4F01900D929A956B
:10E5C000E1F7E9ECF0E0EC0FFD1FE80FF11D6081D1
:10E5D0008DE0DACEF801E152FD4F8081682F606155
:10E5E000D3CE2F5F3F4FCF52DF4F39832883C15D9A
:10E5F000D040F601E20FF31F9F012C193D098191D4
:10E600008A3311F08111F8CFCF52DF4F398328833D
:10E61000C15DD040E4CED701A65FBD4FED91FC9126
:10E6200011973196ED93FC93809EC001819E900DD1
:10E630001124DC01AC53B54FAE0FBF1F2C9388578C
:10E64000954FE80FF91F1082CACEF701E65FFD4F24
:10E650008081918197FF09C0AFEFBFEFCF52DF4FAD
:10E66000B983A883C15DD040BACE809E9001819EBF
:10E67000300D1124D901A857B54FA80FB91F4C91DF
:10E6800041110FC09C922C53354FF901E80FF91F2F
:10E69000808190E0CF52DF4F99838883C15DD04065
:10E6A0009ECE019752CD2F5F3F4FCF52DF4F398320
:10E6B0002883C15DD040BE016F527F4FC6010E94CA
:10E6C000A94B893308F005CDF701EC5FFD4F992781
:10E6D0003CCDBE016F527F4FC6010E94A94B8D30C9
:10E6E00008F006CFCF52DF4F28813981C15DD0407D
:10E6F0007C01FF2440901F02512C440C551C052C1A
:10E70000000C66087708F601E20FF31F81815801BB
:10E71000AA0CBB1CAA0CBB1C8D3209F051C02F5F88
:10E720003F4FCF52DF4F39832883C15DD040BE01B8
:10E730006F527F4FC6010E94A94BF501ED5DFD4F61
:10E74000F182E0829C013327CD52DF4F3983288349
:10E75000C35DD04033832283C5018D5E9D4F5C0134
:10E76000F701EE0FFF1FE052FD4F20813181A8EE2F
:10E77000B3E00E946993A30192010E94479369014B
:10E780007A01CD52DF4FE881F981C35DD040EE0FB1
:10E79000FF1FE052FD4F20813181A8EEB3E00E94BF
:10E7A0006993A30192010E9447932C0D3D1D4E1DBC
:10E7B0005F1DD5012D933D934D935C9313970FCE21
:10E7C000F501ED5DFD4FF182E0822FEF30E0338304
:10E7D0002283C5018D5E9D4F5C01F701EE0FFF1F87
:10E7E000E052FD4F20813181A8EEB3E00E94699391
:10E7F000A30192010E944793DCCFF701E85EF44F3A
:10E800006F01F701EC5FFD4F80818F5F8A3008F068
:10E8100089E08150990B6CE0689F9001699F300DF1
:10E82000112449565D4F40CDCF52DF4F88819981E9
:10E83000C15DD0400196CF52DF4F99838883C15D7F
:10E84000D04012CE0E94C02C10E055CE0E94AF2BBB
:10E850000E94BA6C8E3058F4E82FF0E0E25EF44F7C
:10E8600080810E94BA2B0E94AF2B0C94CB2B80E0AE
:10E87000F8CFCF930E94AF2B0E94BA6CC82F0E9492
:10E88000AF2B0E94BA6C682F8C2F0E94BF300E9461
:10E89000AF2BCF910C94CB2B4F925F926F927F92C4
:10E8A0008F929F92AF92BF92CF92DF92EF92FF92A0
:10E8B0000F931F93CF93DF930E942D610E94AF2B84
:10E8C0000E94BA6CF82E0CE41AE0C0E0CF15C9F033
:10E8D0000E94AF2B0E94BA6CD82F482F50E070E0F6
:10E8E00060E02AE08AE591E10E94693662EA74E01C
:10E8F0008AE591E10E944F36F801D1938F01CF5FF5
:10E90000E5CF8C2F90E0FC01E45BF54F108201967F
:10E91000FC01E45BF54F10821092F40D1092F30DA0
:10E92000109203021092020290934B0A80934A0ABB
:10E9300081E00E94033481EE94E10E947C358823BB
:10E9400021F081EE94E10E94B12840E062EE74E093
:10E9500081EE94E10E94CE5A1092030210920202BC
:10E9600084EE809331020E948632811102C00E949F
:10E970006C320E948632811106C00E94863281115B
:10E9800002C00E946C32C091F30DD091F40D20971B
:10E9900009F46BC0D09131026C2F8D2F0E9453323D
:10E9A0004B015C016C2F6F5F8D2F0E9453322B0146
:10E9B0003C016C2F8D2F0E945332C090EF0DD090F0
:10E9C000F00DE090F10DF090F20D461A570A680A2A
:10E9D000790A840C951CA61CB71C8C189D08AE08DF
:10E9E000BF08FFEF8F1A9F0AAF0ABF0AD701C601FF
:10E9F000BB0F880B982FDC01C091480AD091490ABF
:10EA0000860121E0821622E09206A104B1040CF4F2
:10EA100052C09701482F582F682F782F81EE94E12C
:10EA20000E94CF346091460A7091470A6C0F7D1F97
:10EA300040E052E081EE94E10E947B3B82E0D80E00
:10EA4000E11CF11CC092EF0DD092F00DE092F10D9F
:10EA5000F092F20D8091460A9091470A9E5F909342
:10EA6000470A8093460A0E94D533209102023091D2
:10EA7000030280914A0A90914B0A2817390709F03E
:10EA800072CF80E00E94033480E00E94BA2B0E9483
:10EA9000AF2BDF91CF911F910F91FF90EF90DF90FF
:10EAA000CF90BF90AF909F908F907F906F905F902E
:10EAB0004F900C94CB2B9701482F582F682F782F0D
:10EAC00081EE94E10E94CF346091460A7091470A2A
:10EAD0006C0F7D1FA40181EE94E10E947B3BC80C6A
:10EAE000D91CEA1CFB1CC092EF0DD092F00DE092F5
:10EAF000F10DF092F20D8091460A9091470A880E2E
:10EB0000991E9092470A8092460AADCFCF92DF922B
:10EB1000EF92FF920F931F93CF93DF93CDB7DEB7A2
:10EB2000C456D1090FB6F894DEBF0FBECDBF0E9408
:10EB3000AF2B0E94BA6C182F0E94AF2B0E94BA6CA8
:10EB400090E0982F8827810F911D9093450A80931C
:10EB5000440A892B39F564E472E0CE0101967C0108
:10EB60000E948294F70101900020E9F731978F010C
:10EB70000E191F09802F0E94BA2B67011127C601A9
:10EB80008E199F09801791070CF09BC0D601ED915B
:10EB90006D010E2E000CFF0BEE5BFE4D84910E946A
:10EBA000BA2BEDCF40E060EE79E081EC95E10E9478
:10EBB000CE5A811123C0198211E081EC95E10E94A7
:10EBC0007C35882321F081EC95E10E94B128812FCA
:10EBD0000E94BA2B0E94AF2B0E94CB2BCC59DF4F47
:10EBE0000FB6F894DEBF0FBECDBFDF91CF911F915E
:10EBF0000F91FF90EF90DF90CF9008958091440A9D
:10EC00009091450A81509048880F991F209180105B
:10EC100030918110820F931FFC014081518170E07F
:10EC200060E020E081EC95E10E94E9498E010F5FF0
:10EC30001F4F882309F447C0B80189E895E10E9475
:10EC4000EE4189E895E10E94CC358823B9F0B801FE
:10EC500086EF90E10E94829486EF90E19F938F93DC
:10EC60008AEF94E09F938F931F930F930E94DF94FA
:10EC70000F900F900F900F900F900F90F801019050
:10EC80000020E9F731977F01E01AF10A8E2D0E94EA
:10EC9000BA2B6801FF24C601801B910B8E159F05BE
:10ECA00064F4D601ED916D010E2E000CFF0BEE5BAE
:10ECB000FE4D84910E94BA2BEECF89E895E10E9427
:10ECC000B12810E07ACF80E00E94BA2BB80181EC25
:10ECD00095E10E94EE41F5CFEF92FF920F931F93C3
:10ECE000CF93DF93CDB7DEB7C456D1090FB6F894F2
:10ECF000DEBF0FBECDBF0E94AF2B0E94BA6C182F93
:10ED00000E94AF2B0E94BA6C90E0982F8827810F49
:10ED1000911D9093450A8093440A40E060EE79E0AB
:10ED200081EC95E10E94CE5A811125C0198210E034
:10ED300001E081EC95E10E947C35882321F081EC93
:10ED400095E10E94B128812F0E94BA2B802F0E944A
:10ED5000BA2B0E94AF2B0E94CB2BCC59DF4F0FB6A2
:10ED6000F894DEBF0FBECDBFDF91CF911F910F9101
:10ED7000FF90EF900895F090440A81EC95E10E9495
:10ED80007C35E82E1AAA19AA1CAA1BAA80918F10FA
:10ED9000909190108E010F5F1F4F0097A1F0FC0122
:10EDA000E05AFD4F20813181232BB1F119821A8263
:10EDB0001B821AAB09ABE0918B10F0918C1030974D
:10EDC000B9F41AAA19AAC8010E94B128B80189E8A1
:10EDD00095E10E94EE41F80101900020E9F731979A
:10EDE0001E2F101B89E895E10E94B12800E0A1CFF9
:10EDF000E55DFD4F80E2D80101900D928A95E1F723
:10EE0000C8010E94F3224E2D50E070E060E02F2DEB
:10EE1000C8010E94E949D7CF8E599D4FFC018081DE
:10EE20009181892B81F21DA61EA61FA61CAB0BABE0
:10EE3000E0918D10F0918E10309761F0E15DFD4F03
:10EE40008FE2D80101900D928A95E1F7C8010E94E6
:10EE50007229D9CF1CAA1BAAB6CFAF92BF92CF926C
:10EE6000DF92EF92FF920F931F93CF93DF93CDB773
:10EE7000DEB7CC52D1400FB6F894DEBF0FBECDBF87
:10EE80000E942D610E94AF2B0E94BA6C082F62E98C
:10EE9000E62E60E1F62E10E0101771F00E94AF2B05
:10EEA0000E94BA6CE82FF0E0E25BFC4DE491D701E0
:10EEB000ED937D011F5FF0CFE12FF0E0EE56FF4EA6
:10EEC000108262E970E18E010F5F1F4FC8010E943E
:10EED000125F40E0B80181EC95E10E94CE5AF82E15
:10EEE000882329F081EC95E10E94CC35F82E81EC45
:10EEF00095E10E947C35882321F081EC95E10E9408
:10EF0000B128FF2009F451C0B80180EE99E00E94B9
:10EF100082946FEF74E0CE0187539F4F0E948294DA
:10EF200080E00E94C3347E01F9ECEF0EF11CD701A2
:10EF30008C91811105C06FEF74E0C7010E9482942B
:10EF400040E060EE79E081EC95E10E94CE5A8111BB
:10EF50007EC08DE291E29F938F930E94DE620F90BC
:10EF60000F9011E081EC95E10E947C35882321F01F
:10EF700081EC95E10E94B128812F0E94BA2B0E945A
:10EF8000AF2B0E94CB2BC45DDE4F0FB6F894DEBFD3
:10EF90000FBECDBFDF91CF911F910F91FF90EF90EA
:10EFA000DF90CF90BF90AF90089582E990E19F935A
:10EFB0008F9384E492E09F938F938DE391E29F93EC
:10EFC0008F931F930F930E94D38EF801019000201E
:10EFD000E9F73197E01BF10B6F01B1E0CB1AD108D3
:10EFE0000FB6F894DEBF0FBECDBF9FEFC916D9068E
:10EFF00059F1D801AC0DBD1D2C912F3209F5AFEFA1
:10F00000CA1ADA0A7F01EC18FD085801AC0CBD1CC5
:10F01000A701B501CE0187539F4F0E946594E9EC8B
:10F02000F0E0EC0FFD1FEE0DFF1D1082CD2811F05A
:10F03000F5011082B80180EE99E00E94125F70CF56
:10F04000B1E0CB1AD108D1CFD12CC12CDBCFFF92AC
:10F05000EF9280EE99E09F938F938AE191E29F93E4
:10F060008F931F930F930E94D38E0FB6F894DEBF39
:10F070000FBECDBF10E000E00E94CC4A882309F407
:10F080005CC00E94C3166F7377278827992721E0F9
:10F09000613271058105910508F420E0822F0E94FC
:10F0A000C334BE016B597F4F89E895E10E94EE4160
:10F0B00089E895E10E94CC3581110CC0B701CE01E1
:10F0C0008B599F4F0E94E161811104C0D7018C913F
:10F0D000811119C00F3F110509F0A8F4E091B9158D
:10F0E000F091BA153097A1F0848195819801220F93
:10F0F000331FE0918010F0918110E20FF31F918394
:10F1000080830F5F1F4F89E895E10E94B128B4CF3B
:10F11000E091BB15F091BC1580E090E0DC013097E8
:10F1200029F386A197A1A0A5B1A555E0B695A7950D
:10F13000979587955A95D1F7D9CF10E013CFEF92D5
:10F14000FF920F931F93CF93DF93CDB7DEB7C456D3
:10F15000D1090FB6F894DEBF0FBECDBF0E942D615E
:10F1600080E00E94C3348091DC099091DD09A09178
:10F17000DE09B091DF09892B8A2B8B2B91F48091CA
:10F18000CB149091CC140E94851C96958795779509
:10F1900067956093DC097093DD098093DE09909395
:10F1A000DF090E94081F9B01AC01E091C714F09198
:10F1B000C814309709F449C08281682F70E090E04C
:10F1C00080E00E94A793DC01CB01B695A7959795A7
:10F1D0008795BF93AF939F938F938091DF098F9310
:10F1E0008091DE098F938091DD098F938091DC09F6
:10F1F0008F938EEF90E29F938F938E010F5F1F4F3F
:10F200001F930F930E94D38E0E94AF2B0FB6F894DA
:10F21000DEBF0FBECDBFF80181918F01882309F4B5
:10F2200040C00E94BA6C8D3071F180933002CC598D
:10F23000DF4F0FB6F894DEBF0FBECDBFDF91CF9189
:10F240001F910F91FF90EF9008958091C9149091B4
:10F25000CA140097A1F0825D9D4FFC01608181E09E
:10F2600090E0A0E0B0E07C018D0104C0EE0CFF1C3A
:10F27000001F111F6A95D2F7C801B701A2CF60E045
:10F2800070E0CB019ECFF8013197E0810E2E000C8B
:10F29000FF0BEE5BFE4D84910E94BA2B0E94AF2BB8
:10F2A000BACF0E94BA6C8D3009F0BFCF8FEF0E94A9
:10F2B000BA2B80E00E94BA2B0E94AF2B0E94CB2B6E
:10F2C000B6CF2F923F924F925F926F927F928F9222
:10F2D0009F92AF92BF92CF92DF92EF92FF920F93E5
:10F2E0001F93CF93DF93CDB7DEB7C05AD1400FB68F
:10F2F000F894DEBF0FBECDBF0E942D610E94AF2BE0
:10F300000E94BA6C082F0E94AF2BE2E9EE2EE0E1DA
:10F31000FE2E10E0101771F00E94BA6CE82FF0E09A
:10F32000E25BFC4DE491D701ED937D010E94AF2B90
:10F330001F5FF0CFE12FF0E0EE56FF4E108280917C
:10F34000DB09FE0131967F01882309F44EC19E013D
:10F35000235D3E4F59016FEF74E0112311F062E914
:10F3600070E1C5010E9482948E0107531F4F64E42F
:10F3700072E0C8010E948294BF92AF921F930F93D4
:10F380008BEE90E29F938F93FF92EF920E94D38E29
:10F390000FB6F894DEBF0FBECDBF6701D6018D91C9
:10F3A0006D018823A9F00E94BA6C8D3019F080930A
:10F3B0003002F3C0F6013197E0810E2E000CFF0BF6
:10F3C000EE5BFE4D84910E94A76C0E94AF2BE6CFAE
:10F3D0006AE0C62ED12C79ED872E70E2972E40E0A0
:10F3E000B80189E895E10E94CE5A811114C01F939B
:10F3F0000F939F928F920E94DE626AE070E080E03D
:10F4000090E00E949116B1E0CB1AD1080F900F90B6
:10F410000F900F9021F789E895E10E947C358111CA
:10F42000ADC01F930F9387EC90E29F938F930E9440
:10F43000DE620F900F900F900F9004E010E020E03C
:10F4400030E040E050E060E070E089E895E10E9443
:10F45000CF34D12CC12C4E01E5E68E0E911C59EA19
:10F46000252E50E2352E0E94C3166F73772788270A
:10F47000992721E0613271058105910508F420E0AA
:10F48000822F0E94C33440E250E0B40189E895E144
:10F490000E947B3B809709F040C040E150E0BE01F4
:10F4A0006F567E4F89E895E10E947B3B4097A9F516
:10F4B000CE018F569E4F0E94578E2C01990F6608E1
:10F4C0007708B501C4010E94E1618823D1F07F92E1
:10F4D0006F925F924F929F928F923F922F92FF92E4
:10F4E000EF920E94D38E0FB6F894DEBF0FBECDBF51
:10F4F0008701D8018D918D01811145C0BFEFCB1AD5
:10F50000DB0A8201930140E050E060E070E089E8AE
:10F5100095E10E940F358111A6CF89E895E10E94FF
:10F52000B128B12CA12C10E0DF92CF92BF92AF9204
:10F530008FE290E29F938F93FF92EF920E94D38E7F
:10F540000FB6F894DEBF0FBECDBFD7018D917D0100
:10F55000882309F4E4C10E94BA6C8D3009F027CFEA
:10F56000F7013197E0810E2E000CFF0BEE5BFE4D94
:10F5700084910E94A76C0E94AF2BE7CF1F930F933B
:10F5800085EB90E252CF0E94BA6C8D3001F18093EE
:10F59000300289E895E10E94B128C056DE4F0FB6CF
:10F5A000F894DEBF0FBECDBFDF91CF911F910F91B9
:10F5B000FF90EF90DF90CF90BF90AF909F908F9093
:10F5C0007F906F905F904F903F902F900895F8013B
:10F5D0003197E0810E2E000CFF0BEE5BFE4D849107
:10F5E0000E94A76C0E94AF2B84CF62E970E1CF012B
:10F5F0000E94125F0AE010E047E9C42E40E2D42ED8
:10F6000040E0B70181EC95E10E94CE5A811113C010
:10F61000FF92EF92DF92CF920E94DE626AE070E08A
:10F6200080E090E00E949116015011090F900F9018
:10F630000F900F9029F781EC95E10E947C35182FEF
:10F64000882329F081EC95E10E94CC35182F81ECBC
:10F6500095E10E94B128112309F45CC0B701CE01E5
:10F6600087539F4F0E9482946FEF74E0CE01835DB9
:10F670009E4F0E94829480E00E94C3344E01F3EDBD
:10F680008F1AFEEF9F0AD4018C91811105C06FEF94
:10F6900074E0C4010E9482942AE0C22ED12C8E0113
:10F6A00007531F4F30E8A32E30E2B32E40E0B801DD
:10F6B00081EC95E10E94CE5A811114C01F930F93E3
:10F6C000BF92AF920E94DE626AE070E080E090E05C
:10F6D0000E949116B1E0CB1AD1080F900F900F90B5
:10F6E0000F9021F781EC95E10E947C35811165C076
:10F6F00080E790E29F938F930E94DE620F900F90BD
:10F70000B12CA12CD12CC12C11E081EC95E10E94EF
:10F71000B1280ACF82E990E19F938F9384E492E02D
:10F720009F938F9382E990E29F938F93FF92EF9242
:10F730000E94D38EF70101900020E9F73197EE196E
:10F74000FF096F0121E0C21AD1080FB6F894DEBF9D
:10F750000FBECDBF9FEFC916D90661F1D701AC0D21
:10F76000BD1D2C912F3211F5AFEFCA1ADA0A8F01A5
:10F770000C191D095701AC0CBD1CA801B501CE0127
:10F78000835D9E4F0E946594EDE2F1E0EC0FFD1F5A
:10F79000E00FF11F1082CD2811F0F5011082B701A2
:10F7A000CE0187539F4F0E94125F65CFB1E0CB1A05
:10F7B000D108D0CFD12CC12CDACF9F928F921F933A
:10F7C0000F938DE590E29F938F93FF92EF920E94AB
:10F7D000D38E0FB6F894DEBF0FBECDBF8701D80120
:10F7E0008D918D01882399F00E94BA6C8D3009F0BB
:10F7F000DECDF8013197E0810E2E000CFF0BEE5BA1
:10F80000FE4D84910E94A76C0E94AF2BE8CFB12CD3
:10F81000A12CD12CC12C8E010B591F4F89E5282E0C
:10F8200080E2382E9DE4492E90E2592E0E94CC4A67
:10F83000882309F472C00E94C3166F737727882744
:10F84000992721E0613271058105910508F420E0D6
:10F85000822F0E94C334B80189E895E10E94EE41ED
:10F8600089E895E10E94CC35811123C0B401C8011B
:10F870000E94E161811104C0F4018081811148C0BE
:10F880002FEFC21AD20A89E895E10E94E2355F9310
:10F890004F933F932F931F930F935F924F92FF923B
:10F8A000EF920E94D38E0FB6F894DEBF0FBECDBF8D
:10F8B00016C067EC74E0C8010E946E94FFEFAF1AA7
:10F8C000BF0A1F930F933F922F92FF92EF920E94D5
:10F8D000D38E0F900F900F900F900F900F903701D5
:10F8E000D3018D913D01882399F00E94BA6C8D302F
:10F8F00009F05DCDF3013197E0810E2E000CFF0B76
:10F90000EE5BFE4D84910E94A76C0E94AF2BE8CF66
:10F9100089E895E10E94B12889CF10E0F6CE0E94D7
:10F92000BA6C8D3009F043CD8FEF0E94BA2B812F36
:10F930000E94BA2B0E94AF2B0E94CB2B2ECE7F921F
:10F940008F929F92AF92BF92CF92DF92EF92FF92EF
:10F950000F931F93CF93DF93CDB7DEB7C456D10972
:10F960000FB6F894DEBF0FBECDBF80E00E94C33457
:10F970000E942D610E94AF2B87EB94E00E948B5A6E
:10F980000E94BA6C082F82E9E82E80E1F82E10E080
:10F99000101771F00E94AF2B0E94BA6CE82FF0E0B4
:10F9A000E25BFC4DE491D701ED937D011F5FF0CF49
:10F9B000E12FF0E0EE56FF4E10820E9450600E9450
:10F9C000AF2B0E94BA6CD82E8E010F5F1F4F7801AB
:10F9D0008E2D801B8D1568F40E94AF2B0E94BA6C8F
:10F9E000E82FF0E0E25BFC4DE491D701ED937D015F
:10F9F000EFCFF801ED0DF11D10828091DB0981112F
:10FA0000BBC089818F3209F4A6C064E472E086EF3E
:10FA100090E10E94125F64E472E086EF90E10E9440
:10FA2000829462E970E186EF90E10E946E9466EF45
:10FA300070E182E990E10E94125F89818F3209F4BE
:10FA400091C064E472E086EF90E10E94125F64E48A
:10FA500072E086EF90E10E948294B80186EF90E117
:10FA60000E946E9466EF70E1C8010E94125F40E050
:10FA700062E970E189E895E10E94CE5A782E89E822
:10FA800095E10E94E23549015A01B1E88B16B4E8CC
:10FA90009B06BEE1AB06B10408F06AC0772009F40A
:10FAA00069C041E3B80181E595E10E94CE5A16E0B4
:10FAB000882369F110E00E94C3166F7377278827A7
:10FAC000992721E0613271058105910508F420E054
:10FAD000822F0E94C33440E052E060E87EE089E873
:10FAE00095E10E947B3B6C01092E000CEE08FF089B
:10FAF000AC0160E87EE081E595E10E943A3C97FD2B
:10FB000017E0C11482E0D806E104F104A1F289E80B
:10FB100095E10E94B12881E595E10E94B128812FED
:10FB20000E94BA2B0E94AF2B0E94CB2BCC59DF4FE7
:10FB30000FB6F894DEBF0FBECDBFDF91CF911F91FE
:10FB40000F91FF90EF90DF90CF90BF90AF909F907C
:10FB50008F907F90089562E970E186EF90E10E94B6
:10FB6000829465CFB80186EF90E10E9482947ACFAB
:10FB700015E0CDCF11E0CBCF1DE0D1CFDF92EF92DA
:10FB8000FF920F931F93CF93DF93CDB7DEB7C45689
:10FB9000D1090FB6F894DEBF0FBECDBF0E942D6114
:10FBA00080E00E94C3340E94AF2B0E94BA6C082FE1
:10FBB00092E9E92E90E1F92E10E0101771F00E9401
:10FBC000AF2B0E94BA6CE82FF0E0E25BFC4DE491B1
:10FBD000D701ED937D011F5FF0CFE12FF0E0EE56EE
:10FBE000FF4E10820E94AF2B0E94BA6CD82E8E015D
:10FBF0000F5F1F4F78018E2D801B8D1568F40E94BA
:10FC0000AF2B0E94BA6CE82FF0E0E25BFC4DE49170
:10FC1000D701ED937D01EFCFF801ED0DF11D1082BD
:10FC20008091DB0981118EC0809192108F3209F48E
:10FC30007CC064E472E086EF90E10E94125F64E4AD
:10FC400072E086EF90E10E94829462E970E186EFB3
:10FC500090E10E946E9466EF70E182E990E10E946B
:10FC6000125F89818F3209F467C064E472E086EF25
:10FC700090E10E94125F64E472E086EF90E10E94DE
:10FC80008294B80186EF90E10E946E9466EF70E175
:10FC9000C8010E94125F82E990E10E94575A8823AE
:10FCA00009F452C0C8010E94575A81114FC0B801CF
:10FCB00082E990E10E94075D81114AC01F930F9372
:10FCC00082E9E82E80E1F82EFF92EF928AE49FE12C
:10FCD0009F938F9386EF90E19F938F930E94D38E93
:10FCE0001F930F93FF92EF928DE29FE19F938F936B
:10FCF0000E94DE620FB6F894DEBF0FBECDBF83E078
:10FD00000E94BA2B0E94AF2B0E94CB2BCC59DF4F05
:10FD10000FB6F894DEBF0FBECDBFDF91CF911F911C
:10FD20000F91FF90EF90DF90089562E970E186EF08
:10FD300090E10E9482948FCFB80186EF90E10E94FB
:10FD40008294A4CF8DE0DCCF81E0DACF84E0D8CFFD
:10FD500080E0D6CFEF92FF920F931F93CF93DF9364
:10FD6000CDB7DEB7C35BD1090FB6F894DEBF0FBEC7
:10FD7000CDBF0E942D6180E00E94C3340E94AF2B52
:10FD80000E94BA6C082F82E9E82E80E1F82E10E07C
:10FD9000101779F00E94AF2B0E94BA6CE82F880FE1
:10FDA000FF0BE25BFC4DE491D701ED937D011F5FFA
:10FDB000EFCFE12FF0E0EE56FF4E10828091DB098D
:10FDC0001DE08111A5C0809192108F3209F466C0A8
:10FDD00064E472E086EF90E10E94125F64E472E0F6
:10FDE00086EF90E10E94829462E970E186EF90E1F3
:10FDF0000E946E9466EF70E1FE0131967F01CF01A3
:10FE00000E94125FC7010E94575A11E0882309F42B
:10FE10007FC06091C7147091C8146115710509F411
:10FE20008CC0A6961FAEA697A7961FAEA797A896BA
:10FE30001FAEA89720E0A701CE018B599F4F0E94CB
:10FE40004E5A8823B9F0A6968FADA69784FF12C0AC
:10FE5000CE018B599F4F0E94F32261E0CE018B5956
:10FE60009F4F0E947E38009701F5A7968FADA79708
:10FE7000882341F1FF92EF9289E19FE19F938F9355
:10FE800086EF90E19F938F930E94D38E0F900F90F7
:10FE90000F900F900F900F9013E027C062E970E170
:10FEA00086EF90E10E948294A5CFDC012C91222361
:10FEB00049F0253E91F22E3281F21B968C9183FD02
:10FEC000CCCFD8CF88E0A6968FAFA697A8968FAD57
:10FED000A8978260A8968FAFA897CE018B599F4FA5
:10FEE0000E94364110E0882329F240E0B70189E8FA
:10FEF00095E10E94CE5A882359F089E895E10E9445
:10FF0000CC35811101C012E089E895E10E94B12849
:10FF1000812F0E94BA2B0E94AF2B0E94CB2BCD5475
:10FF2000DF4F0FB6F894DEBF0FBECDBFDF91CF918C
:10FF30001F910F91FF90EF9008956091C9147091F7
:10FF4000CA146115710509F495CFCF56DF4F188299
:10FF5000C159D040CE56DF4F1882C259D040CD563D
:10FF6000DF4F1882C359D04020E0A701CE018B5942
:10FF70009F4F0E94A04B882309F47CCFCF56DF4FC0
:10FF80008881C159D04084FF75CFCE018B599F4FD6
:10FF90000E94722940E250E0BE016C567F4FCE01B4
:10FFA0008B599F4F0E94EC38009761F0809709F0C1
:10FFB00061CFCC56DF4F8881C459D04087FD5ACFDE
:10FFC0008111E8CF88E0CF56DF4F8883C159D040F8
:10FFD000CD56DF4F8881C359D0408260CD56DF4F68
:10FFE0008883C359D040CE018B599F4F0E94CA28A5
:10FFF00079CFEF92FF920F931F93CF93DF93CDB7FB
:020000021000EC
:10000000DEB7CE5CD1090FB6F894DEBF0FBECDBF10
:1000100080E00E94C3340E942D610E94AF2B0E9499
:10002000BA6C082F82E9E82E80E1F82E10E0101754
:1000300079F00E94AF2B0E94BA6CE82F880FFF0B5B
:10004000E25BFC4DE491D701ED937D011F5FEFCFA3
:10005000E12FF0E0EE56FF4E10828091DB09811116
:1000600016C1809192108F3209F450C064E472E09E
:1000700086EF90E10E94125F64E472E086EF90E107
:100080000E94829462E970E186EF90E10E946E9492
:1000900066EF70E1FE0131967F01CF010E94125F91
:1000A000C7010E94575A8111F4C06091C714709122
:1000B000C8146115710589F1A6961FAEA697A7967B
:1000C0001FAEA797A8961FAEA897655D7D4F21E04C
:1000D000A701CE018B599F4F0E94835C882309F4AE
:1000E000B2C080E00E94BA2B0E94AF2B0E94CB2BA3
:1000F000C253DF4F0FB6F894DEBF0FBECDBFDF9106
:10010000CF911F910F91FF90EF90089562E970E1F8
:1001100086EF90E10E948294BBCF0091C9141091A8
:10012000CA140115110509F48EC0C054DF4F18829E
:10013000C05CD040CF53DF4F1882C15CD040CE535B
:10014000DF4F1882C25CD040C353DF4FF982E88290
:10015000CD5CD040CF56DF4F1882C159D040CE562B
:10016000DF4F1882C259D040CD56DF4F1882C35995
:10017000D040F801E55AFD4F8081807509F463C0D5
:1001800089818F3209F441C0015D1D4FC353DF4F98
:1001900068817981CD5CD0409E0123533F4FAE01F1
:1001A0004D535F4FCE018C569F4F0E947D2A88236E
:1001B00009F449C0C353DF4FE881F981CD5CD040D9
:1001C0008081882309F459C020E0AE014D535F4F70
:1001D000B801CE018C569F4F0E94EF45882309F449
:1001E00040C08FE2FE01EC56FF4FDE01AB59BF4F1E
:1001F00001900D928A95E1F7CE018C569F4F0E9497
:10020000A7288E010B591F4FC1CFC353DF4FE88181
:10021000F981CD5CD04080818F3241F43196C35357
:10022000DF4FF983E883CD5CD040EFCF015D1D4FF8
:10023000D80190966D917C91CE018B599F4F0E9471
:10024000DD458111DECFFF92EF9280E09FE19F9329
:100250008F930E94DE620F900F900F900F9083E0BB
:1002600041CFAE014D535F4FB801CE018C569F4F29
:100270000E949A498111B5CFE6CFAE014D535F4F31
:10028000B801CE018C569F4F0E949A4927CF8DE02E
:1002900029CF84E027CFEF92FF920F931F93CF9344
:1002A000DF93CDB7DEB7C456D1090FB6F894DEBFE1
:1002B0000FBECDBF80E00E94C3340E94AF2B0E94CE
:1002C0002D610E94BA6C082F82E9E82E80E1F82E99
:1002D00010E0101779F00E94AF2B0E94BA6CE82F43
:1002E000880FFF0BE25BFC4DE491D701ED937D019C
:1002F0001F5FEFCFE12FF0E0EE56FF4E10828091AE
:10030000DB0981112DC064E472E0CE0101960E94E8
:10031000125F62E970E1CE0101960E946E94CE01F7
:1003200001960E94575A8823E9F0CE0101960E9457
:100330008B5A811119C083E00E94BA2B0E94AF2B07
:100340000E94CB2BCC59DF4F0FB6F894DEBF0FBE07
:10035000CDBFDF91CF911F910F91FF90EF90089546
:100360008DE0EACF81E0E8CF80E0E6CFCF92DF9268
:10037000EF92FF920F931F93CF93DF93CDB7DEB72A
:10038000C456D1090FB6F894DEBF0FBECDBF109290
:10039000DB090E942D6180E00E94C3340E94AF2BD4
:1003A0000E94BA6C082F22E9E22E20E1F22E10E022
:1003B000101779F00E94AF2B0E94BA6CE82F880FBB
:1003C000FF0BE25BFC4DE491D701ED937D011F5FD4
:1003D000EFCFE12FF0E0EE56FF4E108280919210A9
:1003E0008F3209F480C064E472E086EF90E10E94ED
:1003F000125F64E472E086EF90E10E94829462E909
:1004000070E186EF90E10E946E9466EF70E18E01DC
:100410000F5F1F4FC8010E94125F81EC95E10E949F
:100420007C35882321F081EC95E10E94B1288AE097
:10043000E82EF12C9EEEC92E9EE1D92E40E0B801A7
:1004400081EC95E10E94CE5A811114C01F930F9345
:10045000DF92CF920E94DE626AE070E080E090E07E
:100460000E949116B1E0EB1AF1080F900F900F90D7
:100470000F9021F781EC95E10E947C3581113AC003
:100480001F930F9384ED9EE19F938F930E94DE62F2
:1004900064E472E0C8010E9482940F900F900F9064
:1004A0000F9011E081EC95E10E947C35882321F0CA
:1004B00081EC95E10E94B128812F0E94BA2B0E9405
:1004C000AF2B0E94CB2BCC59DF4F0FB6F894DEBF79
:1004D0000FBECDBFDF91CF911F910F91FF90EF9095
:1004E000DF90CF90089562E970E186EF90E10E947D
:1004F00082948BCF81EC95E10E94CC35811135C07F
:10050000F80101900020E9F7329780818F3209F4D9
:100510001082C8010E94BC617C010E94CF6161E031
:1005200075E0C7010E947994892B89F4F801019044
:100530000020E9F731978FE2808381E08093DB0927
:10054000B80184E492E00E94829410E0ABCF1F9344
:100550000F9381EC9EE19F938F930E94DE620F9038
:100560000F900F900F9012E09DCF1F930F938DEA85
:100570009EE19F938F9386EF90E19F938F930E94CC
:10058000D38EB80184E492E00E9482940F900F9081
:100590000F900F900F900F90D8CFCF93DF930E94C2
:1005A0002D6180E00E94C3340E94AF2BC4E4D2E0EE
:1005B00089918823B9F00E94BA6C8D3029F080931C
:1005C0003002DF91CF910895FE013197E0810E2E28
:1005D000000CFF0BEE5BFE4D84910E94BA2B0E9433
:1005E000AF2BE6CF0E94BA6C8D3049F78FEF0E9497
:1005F000BA2B80E00E94BA2B0E94AF2BDF91CF91E3
:100600000C94CB2B2F923F924F925F926F927F92DE
:100610008F929F92AF92BF92CF92DF92EF92FF9212
:100620000F931F93CF93DF93CDB7DEB7EA970FB643
:10063000F894DEBF0FBECDBF8C011C821B821EAAA8
:100640001DAA18AE1FAA8AEC92E09A8389830E94A1
:10065000C31640E0B801CE0105960E94CE5A882309
:1006600009F47DC0CE0105960E94E235A90160E043
:1006700070E8CE0105960E947B3B00E010E020E090
:1006800030E040E050E060E070E0CE0105960E946E
:10069000CF34212C312C412C512C612C712C812CEC
:1006A000912C29AE3AAECE0105960E94E235590151
:1006B0006A017B018C019101A201B301C4010E9476
:1006C0002E9408F043C0CE0105960E94203CE82FEE
:1006D000D101B058FC919101A201B301C401A1E084
:1006E0000E94199419012A013B014C01FE17C9F21D
:1006F0008AAD8F9389AD8F938DED9DE19F938F93FD
:100700000E94DE620F900F900F900F900FEF1FEF7F
:10071000CE0101960E94392CC801EA960FB6F894D2
:10072000DEBF0FBECDBFDF91CF911F910F91FF9024
:10073000EF90DF90CF90BF90AF909F908F907F9081
:100740006F905F904F903F902F9008950E94C31636
:10075000CE0105960E94B12810E000E0D9CF85ECCB
:100760009DE19F938F930E94DE620F900F900EEF9A
:100770001FEFCECF4F925F926F927F928F929F9298
:10078000AF92BF92CF92DF92EF92FF920F931F939F
:10079000CF93DF9300D000D000D01F92CDB7DEB74B
:1007A0000E94C31680E00E94C3340E942D610E9403
:1007B000AF2B0E94A02B182F8093DA09F2E9EF2EBD
:1007C000F0E1FF2E00E0101789F00E94AF2B0E948D
:1007D000A02BE82FEF770E2E000CFF0BE25BFC4DF9
:1007E000E491D701ED937D010F5FEDCFE12FF0E0B4
:1007F000EE56FF4E108287EB94E00E94575A8823F2
:1008000021F087EB94E00E948B5A0E945060809107
:10081000DA0981116CC08091CF0D1F928F9382E90C
:1008200090E19F938F9328E130E23F932F939F9322
:100830008F930E94D38E8091CF0D8F5F8093CF0DC9
:100840000FB6F894DEBF0FBECDBF8091DB098823C1
:1008500009F415C1BE016B5F7F4FCE0101960E9466
:100860001A5B8D819E81892BD9F482E990E19F9357
:100870008F9383E190E29F938F9386EF90E19F9314
:100880008F930E94D38EBE016B5F7F4FCE01019686
:100890000E941A5B0F900F900F900F900F900F9087
:1008A0008D819E81892B31F58EEF9FE19F938F93F0
:1008B0000E94DE6280E00E94BA2B80E00E94BA2B88
:1008C0000F900F9011E01F921F9382E99FE19F9379
:1008D0008F930E94DE62812F0E94BA2B0E94AF2B61
:1008E0000E94CB2B0F900F900F900F900EC2109282
:1008F000CF0DABCF40E064E472E089E895E10E945F
:10090000CE5A0AE010E0ECEEEE2EEFE1FE2E40E0D3
:1009100064E472E089E895E10E94CE5A811115C025
:1009200084E492E09F938F93FF92EF920E94DE62A5
:100930006AE070E080E090E00E9491160150110999
:100940000F900F900F900F9011F789E895E10E949A
:100950007C35C12CD12C7601811164C089809A80AC
:10096000AB80BC808401950140E050E060E070E025
:1009700089E895E10E94CF348D810E94BA2B8E8147
:100980000E94BA2B412C512C32010E94C3166F7366
:1009900077278827992721E0613271058105910524
:1009A00008F420E0822F0E94C33440E052E060E867
:1009B0007EE089E895E10E947B3B4C01990FAA08F3
:1009C000BB0800E81EE073016201D701C60184196B
:1009D0009509A609B70988159905AA05BB0598F4D4
:1009E000D8018D918D010E94BA2BBFEFCB1ADB0A83
:1009F000EB0AFB0A8D819E81B0E0A0E0C816D90603
:100A0000EA06FB0610F38D819E81B0E0A0E0C816D7
:100A1000D906EA06FB0630F48114E2E09E06A10442
:100A2000B104E1F08D819E81B0E0A0E010E0C81635
:100A3000D906EA06FB06B0F48D819E81B0E0A0E005
:100A4000C816D906EA06FB0660F480E00E94BA2BBD
:100A5000FFEFCF1ADF0AEF0AFF0AEECF26013701B8
:100A600094CF18E086EE9FE19F938F930E94DE6201
:100A700089E895E10E94B1280F900F9024CF8091D2
:100A800092108F3209F4ADC064E472E086EF90E119
:100A90000E94125F64E472E086EF90E10E9482940B
:100AA00062E970E186EF90E10E946E9486EF90E13A
:100AB0000E94575A811106C065E075E086EF90E10B
:100AC0000E946E9440E066EF70E189E895E10E9433
:100AD000CE5A0AE010E074EDE72E7FE1F72E40E0F9
:100AE00066EF70E189E895E10E94CE5A811115C048
:100AF00086EF90E19F938F93FF92EF920E94DE62C8
:100B00006AE070E080E090E00E94911601501109C7
:100B10000F900F900F900F9011F789E895E10E94C8
:100B20007C35B82E89E895E10E94E23529013A0129
:100B30007A01690100E010E020E030E040E050E0A0
:100B400060E070E089E895E10E94CF34BB2059F065
:100B5000D301C2010197A109B10980349D40A3408E
:100B6000B10508F445C08FEB9FE19F938F930E94DE
:100B7000DE6280E00E94BA2B80E00E94BA2B0F90C8
:100B80000F9015E04114510431E06306710408F43C
:100B900011E0812C912C540184149504A604B7040F
:100BA00008F061C1BF92AF929F928F928DE99FE151
:100BB0009F938F930E94DE620F900F900F900F9083
:100BC0000F900F9080E00E94BA2B9FEF891A990A2C
:100BD000A90AB90A8C149D04AE04BF0498F318E066
:100BE00042C162E970E186EF90E10E9482945ECF9B
:100BF00086EF90E10E94BC618C010E94CF6168E0A9
:100C000075E0C8010E947994892B09F095C089E8A4
:100C100095E10E94B12886EF90E19F938F9384EB3A
:100C20009FE19F938F930E94DE620F900F900F9031
:100C30000F9080917E0E882321F08BEF91E10E942E
:100C4000B12840E066EF70E18BEF91E10E94CE5A4F
:100C500086EF90E10E94575A81110EC086EF90E115
:100C60009F938F9389E79FE19F938F930E94DE620A
:100C70000F900F900F900F908BEF91E10E947C35B9
:100C800081110EC086EF90E19F938F9387E69FE1DD
:100C90009F938F930E94DE620F900F900F900F90A2
:100CA0008BEF91E10E94E2352093D2093093D30972
:100CB0004093D4095093D5096093D6097093D7090E
:100CC0008093D8099093D9098CE290E0A0E0B0E03D
:100CD0008093EF0D9093F00DA093F10DB093F20D72
:100CE00081E00E94033481E080937E0E0E948B3B62
:100CF00080E00E94BA2B80E00E94BA2B80E00E9424
:100D0000BA2B0E94AF2B0E94CB2B2A960FB6F894D9
:100D1000DEBF0FBECDBFDF91CF911F910F91FF902E
:100D2000EF90DF90CF90BF90AF909F908F907F908B
:100D30006F905F904F90089540E052E060E87EE051
:100D400089E895E10E947B3B6EEB74E0C8010E944C
:100D50007994892B21F0D8018C91811189C0C090A0
:100D60008C0E8C2D90E0982F8827C0908B0EC80E8B
:100D7000D92ED11CB9E0CB1AB0E4DB0A0D2C000C43
:100D8000EE08FF0800E010E020E030E040E050E036
:100D900060E070E089E895E10E94CF348DEA9FE140
:100DA0009F938F930E94DE620F900F90FF92EF92BD
:100DB000DF92CF9283EA9FE19F938F930E94DE623E
:100DC0008C2D0E94BA2B8D2D0E94BA2B0F900F9064
:100DD0000F900F900F900F90412C512C32010E94D8
:100DE000C3166F7377278827992721E06132710531
:100DF0008105910508F420E0822F0E94C33440E071
:100E000052E060E87EE089E895E10E947B3B9C012E
:100E1000990F440B550B2F83388749875A8700E871
:100E20001EE053014201D501C40184199509A609A8
:100E3000B7092F81388549855A8582179307A407FA
:100E4000B50708F0B1C0D8018D918D010E94BA2B71
:100E5000BFEF8B1A9B0AAB0ABB0A8C149D04AE042D
:100E6000BF0408F310E089E895E10E94B1282BCD7A
:100E70006DE075E0C8010E947994892BE1F4C0907F
:100E80008C0E8C2D90E0982F8827C0908B0EC80E6A
:100E9000D92ED11CE9E0CE1AE0E4DE0A0D2C000CBC
:100EA000EE08FF0800E010E020E030E040E050E015
:100EB00060E070E051C06CE075E0C8010E94799478
:100EC000E0E8FEE0009729F16DE175E0C8010E94BD
:100ED0007994892B39F760E086E00E942B1561E058
:100EE00070E080E090E00E94911689E895E10E9410
:100EF000B1280E94842C86EF90E10E9402838F3FEC
:100F0000980779F560E075EA8FEF90E00E94AA34C7
:100F1000C90141919C012F5F3F4F4035C8F3FC014F
:100F2000E058F14FC5848C2D90E0982F8827C48419
:100F3000C80ED92ED11CF9E0CF1AF0E4DF0A0D2C2F
:100F4000000CEE08FF08732F770F770B8901272F0E
:100F5000372F472F572F672F89E895E10E94CF340D
:100F600025CF029629F46FEF70E080E090E0CECFBD
:100F70000E94412C11E01093320261E08DE00E944A
:100F80002B151093330261E08FE00E942B15109314
:100F90007F0E61E070E080E090E00E94911661E0D9
:100FA00086E00E942B15AFCE8C149D04AE04BF04C6
:100FB00008F058CF2F81388549855A852115324050
:100FC0004105510509F0EECD2401350108CF1F92EE
:100FD0000F920FB60F9211242F933F938F939F93ED
:100FE000AF93BF938091831090918410A09185104E
:100FF000B09186103091821023E0230F2D3758F5E1
:101000000196A11DB11D20938210809383109093AF
:101010008410A0938510B0938610809187109091D2
:101020008810A0918910B0918A100196A11DB11D60
:101030008093871090938810A0938910B0938A10A2
:10104000BF91AF919F918F913F912F910F900FBEC4
:101050000F901F90189526E8230F0296A11DB11D31
:10106000D2CF1F920F920FB60F9211240BB60F9290
:101070002F933F934F935F936F937F938F939F93A0
:10108000AF93BF93EF93FF93E0914202F09143023D
:101090001995FF91EF91BF91AF919F918F917F91A2
:1010A0006F915F914F913F912F910F900BBE0F90D9
:1010B0000FBE0F901F9018951F920F920FB60F92B0
:1010C00011240BB60F922F933F934F935F936F931F
:1010D0007F938F939F93AF93BF93EF93FF93E09191
:1010E0004002F09141021995FF91EF91BF91AF91AC
:1010F0009F918F917F916F915F914F913F912F9130
:101100000F900BBE0F900FBE0F901F9018951F925F
:101110000F920FB60F9211240BB60F922F933F939D
:101120004F935F936F937F938F939F93AF93BF93EF
:10113000EF93FF93E0913602F09137021995FF91FA
:10114000EF91BF91AF919F918F917F916F915F913F
:101150004F913F912F910F900BBE0F900FBE0F90AC
:101160001F9018951F920F920FB60F9211240BB675
:101170000F922F933F934F935F936F937F938F9330
:101180009F93AF93BF93EF93FF93E0913402F0915D
:1011900035021995FF91EF91BF91AF919F918F917A
:1011A0007F916F915F914F913F912F910F900BBE67
:1011B0000F900FBE0F901F9018951F920F920FB6B1
:1011C0000F9211240BB60F922F933F934F935F937F
:1011D0006F937F938F939F93AF93BF93EF93FF93FF
:1011E000E0913E02F0913F021995FF91EF91BF917E
:1011F000AF919F918F917F916F915F914F913F91AF
:101200002F910F900BBE0F900FBE0F901F9018954F
:101210001F920F920FB60F9211240BB60F922F93BD
:101220003F934F935F936F937F938F939F93AF936E
:10123000BF93EF93FF93E0913C02F0913D0219952B
:10124000FF91EF91BF91AF919F918F917F916F919E
:101250005F914F913F912F910F900BBE0F900FBE5A
:101260000F901F9018951F920F920FB60F92112496
:101270000BB60F922F933F934F935F936F937F9390
:101280008F939F93AF93BF93EF93FF93E0913A02B5
:10129000F0913B021995FF91EF91BF91AF919F9112
:1012A0008F917F916F915F914F913F912F910F900F
:1012B0000BBE0F900FBE0F901F9018951F920F92AC
:1012C0000FB60F9211240BB60F922F933F934F93AB
:1012D0005F936F937F938F939F93AF93BF93EF939E
:1012E000FF93E0913802F09139021995FF91EF9147
:1012F000BF91AF919F918F917F916F915F914F912E
:101300003F912F910F900BBE0F900FBE0F901F902B
:1013100018951F920F920FB60F9211240BB60F92D1
:101320002F933F934F935F936F937F938F939F93ED
:10133000AF93BF93EF93FF938AE591E10E94571714
:10134000FF91EF91BF91AF919F918F917F916F919D
:101350005F914F913F912F910F900BBE0F900FBE59
:101360000F901F9018951F920F920FB60F92112495
:101370000BB60F922F938F939F93EF93FF93E09170
:101380006A11F0916B118081E0917011F0917111EF
:1013900082FD1DC09081809173118F5F8F732091AA
:1013A0007411821741F0E0917311F0E0E65AFE4E9D
:1013B000958F80937311FF91EF919F918F912F9152
:1013C0000F900BBE0F900FBE0F901F90189580814D
:1013D000F2CF1F920F920FB60F9211240BB60F92FD
:1013E0002F933F934F935F936F937F938F939F932D
:1013F000AF93BF93EF93FF93E0915A09F0915B098C
:101400001995FF91EF91BF91AF919F918F917F912E
:101410006F915F914F913F912F910F900BBE0F9065
:101420000FBE0F901F901895EAE5F1E1138212822A
:1014300088EE93E0A0E0B0E084839583A683B78331
:1014400084E994E09183808385EC90E0958784879C
:1014500084EC90E09787868780EC90E0918B808B7E
:1014600081EC90E0938B828B82EC90E0958B848B67
:1014700086EC90E0978B868B118E128E138E148ED5
:10148000EDEBF5E11382128215AA14AA17AA16AA87
:101490008AEC92E091838083E5E8F5E11382128281
:1014A00015AA14AA17AA16AA91838083EDE4F5E180
:1014B0001382128215AA14AA17AA16AA91838083EE
:1014C000E5E1F5E11382128215AA14AA17AA16AA59
:1014D00091838083EDEDF4E11382128215AA14AAA0
:1014E00017AA16AA918380831092C8141092C71469
:1014F0001092CA141092C9141092CC141092CB14EA
:101500001092CE141092CD1420E52093CF14109297
:10151000D0141092D1141092D2142AE22093D31432
:101520001092D4141092D5141092D6141092D7148D
:101530001092D8141092D9141092DA141092DB146D
:101540001092DC14EFE2F2E11382128215AA14AABF
:1015500017AA16AA91838083E7EFF1E11382128222
:1015600015AA14AA17AA16AA9183808308957894BD
:1015700084B5826084BD84B5816084BD85B5826098
:1015800085BD85B5816085BD80916E008160809349
:101590006E001092810080918100826080938100B2
:1015A00080918100816080938100809180008160C2
:1015B000809380008091B10084608093B10080911D
:1015C000B00081608093B000809191008260809330
:1015D00091008091910081608093910080919000B2
:1015E0008160809390008091A10082608093A1002F
:1015F0008091A10081608093A1008091A000816012
:101600008093A000809121018260809321018091CC
:10161000210181608093210180912001816080936C
:10162000200180917A00846080937A0080917A0012
:10163000826080937A0080917A00816080937A0042
:1016400080917A00806880937A001092C100F19BAB
:1016500012C160E086E00E942B1561E086E00E94E6
:10166000591560E086E00E942B1580E89EE090937B
:101670008110809380100E9452148EE097E29F9315
:101680008F930E94DE6261E08DE00E94591561E057
:1016900082E00E94591561E084E00E94591561E0E2
:1016A00083E00E94591560E08AE20E94591561E0CA
:1016B0008EE00E94591561E080E10E94591561E0B9
:1016C00085E00E94591561E086E00E94591561E0AD
:1016D00087E00E94591560E088E00E94591560E09B
:1016E00089E00E94591560E08AE00E94591560E087
:1016F0008BE00E94591561E08DE00E94591561E070
:101700008FE00E94591560E082E10E94591560E067
:1017100083E10E94591560E085E10E94591560E05F
:1017200084E10E94591560E081E10E94591560E052
:101730008EE10E94591560E08FE10E94591560E02A
:1017400080E20E94591560E081E20E94591560E034
:1017500082E20E94591560E083E20E94591560E020
:1017600084E20E94591560E085E20E94591560E00C
:1017700086E10E94591560E087E10E94591560E0FA
:1017800088E10E94591560E089E10E94591560E0E6
:101790008AE10E94591560E08BE10E94591560E0D2
:1017A0008CE10E94591560E08DE10E94591560E0BE
:1017B00086E20E94591560E087E20E94591560E0B8
:1017C00088E20E94591560E089E20E94591561E0A3
:1017D0008EE20E94591561E08CE20E94591561E089
:1017E00080E30E94591561E08BE20E94591561E087
:1017F00081E30E94591561E08DE20E94591561E074
:101800008FE20E94591560E080E30E942B1560E092
:101810008EE20E942B1560E08BE20E942B1560E0A7
:1018200081E30E942B1510BA8FEF8093070161E0CE
:1018300085E00E942B1560E080E10E942B1560E09E
:101840008CE20E942B150F900F908091F60D811164
:101850004CC00E94EB4B8093F60D811115C08AEBB2
:1018600096E29F938F930E94DE626FEF70E080E0BC
:1018700090E00E94AA348EB3809581708093F50D1C
:101880006091F50D8EE0EFCE82EA96E29F938F9302
:101890000E94DE620F900F9060E07FEF80E090E0AA
:1018A0000E944F3481E00E94C3340E94036381E0B0
:1018B0000E94C334F19932C060E086E00E942B158B
:1018C00061E070E080E090E00E9491160E94842C1C
:1018D00080E195E00E9402838F3F980749F460E021
:1018E00075EA8FEF90E00E94AA3484ED96E2CECFA5
:1018F000029629F46FEF70E080E090E0F4CF0E9450
:10190000412CC1E0C093320261E08DE00E942B15B2
:10191000C093330261E08FE00E942B1581E097E3D2
:1019200090933F0280933E0280916900806C809387
:101930006900EB9A789410927F0E81E00E94C33484
:101940008CEE96E29F938F930E94DE6210926D0E52
:1019500010926C0E8FE090E09093790E8093780E49
:101960001092770E1092760E10927B0E10927A0ED5
:10197000C7EFDDE00F900F908FECE82E86E1F82E98
:10198000812C94E2992E94EFA92EB12C0FEF10E048
:101990001C8E1B8E1A82198218861F821A8619863F
:1019A0001B861C861D861E861C8A1B8AFE8AED8A63
:1019B000209128013091290150E040E02F5F3F4FF6
:1019C0004F4F5F4FC501B4010E9447933E8B2D8B53
:1019D0001A8A198A188A1F861A8F098F6D968EE0C7
:1019E000CE34D807A9F668EC70E08EE00E94EA2CAD
:1019F00080E00E940334F19912C081E097E29F9346
:101A00008F930E94DE6261E070E080E090E00E94CF
:101A1000911661E086E00E942B150F900F901092B6
:101A20007E0E0E94326C0E940118FBCF87EF91E17D
:101A30000E94392C8FE292E10E94392C8DED94E1C5
:101A40000E94392C85E195E10E94392C8DE495E1C5
:101A50000E94392C85E895E10E94392C8DEB95E1A7
:101A60000C94392C0F931F93CF93DF938230910501
:101A700010F482E090E0E091F715F091F81530E075
:101A800020E0B0E0A0E0309799F42115310509F489
:101A90004AC0281B390B24303105D8F58A819B8137
:101AA0006115710589F1FB0193838283FE0111C0E9
:101AB000408151810281138148175907E0F048178E
:101AC000590799F4109761F012960C931297139698
:101AD0001C933296CF01DF91CF911F910F91089502
:101AE0000093F7151093F815F4CF2115310551F037
:101AF0004217530738F0A901DB019A01BD01DF014C
:101B0000F801C1CFEF01F9CF9093F8158093F71545
:101B1000CDCFFE01E20FF31F819391932250310943
:101B200039832883D7CF2091F5153091F615232BD3
:101B300041F42091AA023091AB023093F615209324
:101B4000F5152091A8023091A9022115310541F423
:101B50002DB73EB74091AC025091AD02241B350B1E
:101B6000E091F515F091F615E217F307A0F42E1B9E
:101B70003F0B2817390778F0AC014E5F5F4F2417F1
:101B8000350748F04E0F5F1F5093F6154093F5153B
:101B9000819391939FCFF0E0E0E09CCFCF93DF93D0
:101BA0000097E9F0FC01329713821282A091F71599
:101BB000B091F815ED0130E020E01097A1F42081FC
:101BC0003181820F931F2091F5153091F61528175A
:101BD000390709F061C0F093F615E093F515DF9130
:101BE000CF910895EA01CE17DF07E8F54A815B81BE
:101BF0009E0141155105B1F7E901FB83EA83499143
:101C00005991C40FD51FEC17FD0761F480819181B4
:101C10000296840F951FE9019983888382819381BD
:101C20009B838A83F0E0E0E012968D919C9113975C
:101C30000097B9F52D913C911197CD010296820F35
:101C4000931F2091F5153091F6152817390739F6AD
:101C5000309751F51092F8151092F715B093F615CC
:101C6000A093F515BCCFD383C28340815181840FEB
:101C7000951FC817D90761F44E5F5F4F888199811E
:101C8000480F591F518340838A819B8193838283AC
:101C90002115310509F0B0CFF093F815E093F71551
:101CA0009ECFFD01DC01C0CF13821282D7CFFC0191
:101CB00088279927E89421912032E9F3293010F000
:101CC0002E30C8F32B3241F02D3239F4689404C021
:101CD0000E94CB8E820F911D219120532A30C0F398
:101CE0001EF4909581959F4F0895DC012D923D92B1
:101CF0004D925D926D927D928D929D92AD92BD922C
:101D0000CD92DD92ED92FD920D931D93CD93DD93D7
:101D10000F90FF91EF918DB78D938EB78D938FB705
:101D20008D93ED93FD93882799270D9221C0DC01B7
:101D3000CB0181309105811D2D903D904D905D909E
:101D40006D907D908D909D90AD90BD90CD90DD90EB
:101D5000ED90FD900D911D91CD91DD91ED91FD9155
:101D60000D90F894FEBF0FBEEDBFED91FD910D906B
:101D7000EF93FF930F920895FB01DC014150504017
:101D800048F005900D920020C9F701C01D92415006
:101D90005040E0F708957AE0979F902D879F802D1F
:101DA000910D112408950F931F93CF93DF93CDB717
:101DB000DEB72E970FB6F894DEBF0FBECDBF0E89EB
:101DC0001F898EE08C831A8309838FEF9FE79E83A0
:101DD0008D83AE01465E5F4F688D798DCE01019691
:101DE0000E94668F2F813885020F131FF801108221
:101DF0002E960FB6F894DEBF0FBECDBFDF91CF9108
:101E00001F910F9108950F931F93CF93DF93CDB739
:101E1000DEB72E970FB6F894DEBF0FBECDBF8C0194
:101E2000FA018EE08C831A83098377FF02C060E099
:101E300070E8615071097E836D83A901BF01CE01F5
:101E400001960E94668F4D815E8157FD0AC02F81E9
:101E50003885421753070CF49A01020F131FF8013B
:101E600010822E960FB6F894DEBF0FBECDBFDF9165
:101E7000CF911F910F9108950F931F93CF93DF93ED
:101E8000CDB7DEB72E970FB6F894DEBF0FBECDBF2D
:101E90008C018EE08C831A8309838FEF9FE79E83EA
:101EA0008D83CE0101960E94668F2F813885020FA7
:101EB000131FF80110822E960FB6F894DEBF0FBEE6
:101EC000CDBFDF91CF911F910F9108952F923F9237
:101ED0004F925F926F927F928F929F92AF92BF923A
:101EE000CF92DF92EF92FF920F931F93CF93DF93E6
:101EF00000D000D000D01F921F92CDB7DEB77C017A
:101F00003B018A01FC0117821682838181FFDDC1BA
:101F1000CE0101965C01F7019381F30193FD859158
:101F200093FF81913F01882309F453C1853239F42D
:101F300093FD859193FF81913F01853229F4B7018B
:101F400090E00E947E91E7CF912C212C312CFFE173
:101F5000F31538F08B3211F190F4803209F18332AD
:101F600029F137FC3CC020ED280F2A3050F536FE11
:101F700020C08AE0989E200D1124922E06C08D323A
:101F800091F0803371F7689430F8F30193FD8591F7
:101F900093FF81913F018111DACF21C0689431F81C
:101FA000689432F8F2CF689433F8EFCF689434F83D
:101FB000ECCFEAE02E9E200D1124222E689435F8F5
:101FC000E4CF8E3229F436FC04C1689436F8DDCFB4
:101FD0008C3619F4689437F8D8CF8836B1F2982F38
:101FE0009F7D95549330E0F08336A1F18337C1F1A2
:101FF000833509F063C02801F2E04F0E511CF8014F
:10200000C080D180692D70E036FC02C06FEF7FEF99
:10201000C6010E9468914C01689437F882010AC099
:102020000C5F1F4FFFE3F98388248394912C650193
:10203000E89437F833FE2DC0522C8114910471F5C9
:10204000552009F468CFB70180E290E00E947E91AC
:102050005A94F6CFF801808189830E5F1F4FE4CF39
:102060002801F2E04F0E511CF801C080D180692D8B
:1020700070E036FC02C06FEF7FEFC6010E947391E3
:102080004C018201D5CFB70180E290E00E947E91A1
:102090002A942814190409F0B0F7CECFF60137FCC2
:1020A000859137FE81916F01B70190E00E947E918A
:1020B00051105A94F1E08F1A9108BFCF843619F06D
:1020C000893609F077C0F80137FE6BC060817181F5
:1020D000828193810C5F1F4FF32DFF763F2E97FF78
:1020E00009C090958095709561957F4F8F4F9F4F58
:1020F000689437F82AE030E0A5010E94AE91C82E1E
:10210000CA188C2C432C36FE0CC0E89440F8C91435
:1021100040F434FE05C032FC03C0F32DFE7E4F2E8A
:10212000892C44FEAAC0FE01EC0DF11D8081803394
:1021300009F09CC0242D297E422E842D8870582EB3
:1021400043FCAAC040FEA4C09C2C821418F42C0CA2
:10215000922C981844FEA6C0B70180E390E00E943C
:102160007E9142FE09C088E790E041FE02C088E50A
:1021700090E0B7010E947E91C91408F49FC0CA94F0
:10218000D12C9FEFC91AD90ACA0CDB1CF601829127
:102190006F01B70190E00E947E91AC14BD04B1F7CD
:1021A0004FCF60817181072E000C880B990B0E5F59
:1021B0001F4F92CFD32CE894D4F82AE030E0853733
:1021C000E1F1232D297FD22E8F36A9F1F0F4883545
